:020000040000fa
:080000000002040000000000f2
:020000040000fa
:040008007a03000077
:020000040000fa
:04000c007a03000073
:020000040000fa
:040010007a0300006f
:020000040000fa
:040014007a0300006b
:020000040000fa
:040018007a03000067
:020000040000fa
:04001c007a03000063
:020000040000fa
:040020007a0300005f
:020000040000fa
:040024007a0300005b
:020000040000fa
:040028007a03000057
:020000040000fa
:04002c007a03000053
:020000040000fa
:040030007a0300004f
:020000040000fa
:0400340002030000c3
:020000040000fa
:040038007a03000047
:020000040000fa
:04003c007a03000043
:020000040000fa
:040040007a0300003f
:020000040000fa
:040044007a0300003b
:020000040000fa
:04004800fa020000b8
:020000040000fa
:04004c007a03000033
:020000040000fa
:040050007a0300002f
:020000040000fa
:040054007a0300002b
:020000040000fa
:040058007a03000027
:020000040000fa
:04005c004c03000051
:020000040000fa
:040060007a0300001f
:020000040000fa
:040064007a0300001b
:020000040000fa
:040068007a03000017
:020000040000fa
:04006c007a03000013
:020000040000fa
:040070007a0300000f
:020000040000fa
:040074007a0300000b
:020000040000fa
:040078007a03000007
:020000040000fa
:04007c007a03000003
:020000040000fa
:040080007a030000ff
:020000040000fa
:040084007a030000fb
:020000040000fa
:040088007a030000f7
:020000040000fa
:04008c007a030000f3
:020000040000fa
:040090007a030000ef
:020000040000fa
:040094002203000043
:020000040000fa
:040098007a030000e7
:020000040000fa
:04009c007a030000e3
:020000040000fa
:0400a0007a030000df
:020000040000fa
:0400a4007a030000db
:020000040000fa
:0400a8007a030000d7
:020000040000fa
:0400ac007a030000d3
:020000040000fa
:0400b0007a030000cf
:020000040000fa
:0400b4007a030000cb
:020000040000fa
:0400b8007a030000c7
:020000040000fa
:0400bc007a030000c3
:020000040000fa
:0400c0007a030000bf
:020000040000fa
:0400c4007a030000bb
:020000040000fa
:0400c8007a030000b7
:020000040000fa
:0400cc007a030000b3
:020000040000fa
:0400d0007a030000af
:020000040000fa
:0400d4007a030000ab
:020000040000fa
:0400d8007a030000a7
:020000040000fa
:0400dc007a030000a3
:020000040000fa
:0400e0007a0300009f
:020000040000fa
:0400e4007a0300009b
:020000040000fa
:0400e8007a03000097
:020000040000fa
:0400ec007a03000093
:020000040000fa
:0400f0007a0300008f
:020000040000fa
:0400f4007a0300008b
:020000040000fa
:0400f8007a03000087
:020000040000fa
:0400fc007a03000083
:020000040000fa
:040100007a0300007e
:020000040000fa
:040104007a0300007a
:020000040000fa
:040108007a03000076
:020000040000fa
:04010c007a03000072
:020000040000fa
:040110007a0300006e
:020000040000fa
:040114007a0300006a
:020000040000fa
:040118007a03000066
:020000040000fa
:04011c007a03000062
:020000040000fa
:040120007a0300005e
:020000040000fa
:040124007a0300005a
:020000040000fa
:040128007a03000056
:020000040000fa
:04012c007a03000052
:020000040000fa
:040130007a0300004e
:020000040000fa
:040134007a0300004a
:020000040000fa
:040138007a03000046
:020000040000fa
:04013c007a03000042
:020000040000fa
:040140007a0300003e
:020000040000fa
:040144007a0300003a
:020000040000fa
:040148007a03000036
:020000040000fa
:04014c007a03000032
:020000040000fa
:040150007a0300002e
:020000040000fa
:040154007a0300002a
:020000040000fa
:040158007a03000026
:020000040000fa
:04015c007a03000022
:020000040000fa
:040160007a0300001e
:020000040000fa
:040164007a0300001a
:020000040000fa
:040168007a03000016
:020000040000fa
:04016c007a03000012
:020000040000fa
:040170007a0300000e
:020000040000fa
:040174007a0300000a
:020000040000fa
:040178007a03000006
:020000040000fa
:04017c007a03000002
:020000040000fa
:040180007a030000fe
:020000040000fa
:040184007a030000fa
:020000040000fa
:040188007a030000f6
:020000040000fa
:04018c007a030000f2
:020000040000fa
:040190007a030000ee
:020000040000fa
:040194007a030000ea
:020000040000fa
:040198007a030000e6
:020000040000fa
:04019c007a030000e2
:020000040000fa
:0401a0007a030000de
:020000040000fa
:0401a4007a030000da
:020000040000fa
:0401a8007a030000d6
:020000040000fa
:0401ac007a030000d2
:020000040000fa
:0401b0007a030000ce
:020000040000fa
:0401b4007a030000ca
:020000040000fa
:0401b8007a030000c6
:020000040000fa
:0401bc007a030000c2
:020000040000fa
:0401c0007a030000be
:020000040000fa
:0401c4007a030000ba
:020000040000fa
:0401c8007a030000b6
:020000040000fa
:0401cc007a030000b2
:020000040000fa
:0401d0007a030000ae
:020000040000fa
:0401d4007a030000aa
:020000040000fa
:0401d8007a030000a6
:020000040000fa
:0401dc007a030000a2
:020000040000fa
:0401e0007a0300009e
:020000040000fa
:0401e4007a0300009a
:020000040000fa
:0401e8007a03000096
:020000040000fa
:0401ec007a03000092
:020000040000fa
:0401f0007a0300008e
:020000040000fa
:0401f4007a0300008a
:020000040000fa
:0401f8007a03000086
:020000040000fa
:0401fc007a03000082
:020000040000fa
:040200007a0300007d
:020000040000fa
:040204007a03000079
:020000040000fa
:040208007a03000075
:020000040000fa
:04020c007a03000071
:020000040000fa
:040210007a0300006d
:020000040000fa
:040214007a03000069
:020000040000fa
:040218007a03000065
:020000040000fa
:04021c007a03000061
:020000040000fa
:040220007a0300005d
:020000040000fa
:040224007a03000059
:020000040000fa
:040228007a03000055
:020000040000fa
:04022c007a03000051
:020000040000fa
:040230007a0300004d
:020000040000fa
:040234007a03000049
:020000040000fa
:040238007a03000045
:020000040000fa
:04023c007a03000041
:020000040000fa
:040240007a0300003d
:020000040000fa
:040244007a03000039
:020000040000fa
:040248007a03000035
:020000040000fa
:04024c007a03000031
:020000040000fa
:040250007a0300002d
:020000040000fa
:040254007a03000029
:020000040000fa
:040258007a03000025
:020000040000fa
:04025c007a03000021
:020000040000fa
:040260007a0300001d
:020000040000fa
:040264007a03000019
:020000040000fa
:040268007a03000015
:020000040000fa
:04026c007a03000011
:020000040000fa
:040270007a0300000d
:020000040000fa
:040274007a03000009
:020000040000fa
:040278007a03000005
:020000040000fa
:04027c007a03000001
:020000040000fa
:040280007a030000fd
:020000040000fa
:10040000ef0321000eff2c000e0188000000000009
:10041000000020000000e000020032000001200087
:100420002002880014000700b40007000000e0006c
:1004300003003a00803b2100010020000200370049
:100440000000200001002000810f70000100320038
:100450000f000700000020000000e0000200320052
:1004600000000200000000000c0702000000000075
:100470000040da000000fe00200020000000e00044
:1004800002003200100020009001880000000600e9
:10049000a1028800800478000000eb001f003700f4
:1004a000e284440054a0b4009905ba00e2844400f8
:1004b00054a0b4009906ba00e284440054a0b400e9
:1004c0000006eb00476fde00fd07b200ae018800ba
:1004d000636ce10003003a000ad801000000eb0061
:1004e0000e003700606ce10008003a00004deb00a0
:1004f0000a05e800020039003420ec000af0a000f0
:100500008b05e900f9ff3e00040037006168e10057
:10051000010032000086eb000b00070019c7ba008b
:100520000e04e0001905ba0003003a000a00e000da
:10053000dbff3a0000000600fe07b200ae028800b2
:100540008a047800f5ff37000cd0a300e20f4d00bd
:100550001c00390089027800354dba000a05e80010
:10056000020039003420ec000af0a0008b05e900fd
:100570000f003200254dba000a05e80002003900dc
:100580003420ec000af0a0008b05e90008003200de
:100590000c00e0000600320015cdba000a05e800a4
:1005a000020039003420ec000af0a0008b05e900bd
:1005b0008984e80054a0b4000b00e000e2ff3a0098
:1005c000000006009902ba00055d78008b05e9007d
:1005d000f7ff3200c82ade00055d78008b05e900d0
:1005e000f3ff32000c00e000f1ff320019ddba0029
:1005f000eeff37000000fa000108a9000080fa00b1
:10060000004006003600f800809fbe00829fbe00ba
:10061000849fbe00869fbe000000fa000068a9000b
:1006200088060700060807000080fa004f03be0096
:100630004f02be004f01be004f00be003600f90061
:10064000004006003600f800809fbe00829fbe007a
:10065000849fbe00869fbe000000fa000368a900c8
:10066000708080008180800061004000e080480050
:100670007080880081808800780207000080fa007e
:100680004f03be004f02be004f01be004f00be0030
:100690003600f90000400600809fbe000000fa000e
:1006a00001a8a9000118800020002100010878009d
:1006b00011188000200021001100980021188000ee
:1006c0002000210021009800311880002000210026
:1006d000310098004118800020002100410098005e
:1006e00010c0b3000af0b7000080fa004f00be004f
:1006f000004006000040da000000fe000000050097
:1007000003f0a200889fbe008a9fbe008c1f780065
:100710001b010700220133006450e1004f0032004a
:100720006420e1005200320003826c0007003b00ad
:100730000905d0000306d000820f54000c065d00ae
:1007400002003900020032008901780003067800b7
:100750008582550004003d000003fd008103fd007b
:100760008502ea008b854200840f720002003b0084
:1007700060001000e08018006011b8000005eb0078
:100780007a28e1000a00390006007800c75ddd0024
:10079000f707b200878075002d0037008281710055
:1007a0000a017800610560008180d1000080d300db
:1007b0008502e900f9ff3b000604400087844800f9
:1007c00002003b0060041400e0841c000988a300c0
:1007d000070032008a81710082817100610164002a
:1007e0008904d1000884d3008b05e8001700370086
:1007f0000978a30013003a000b00e0001300340056
:100800008b05e9000804440089844c000a44740004
:100810000978a3000d003a000b00e0000700340047
:100820008b05e9000804440089844c0001003a006b
:100830000b0020000978a300f7ff32000001eb0055
:1008400002003700828171000a01780091000700e0
:100850000cf0a70001f0a000da0037006420e100ee
:1008600002003a00838f6c00da0033000801be00fa
:100870000200be00d3003700889fbe008a9fbe00e2
:100880008c1f7800be000700c500330003866c0093
:100890006450e1002e0032006420e1003300320099
:1008a0006150e1002f0032006120e1003100320090
:1008b00085855500eb07b0000900200008042000e2
:1008c000050037000804440089844c000a00310008
:1008d0000603430087834b000001530081815b00c6
:1008e000f8ff33000203be000800a0000804440023
:1008f00089844c00f6ff3900c639dd00830173009e
:1009000001003200130020008904d1000884d300c4
:100910000998a300050032000800a7000300a0000a
:100920008904d1000884d3008b05e8008904d10034
:100930000884d3000001eb000281d20055000700bb
:1009400001f0a1000cf0a70001f0a0009d0037000d
:100950006420e1009f0032000801be000200be00da
:10096000f7ff37006120e1009a0032006000b80014
:10097000f3ff37000000200001f82700f0ff3700e8
:1009800014002000ca003700f4ff2f00c800370011
:100990000001be00650007000470a70003f0a1007d
:1009a0006509b100160032000d0035006828e1002d
:1009b00006003500f0ff2f00f1ff27000300e000e4
:1009c00013003b000100280000000500000040006b
:1009d000818048008502e900fcff3a0008003700ea
:1009e000f88f420002003c008000eb000000050090
:1009f0008100d1000080d3008502e800fcff3a00ae
:100a00000300e00002003b0060001000e0801800de
:100a1000000006000001be00440007000470a700ab
:100a200003f0a10003f8a30013003a006509b10028
:100a300010003200090035006928e100020035008d
:100a400001002800000005000000400081804800ef
:100a50008502e900fcff3a0000000600f88f420022
:100a6000050035008100d1000080d3008502e80038
:100a7000fcff3a00000006008000eb0000000500cb
:100a80004f89de0082017800a40037006011b800b1
:100a9000b200370081002000618055000b003d004e
:100aa0000b00200061fe2f000100e1001d0034005a
:100ab00082817100610164008904d1000884d3003f
:100ac0000000e800faff3a007100200061006400b5
:100ad000030070000200600009003200610444005d
:100ae000e0844c000988a500050032008b05e80071
:100af0006808e10002003a008904d1000884d300ac
:100b0000f20f20000258e10005003d00c75ddd0046
:100b1000f907b2008980750008007800000006001f
:100b20000bf827008b00780000000500c70ade00e4
:100b3000f107b200f50fb20008003200e1cf420029
:100b4000020032000170a00024000500810f700037
:100b5000010032000408050044000500810f700008
:100b600002003a00140005008502e9000000400080
:100b700081c04800fcff3b000170a000240005007c
:100b80000004be00e9ff07000003be000405be002c
:100b90000200be00e5ff0700844f7500000006005c
:100ba0000200be006450e100050036006420e10050
:100bb000020036000968a30001003a000800be00e8
:100bc0000160a0004f0678004f05be004f04be0034
:100bd00000000600f0ff2f00f1ff2700f9ff3700ab
:100be000889fbe008a9fbe008c1f7800e4ff07002c
:100bf000ebff330003866c006450e10024003200f8
:100c00006420e100270032006150e1002200320040
:100c10006120e100210032008b854200eb07b1002a
:100c20000134b800003ab8000804420089844a0040
:100c3000013ab8000030b8008880400009014a003d
:100c40000400330000004000818048000201490098
:100c50008b05e900c909dd00830170000100320045
:100c600013002000c814de004814dd004709de0030
:100c70001200b200c808de000884700085ff07007b
:100c800001f0a1000cf0a70001f0a000cdff37009b
:100c90006120e100cfff32000801be000200be006b
:100ca000f7ff37006150e100fcff3a00c9ff370051
:100cb000889fbe008a9fbe00841f7800b0ff070097
:100cc0004f00780011003300f0ff2f00838f6c007d
:100cd00006003b00040565000a00a7000800370075
:100ce00009f0a6001000200008003700820f540011
:100cf000838f5c00030039001000200001003e00db
:100d00000000200009f0a7000000ea004f05be0027
:100d10004f04be000000e00000000600881f7800bd
:100d2000030478000300e00007003d0060001000ad
:100d3000e080180060011900e081190002003b000a
:100d400001f02d00030037000400070008f0a700a1
:100d500001f0a0004f04780000000600889fbe004c
:100d60008a9fbe000082700004027100048271003c
:100d7000260032000004be000200be006011b80070
:100d80006b092000950220000182cf000a00390083
:100d90000541b1000082cf00070039000541b100d4
:100da0000982cf00040039000541b1000882cf005c
:100db000010039000541b100054252001200320025
:100dc0000a003b0082817100610164008100d10052
:100dd0000080d3008984d3000884d3008b05e80009
:100de0000442e800f7ff3a00070037000804440017
:100df00089844c0000004800818048008b05e90090
:100e00000442e900f9ff3a0022ff07004f05be0047
:080e10004f04be0000000600c3
:020000040000fa
:100e18000600fa0018060700420607006d030700df
:100e280053030700ea03070068040700c805070022
:100e3800010037000000000007060700e14f5000de
:100e4800fcff3a0008060700ff050700000f7800be
:100e58001e007800100078008000eb0009ff0700f2
:100e680032332300330524005bff07000200200013
:100e7800035824007efe0700d2cc2c00c3042400b3
:100e880055ff070010079800210798001e019000e1
:100e9800ae019000000020008120240074fe0700ad
:100ea80002002000030a240013fe07005081880076
:100eb800618188001e80e800100078008000eb0047
:100ec800f0fe0700323323003305240042ff0700f9
:100ed800020020000358240065fe0700d2cc2c0035
:100ee800c30424003cff070010079800210798005e
:100ef8001e019000ae019000000020008120240017
:100f08005bfe070002002000030a2400fafd070028
:100f180070818800818188009e007800648040008c
:100f2800100078008000eb00d6fe07003233230063
:100f38003305240028ff070002002000035824007e
:100f48004bfe0700d2cc2c00c304240022ff07006c
:100f580010079800210798001e019000ae0190002c
:100f6800000020008120240041fe0700020020002c
:100f7800030a2400e0fd070090818800a181880011
:100f88009e00780068804000100078008000eb0028
:100f9800bcfe070032332300330524000eff070090
:100fa800020020000358240031fe0700d2cc2c0098
:100fb800c304240008ff07001007980021079800c1
:100fc8001e019000ae019000000020008120240046
:100fd80027fe070002002000030a2400c6fd0700c0
:100fe800b0818800c18188009e007800668040003a
:100ff800100078008000eb00a2fe070032332300c7
:1010080033052400f4fe07000200200003582400e2
:1010180017fe0700d2cc2c00c3042400eefe070004
:1010280010079800210798001e019000ae0190005b
:1010380000002000812024000dfe0700020020008f
:10104800030a2400acfd0700d0818800e1818800f4
:1010580079ff37000000fa0014d0bf000080fb00c1
:10106800cf80de00d201200003002000820f500054
:10107800838f5800bf003e00000601001d003700a6
:10108800260037002f003700390037003a003700b4
:1010980043003700440037004d0037004e0037004a
:1010a80057003700580037006100370062003700ea
:1010b8006b0037006c00370075003700760037008a
:1010c80080003700810037008b003700a900370007
:1010d800a8003700a7003700a600370088003700af
:1010e80092003700a3003700a200370091003700b4
:1010f8009e0037000e30ef001030ef000041eb008b
:101108006000b8007804070012c0b3006000b8009f
:101118007504070010c0b30014f0b7007280800097
:1011280083808000803e200001002000800f510055
:10113800818f59009200360020c0b30014f0b70028
:10114800900037000041eb00000020000119240046
:101158006504070012c0b300000020000119240034
:101168006104070030c0b30014f0b70085003700f1
:1011780086000700830037000041eb0000002000d4
:10118800011824005804070012c0b3006000b8001a
:101198005504070050c0b30014f0b70079003700b9
:1011a8007a000700770037000041eb006000b800c4
:1011b8004d04070012c0b3000000200001182400ed
:1011c8004904070070c0b30014f0b7006d00370081
:1011d8006e0007006b0037000041eb0000002000a4
:1011e800811a24004004070012c0b3006000b80050
:1011f8003d04070090c0b30014f0b7006100370049
:10120800620007005f0037000041eb006000b80093
:101218003504070012c0b30000002000811a240022
:1012280031040700b0c0b30014f0b7005500370010
:1012380056000700530037000041eb000000200073
:10124800011d24002804070012c0b3006000b80084
:1012580025040700d0c0b30014f0b70049003700d8
:101268004a000700470037000041eb006000b80063
:101278001d04070012c0b30000002000011d240057
:1012880019040700f0c0b30014f0b7003d003700a0
:101298003e0007003b0037000041eb000000200043
:1012a800011824001004070012c0b3000000200039
:1012b80001182c000c04070010c1b30014f0b7008b
:1012c80030003700310007002e0037000041eb00e6
:1012d8000000200001182c000304070012c0b3000e
:1012e8000000200001182400ff03070030c1b300ec
:1012f80014f0b7002300370024000700210037004e
:101308000041eb000000200001102400f603070054
:1013180012c0b3000000200001102400f2030700ef
:1013280030c0b30014f0b7001600370017000700ec
:1013380014003700908080000000e800908088004a
:101348000041eb0000002000011c2400e603070018
:1013580012c0b30000002000011c2400e2030700b3
:10136800d0c1b30014f0b70006003700070007002b
:10137800040037001470ef0000000000010037007f
:10138800000000000080fa00000006000200fa00d9
:10139800881f78000040eb00004f780070818000c3
:1013a8008181800018c0b3000200200003192400c6
:1013b80071fd07000000e000010035000044eb006b
:1013c8000804e0001900320090818000a1818000ab
:1013d80018c0b30002002000831b240068fd07002a
:1013e8000000e00001003c000044eb000804e000bd
:1013f8000e003200b0818000c181800018c0b300a7
:1014080002002000031924005dfd07000000e00031
:1014180001003c000044eb000804e0000300320037
:1014280040c0b300004f780065013700708180002c
:101438008181800018c0b300020020000319240035
:101448004ffd07000000e00001003c000044eb00f5
:101458000804e0001900320090818000a18180001a
:1014680018c0b30002002000831b240044fd0700bd
:101478000000e00001003c000044eb000804e0002c
:101488000e003200b0818000c181800018c0b30016
:10149800020020000319240037fd07000000e000c7
:1014a800010035000044eb000804e00003003200ae
:1014b80030c0b300004f78004101370090818000b0
:1014c800a181800018c0b30002002000031b240083
:1014d80029fd07000000e000010035000044eb0092
:1014e8000804e00003003200a0c0b300004f7800f9
:1014f80033013700708180008181800018c0b300fb
:1015080002002000031b24001bfd07000000e00070
:10151800010035000044eb000804e0001900320027
:1015280090818000a181800018c0b30002002000d3
:10153800831d240012fd07000000e00001003c00ac
:101548000044eb000804e0000e003200b081800087
:10155800c181800018c0b30002002000031b2400d2
:1015680007fd07000000e00001003c000044eb001c
:101578000804e0000300320020c0b300004f7800e8
:101588000f013700708180008181800018c0b3008e
:1015980002002000031b2400f9fc07000000e00003
:1015a80001003c000044eb000804e0001900320090
:1015b80090818000a181800018c0b3000200200043
:1015c800831d2400eefc07000000e00001003c0041
:1015d8000044eb000804e0000e003200b0818000f7
:1015e800c181800018c0b30002002000031b240042
:1015f800e1fc07000000e000010035000044eb00ba
:101608000804e0000300320010c0b300004f780067
:10161800eb003700508180006181800018c0b30062
:1016280002002000031d2400d3fc07000000e00096
:10163800010035000044eb000804e0000e00320011
:10164800d0818000e181800018c0b3000200200032
:10165800031d2400cafc07000000e00001003c0054
:101668000044eb000804e00003003200d0c0b300df
:10167800004f7800d20037005081800061818000df
:1016880018c0b30002002000031d2400bcfc0700a2
:101698000000e00001003c000044eb000804e0000a
:1016a8000e003200d0818000e181800018c0b300b4
:1016b80002002000031d2400affc07000000e0002a
:1016c800010035000044eb000804e000030032008c
:1016d800c0c0b300004f7800b900370070818000a7
:1016e8008181800018c0b30002002000831d2400ff
:1016f800a1fc07000000e000010035000044eb00f9
:101708000804e0001900320090818000a181800067
:1017180018c0b300020020004321240098fc0700f1
:101728000000e00001003c000044eb000804e00079
:101738000e003200b0818000c181800018c0b30063
:1017480002002000831d24008dfc07000000e0003b
:1017580001003c000044eb000804e00003003200f4
:1017680060c0b300004f780095003700708180009a
:101778008181800018c0b30002002000831d24006e
:101788007ffc07000000e00001003c000044eb0083
:101798000804e0001900320090818000a1818000d7
:1017a80018c0b300020020004321240074fc070085
:1017b8000000e00001003c000044eb000804e000e9
:1017c8000e003200b0818000c181800018c0b300d3
:1017d80002002000831d240067fc07000000e000d1
:1017e800010035000044eb000804e000030032006b
:1017f80050c0b300004f780071003700908180001e
:10180800a181800018c0b3000200200043202400fa
:1018180059fc07000000e000010035000044eb001f
:101828000804e0000300320070c0b300004f7800e5
:1018380063003700508180006181800018c0b300c8
:1018480002002000031724004bfc07000000e00002
:10185800010035000044eb000804e0000e003200ef
:10186800d0818000e181800018c0b3000200200010
:10187800031f240042fc07000000e00001003c00b8
:101888000044eb000804e00003003200f0c0b3009d
:10189800004f78004a003700508180006181800045
:1018a80018c0b30002002000031f240034fc070006
:1018b8000000e00001003c000044eb000804e000e8
:1018c8000e003200d0818000e181800018c0b30092
:1018d800020020000317240027fc07000000e00096
:1018e800010035000044eb000804e000030032006a
:1018f800e0c0b300004f78003100370090818000cd
:10190800a181800018c0b300020020000323240036
:1019180019fc07000000e000010035000044eb005e
:101928000804e00003003200b0c0b300004f7800a4
:1019380023003700708180008181800018c0b300c7
:1019480002002000032224000dfc07000000e00034
:1019580001003c000044eb000804e00018003200dd
:1019680090818000a181800018c0b300020020008f
:101978000327240002fc07000000e00001003c00ef
:101988000044eb000804e0000d003200b081800044
:10199800c181800018c0b300020020000322240087
:1019a800f7fb07000000e00001003c000044eb00ea
:1019b8000804e000020032000040eb00004f78000d
:1019c8001e4078000004e00003003a00c0c1b300e4
:1019d80015f0b7004e0037001e407800e44f500065
:1019e80003003a00c0c0b30015f0b7004800370044
:1019f8001e407800e34f500003003a00e0c0b300f7
:101a080015f0b700420037001e407800e24f500042
:101a180003003a0080c0b30015f0b7003c0037005f
:101a28001e407800e14f500003003a00a0c0b30008
:101a380015f0b700360037001e407800e64f50001a
:101a480003003a0040c0b30015f0b700300037007b
:101a58001e407800e54f500003003a0060c0b30014
:101a680015f0b7002a0037001e407800ea4f5000f2
:101a7800060032001e407800ef4f5000030032008d
:101a88001e407800ee4f50000a003a009080800017
:101a9800610060000000e00003003a0020c1b300cc
:101aa80015f0b7001a00370000c1b30015f0b700f1
:101ab800170037001e407800e74f500003003a0037
:101ac80080c1b30015f0b700110037001e40780040
:101ad800eb4f500003003a0020c0b30015f0b700e8
:101ae8000b0037001e407800ed4f500003003a000d
:101af80040c0b30015f0b700050037001e4078005d
:101b0800ec4f500002003a0060c0b30015f0b70077
:101b180015d0bf008080fb0014d0bf000080fb0000
:101b28000000e900808f50000200320015d0bf008d
:101b380014f0b70015d0bf00fc4f500002003a0067
:101b480064eea8000100370064eea90015d0bf00bc
:101b5800e24f500002003a0064cea80001003700ae
:101b680064cea9004f0478000080fa000000060047
:101b78000000fa0013e1a90011e1a9001061a80012
:101b88001021a90081088000f0fc2f00008060006f
:101b9800800888000a21ef000621ef002026200097
:101ba8007008880000a02500600888002142800095
:101bb80080ff2f00008060000000a0002042880005
:101bc8000108a9002108a80011e1a8000080fa0076
:101bd800000006000000fa0005e1a900000020004e
:101be800a12f2400060007000421a9000068a9000d
:101bf8002068a80005e1a8000080fa00000006009f
:101c08000400fa00881f7800008fbe0021088000b9
:101c1800f0fc2f0000806000200888001e0178007a
:101c28009e0190000068290081c1240010fb070074
:101c380018c0b30002f02f00f377240050fb070010
:101c48000000e00001003c000044eb000804e00054
:101c58005400320021088000f0fc2f000080600052
:101c68000040a000200888001e0178009e01900016
:101c78000068290081c12400fdfa07000200200045
:101c880003102400fafa070018c0b30002f02f006e
:101c9800f37724003afb07000000e00001003c0055
:101ca8000044eb000804e000320032002108800004
:101cb800f0fc2f00008060000050a0002008880081
:101cc8001e0178009e0190000068290081c124004f
:101cd800e7fa07000200200003282400e4fa0700be
:101ce80018c0b30002f02f00f377240024fb07008c
:101cf8000000e00001003c000044eb000804e000a4
:101d0800100032002108800000032000010070004c
:101d1800200888001e0178009e01900000682900b4
:101d280081c12400d2fa07000200200003382400f1
:101d3800cffa070014fb070000007800100888009d
:101d4800200037001e0178009e01900000682900dd
:101d580081c12400c6fa07000200200003282400dd
:101d6800c3fa070008fb0700000078001008880085
:101d7800140037001e0178009e01900000682900b9
:101d880081c12400bafa07000200200003102400d1
:101d9800b7fa0700fcfa070000007800100888006e
:101da800080037001e0178009e0190000068290095
:101db80081c12400aefa0700f3fa0700000078009a
:101dc800100888004f0478000080fa000000060020
:101dd8000000fa001fe1a90000002000a14724002c
:101de800060007001e21a9000368a9002368a800af
:101df8001fe1a8000080fa00000006000400fa00b5
:101e0800881f7800008fbe00f1088000f0fc2f00ca
:101e180000806000f00888001e0178009e01900094
:101e28000068290081c1240091fa070018c0b30096
:101e380002f02f00f3772400d1fa07000000e00039
:101e480001003c000044eb000804e00054003200ac
:101e5800f1088000f0fc2f00008060000040a00026
:101e6800f00888001e0178009e0190000068290093
:101e780081c124007efa070002002000031024001c
:101e88007bfa070018c0b30002f02f00f377240094
:101e9800bbfa07000000e00001003c000044eb0032
:101ea8000804e00032003200f1088000f0fc2f0046
:101eb800008060000050a000f00888001e01780033
:101ec8009e0190000068290081c1240068fa07007b
:101ed800020020000328240065fa070018c0b30098
:101ee80002f02f00f3772400a5fa07000000e000b5
:101ef80001003c000044eb000804e0001000320040
:101f0800f10880000003200001007000f00888003c
:101f18001e0178009e0190000068290081c12400fc
:101f280053fa0700020020000338240050fa070083
:101f380095fa070000007800d008880020003700d4
:101f48001e0178009e0190000068290081c12400cc
:101f580047fa0700020020000328240044fa07007b
:101f680089fa070000007800d008880014003700bc
:101f78001e0178009e0190000068290081c124009c
:101f88003bfa0700020020000310240038fa07007b
:101f98007dfa070000007800d008880008003700a4
:101fa8001e0178009e0190000068290081c124006c
:101fb8002ffa070074fa070000007800d00888009c
:101fc8004f0478000080fa00000006000000fa00c4
:101fd8001160800080ff2f00008060001060880082
:101fe80000fa20002060880023aca800238ca800f9
:101ff80011618000f03f2f000080600000a0a00069
:10200800106188003000200020618800c3aca8005f
:10201800c38ca80011668000f03f2f00008060008c
:1020280000a0a0001066880030002000206688000c
:1020380001eca8000080fa00000006000000fa0089
:10204800889fbe008a9fbe00348180004581800041
:10205800108180002181800018c0b3000001be00fb
:102068000400be0044fa07000000e000010035004b
:102078000044eb000804e0000f00320018818000e3
:10208800298180003a8180004b81800016d0bf00f2
:102098000080fb00cf80de0077fa07000001be0059
:1020a8000a00be0095f907000801be00cf0007002e
:1020b800308188004181880034818000458180001a
:1020c800108180002181800018c0b3000001be008b
:1020d8000400be002afa07000000e00001003c00ee
:1020e8000044eb000804e0000f0032001881800073
:1020f800298180003a8180004b81800016d0bf0082
:102108000080fb00cf80de005bfa07000001be0004
:102118000a00be0078f907000801be009b0007000e
:1021280030818800418188003081800041818000b1
:1021380018c0b3006011b80011fa07000000e000f1
:1021480001003c000044eb000804e00004003200f9
:10215800c3cca80024cea800c3eca9000300370014
:10216800c3cca90024eea800c3eca80030818000ed
:10217800418180006f000700020020000322240034
:1021880095fa070021fa07000000780030668800f9
:10219800f480800005818000d0808000e18080008c
:1021a80018c0b3000001be000400be00f2f9070029
:1021b8000000e000010035000044eb000804e000e6
:1021c8000f003200d8808000e9808000fa8080000b
:1021d8000b81800016d0bf000080fb00cf80de009e
:1021e80025fa07000001be000a00be0043f90700f7
:1021f8000801be007d000700f0808800018188008a
:10220800f480800005818000d0808000e18080001b
:1022180018c0b3000001be000400be00d8f90700d2
:102228000000e00001003c000044eb000804e0006e
:102238000f003200d8808000e9808000fa8080009a
:102248000b81800016d0bf000080fb00cf80de002d
:1022580009fa07000001be000a00be0026f90700bf
:102268000801be0049000700f0808800018188004d
:10227800f08080000181800018c0b3006011b800b0
:10228800bff907000000e00001003c000044eb003b
:102298000804e0000400320023cca90015eea800d1
:1022a80023eca8000300370023eca90015cea800f2
:1022b80023cca800f0808000018180001d00070069
:1022c800020020000322240043fa0700cff9070088
:1022d80000007800306188004f05be004f04be0042
:1022e8000080fa00000006000600fa00008fbe0019
:1022f800424798004e4090000004e00004003a0075
:102308001e0178009e0190001281880023818800b8
:102318004e409000e14f500004003a001e01780042
:102328009e019000d2808800e38088000080fa0037
:10233800000006000400fa00881f7800008fbe0025
:1023480018c0b3006011b8001e0078009e0090000d
:102358008bf907000000e00001003d000044eb009d
:102368000804e000030032001e0078009e00900080
:10237800030037001e0078009e00900001f0a200c4
:102388004f0478000080fa00000006000800fa00f8
:10239800881f7800008fbe00220798003307980036
:1023a80018c0b3002e019000be0190001e007800f6
:1023b8009e00900072f907000000e00001003c0058
:1023c8000044eb000804e000030032001e0078001f
:1023d8009e009000020037002e009000be00900082
:1023e8004f0478000080fa00000006000800fa0098
:1023f800881f7800008fbe002207980033079800d6
:1024080018c0b3002e019000be0190001e00780095
:102418009e00900058f907000000e0000100350018
:102428000044eb000804e000030032001e007800be
:102438009e009000020037002e009000be00900021
:102448004f0478000080fa00000006000c00fa0033
:10245800881f7800008fbe00220798003307980075
:10246800440798005507980018c0b3004e01900023
:10247800de0190001e0078009e00900040f90700e1
:102488000000e00001003c000044eb000804e0000c
:10249800040032004e019000de019000028fbe0061
:1024a8000e00370018c0b3002e019000be01900046
:1024b8001e0078009e0090002ff907000000e00041
:1024c800010035000044eb000804e000030032007e
:1024d8002e019000be019000028fbe001e00780001
:1024e8009e0090004f0478000080fa00000006006b
:1024f8000400fa00008fbe00b2fd200093042400ff
:102508001e0078009e009000d9f807000200200005
:1025180043332400b0f907000080fa0000000600e9
:102528000400fa00008fbe00b2fd200093042400ce
:102538001e0078009e009000a7f907000200200006
:1025480043332400caf807000080fa0000000600a0
:102558000000fa0021e3a9002143a8000119800026
:10256800f0cf2f0000806000001988002043a900e8
:1025780001198000000e2000010070000019880079
:1025880011198000f0ff21000080600010198800f8
:102598002343a80011198000f0cf2f0000806000ad
:1025a800101988001119800030f82f000080600091
:1025b8000040a000101988002203a9002223a900c6
:1025c80025e3a900f0c0b30024e3b7002119800077
:1025d800f00f2e008080600000f0200001007000e5
:1025e800201988003303a9001e2ea8002e0ea8006b
:1025f8002f6ea8004feea8006f2ea8003063a80029
:1026080030c3a8003163a80031e3a8002e03a80056
:102618004119800000fc2f000080600040198800ec
:1026280028e3a90001a8a90021a8a80021e3a8007f
:102638000080fa00000006000000fa002023a8002d
:102648000080fa00000006000000fa0020002100c7
:102658000080fa00000006000000fa000ad0bf005f
:102668000080fa00000006000000fa000a70ef007f
:102678000080fa00000006000000fa00f0032000c5
:10268800303a8800213a8000f0f32f000080600083
:10269800203a8800213a800000fe2f000080600068
:1026a8000000a000203a88001200200080072000c7
:1026b800a1092000337420008049780081497800fe
:1026c80082497800103a8000000178000200a000da
:1026d80060042000710520002374200080497800e0
:1026e800814978008249780000000000113a800092
:1026f800000027008080600000002100808f5000cb
:10270800faff3a0000000000113a800000022000a1
:10271800008060000000e000fbff32000080fa004b
:10272800000006000000fa000e2eef001e2eef003b
:102738002e2eef003e2eef004e2eef005e2eef0005
:102748006e2eef00214ea90060cea90060eea90010
:1027580011cea90011eea90020cea90020eea900f3
:082768000080fa0000000600e9
:020000040000fa
:102770001210000004000000800000000c10000097
:102780000600000080000000181000002600000075
:10279000800000001610000002000000820000000f
:1027a00005000000001000000c0000008000000088
:0427b0000000000025
:020000040000fa
:02000004000af0
:04afe000cfff00009f
:020000040000fa
:02000004000af0
:04afe400ffff00006b
:020000040000fa
:02000004000af0
:04afe8007fff0000e7
:020000040000fa
:02000004000af0
:04afec005fff000003
:020000040000fa
:02000004000af0
:04aff00038ff000026
:020000040000fa
:02000004000af0
:04aff400ffff00005b
:00000001FF
