:020000040000fa
:080000000002040000000000f2
:020000040000fa
:0400080010040000e0
:020000040000fa
:04000c0010040000dc
:020000040000fa
:0400100010040000d8
:020000040000fa
:0400140010040000d4
:020000040000fa
:0400180010040000d0
:020000040000fa
:04001c0010040000cc
:020000040000fa
:0400200010040000c8
:020000040000fa
:0400240010040000c4
:020000040000fa
:0400280010040000c0
:020000040000fa
:04002c0010040000bc
:020000040000fa
:0400300010040000b8
:020000040000fa
:0400340002030000c3
:020000040000fa
:0400380010040000b0
:020000040000fa
:04003c0010040000ac
:020000040000fa
:0400400010040000a8
:020000040000fa
:0400440010040000a4
:020000040000fa
:04004800fa020000b8
:020000040000fa
:04004c00100400009c
:020000040000fa
:040050001004000098
:020000040000fa
:040054007003000035
:020000040000fa
:04005800a2030000ff
:020000040000fa
:04005c004c03000051
:020000040000fa
:040060001004000088
:020000040000fa
:040064001004000084
:020000040000fa
:040068001004000080
:020000040000fa
:04006c00100400007c
:020000040000fa
:040070001004000078
:020000040000fa
:040074001004000074
:020000040000fa
:040078001004000070
:020000040000fa
:04007c00100400006c
:020000040000fa
:040080001004000068
:020000040000fa
:040084001004000064
:020000040000fa
:040088001004000060
:020000040000fa
:04008c00100400005c
:020000040000fa
:040090001004000058
:020000040000fa
:040094002203000043
:020000040000fa
:040098001004000050
:020000040000fa
:04009c00100400004c
:020000040000fa
:0400a0001004000048
:020000040000fa
:0400a4001004000044
:020000040000fa
:0400a8001004000040
:020000040000fa
:0400ac00100400003c
:020000040000fa
:0400b0001004000038
:020000040000fa
:0400b4001004000034
:020000040000fa
:0400b8001004000030
:020000040000fa
:0400bc00100400002c
:020000040000fa
:0400c0001004000028
:020000040000fa
:0400c4001004000024
:020000040000fa
:0400c8001004000020
:020000040000fa
:0400cc00100400001c
:020000040000fa
:0400d0001004000018
:020000040000fa
:0400d4001004000014
:020000040000fa
:0400d8001004000010
:020000040000fa
:0400dc00100400000c
:020000040000fa
:0400e0001004000008
:020000040000fa
:0400e4001004000004
:020000040000fa
:0400e8001004000000
:020000040000fa
:0400ec0010040000fc
:020000040000fa
:0400f00010040000f8
:020000040000fa
:0400f40010040000f4
:020000040000fa
:0400f80010040000f0
:020000040000fa
:0400fc0010040000ec
:020000040000fa
:0401000010040000e7
:020000040000fa
:0401040010040000e3
:020000040000fa
:0401080010040000df
:020000040000fa
:04010c0010040000db
:020000040000fa
:0401100010040000d7
:020000040000fa
:0401140010040000d3
:020000040000fa
:0401180010040000cf
:020000040000fa
:04011c0010040000cb
:020000040000fa
:0401200010040000c7
:020000040000fa
:0401240010040000c3
:020000040000fa
:0401280010040000bf
:020000040000fa
:04012c0010040000bb
:020000040000fa
:0401300010040000b7
:020000040000fa
:0401340010040000b3
:020000040000fa
:0401380010040000af
:020000040000fa
:04013c0010040000ab
:020000040000fa
:0401400010040000a7
:020000040000fa
:0401440010040000a3
:020000040000fa
:04014800100400009f
:020000040000fa
:04014c00100400009b
:020000040000fa
:040150001004000097
:020000040000fa
:040154001004000093
:020000040000fa
:04015800100400008f
:020000040000fa
:04015c00100400008b
:020000040000fa
:040160001004000087
:020000040000fa
:040164001004000083
:020000040000fa
:04016800100400007f
:020000040000fa
:04016c00100400007b
:020000040000fa
:040170001004000077
:020000040000fa
:040174001004000073
:020000040000fa
:04017800100400006f
:020000040000fa
:04017c00100400006b
:020000040000fa
:040180001004000067
:020000040000fa
:040184001004000063
:020000040000fa
:04018800100400005f
:020000040000fa
:04018c00100400005b
:020000040000fa
:040190001004000057
:020000040000fa
:040194001004000053
:020000040000fa
:04019800100400004f
:020000040000fa
:04019c00100400004b
:020000040000fa
:0401a0001004000047
:020000040000fa
:0401a4001004000043
:020000040000fa
:0401a800100400003f
:020000040000fa
:0401ac00100400003b
:020000040000fa
:0401b0001004000037
:020000040000fa
:0401b4001004000033
:020000040000fa
:0401b800100400002f
:020000040000fa
:0401bc00100400002b
:020000040000fa
:0401c0001004000027
:020000040000fa
:0401c4001004000023
:020000040000fa
:0401c800100400001f
:020000040000fa
:0401cc00100400001b
:020000040000fa
:0401d0001004000017
:020000040000fa
:0401d4001004000013
:020000040000fa
:0401d800100400000f
:020000040000fa
:0401dc00100400000b
:020000040000fa
:0401e0001004000007
:020000040000fa
:0401e4001004000003
:020000040000fa
:0401e80010040000ff
:020000040000fa
:0401ec0010040000fb
:020000040000fa
:0401f00010040000f7
:020000040000fa
:0401f40010040000f3
:020000040000fa
:0401f80010040000ef
:020000040000fa
:0401fc0010040000eb
:020000040000fa
:0402000010040000e6
:020000040000fa
:0402040010040000e2
:020000040000fa
:0402080010040000de
:020000040000fa
:04020c0010040000da
:020000040000fa
:0402100010040000d6
:020000040000fa
:0402140010040000d2
:020000040000fa
:0402180010040000ce
:020000040000fa
:04021c0010040000ca
:020000040000fa
:0402200010040000c6
:020000040000fa
:0402240010040000c2
:020000040000fa
:0402280010040000be
:020000040000fa
:04022c0010040000ba
:020000040000fa
:0402300010040000b6
:020000040000fa
:0402340010040000b2
:020000040000fa
:0402380010040000ae
:020000040000fa
:04023c0010040000aa
:020000040000fa
:0402400010040000a6
:020000040000fa
:0402440010040000a2
:020000040000fa
:04024800100400009e
:020000040000fa
:04024c00100400009a
:020000040000fa
:040250001004000096
:020000040000fa
:040254001004000092
:020000040000fa
:04025800100400008e
:020000040000fa
:04025c00100400008a
:020000040000fa
:040260001004000086
:020000040000fa
:040264001004000082
:020000040000fa
:04026800100400007e
:020000040000fa
:04026c00100400007a
:020000040000fa
:040270001004000076
:020000040000fa
:040274001004000072
:020000040000fa
:04027800100400006e
:020000040000fa
:04027c00100400006a
:020000040000fa
:040280001004000066
:020000040000fa
:100400000f1d21000eff2c000e01880000000000cf
:10041000000020000000e000020032000001200087
:100420002002880014000700ff0007000000e00021
:1004300003003a0000922100010020000200370072
:100440000000200001002000810f70000100320038
:100450000f000700000020000000e0000200320052
:100460000000020000000000a207020000000000df
:100470000040da000000fe00200020000000e00044
:1004800002003200100020009001880000000600e9
:10049000a1028800800478000000eb001f003700f4
:1004a000e284440054a0b4009905ba00e2844400f8
:1004b00054a0b4009906ba00e284440054a0b400e9
:1004c0000006eb00476fde00fd07b200ae018800ba
:1004d000636ce10003003a000ad801000000eb0061
:1004e0000e003700606ce10008003a00004deb00a0
:1004f0000a05e800020039003420ec000af0a000f0
:100500008b05e900f9ff3e00040037006168e10057
:10051000010032000086eb000b00070019c7ba008b
:100520000e04e0001905ba0003003a000a00e000da
:10053000dbff3a0000000600fe07b200ae028800b2
:100540008a047800f5ff37000cd0a300e20f4d00bd
:100550001c00390089027800354dba000a05e80010
:10056000020039003420ec000af0a0008b05e900fd
:100570000f003200254dba000a05e80002003900dc
:100580003420ec000af0a0008b05e90008003200de
:100590000c00e0000600320015cdba000a05e800a4
:1005a000020039003420ec000af0a0008b05e900bd
:1005b0008984e80054a0b4000b00e000e2ff3a0098
:1005c000000006009902ba00055d78008b05e9007d
:1005d000f7ff3200c82ade00055d78008b05e900d0
:1005e000f3ff32000c00e000f1ff320019ddba0029
:1005f000eeff37000000fa000108a9000080fa00b1
:10060000004006003600f800809fbe00829fbe00ba
:10061000849fbe00869fbe000000fa000068a9000b
:1006200071080700510a07000080fa004f03be005e
:100630004f02be004f01be004f00be003600f90061
:10064000004006003600f800809fbe00829fbe007a
:10065000849fbe00869fbe000000fa000368a900c8
:10066000508080006180800061004000e080480090
:100670005080880061808800540307000080fa00e1
:100680004f03be004f02be004f01be004f00be0030
:100690003600f90000400600801f78000000fa00d4
:1006a00001a8a90000188000308e88001018800072
:1006b000408e880020188000508e880030188000fe
:1006c000608e880040188000708e880010c0b300d3
:1006d0001ff0b7000080fa004f00780000400600cd
:1006e000801f78000000fa000168a9001011800046
:1006f000640060000000e000010032002242a90016
:1007000010118000620060000000e000050032006f
:100710002222a90004003700301180002011880037
:10072000010037000000000010118000610060002f
:100730000000e000f8ff3a000080fa004f00780067
:10074000004006003600f800809fbe00829fbe0079
:10075000849fbe00869fbe000000fa000188a900a9
:100760008180800070808000808f50000200320005
:100770009e090700010037001270ef000080fa00a8
:100780004f03be004f02be004f01be004f00be002f
:100790003600f900004006003600f800809fbe00d9
:1007a000829fbe00849fbe00869fbe000000fa00ac
:1007b0000168a90010118000640060000000e000e2
:1007c000010032002242a900101180006200600086
:1007d0000000e000060032002222a90005003700d8
:1007e0003011800000407800f00907000100370058
:1007f0000000000010118000610060000000e000b7
:10080000f7ff3a000080fa004f03be004f02be001f
:100810004f01be004f00be003600f9000040060048
:100820000040da000000fe000000050003f0a20016
:10083000889fbe008a9fbe008c1f78001b010700a6
:10084000220133006450e1004f0032006420e100d7
:100850005200320003826c0007003b000905d00003
:100860000306d000820f54000c065d000200390020
:100870000200320089017800030678008582550065
:1008800004003d000003fd008103fd008502ea0035
:100890008b854200840f720002003b006000100054
:1008a000e08018006011b8000005eb007a28e10034
:1008b0000a00390006007800c75ddd00f707b200c6
:1008c000878075002d003700828171000a01780051
:1008d000610560008180d1000080d3008502e900bd
:1008e000f9ff3b00060440008784480002003b00fb
:1008f00060041400e0841c000988a3000700320093
:100900008a81710082817100610164008904d100d3
:100910000884d3008b05e800170037000978a3008e
:1009200013003a000b00e000130034008b05e900cf
:100930000804440089844c000a4474000978a30028
:100940000d003a000b00e000070034008b05e900c1
:100950000804440089844c0001003a000b00200088
:100960000978a300f7ff32000001eb000200370016
:10097000828171000a017800910007000cf0a70045
:1009800001f0a000da0037006420e10002003a0024
:10099000838f6c00da0033000801be000200be0045
:1009a000d3003700889fbe008a9fbe008c1f78004e
:1009b000be000700c500330003866c006450e100f0
:1009c0002e0032006420e100330032006150e1006b
:1009d0002f0032006120e100310032008585550092
:1009e000eb07b000090020000804200005003700d4
:1009f0000804440089844c000a00310006034300c7
:100a000087834b000001530081815b00f8ff3300b6
:100a10000203be000800a0000804440089844c00c2
:100a2000f6ff3900c639dd00830173000100320092
:100a3000130020008904d1000884d3000998a30082
:100a4000050032000800a7000300a0008904d100bf
:100a50000884d3008b05e8008904d1000884d30002
:100a60000001eb000281d2005500070001f0a10057
:100a70000cf0a70001f0a0009d0037006420e10009
:100a80009f0032000801be000200be00f7ff3700e1
:100a90006120e1009a0032006000b800f3ff3700e7
:100aa0000000200001f82700f0ff370014002000ac
:100ab000ca003700f4ff2f00c80037000001be0055
:100ac000650007000470a70003f0a1006509b100ec
:100ad000160032000d0035006828e10006003500e0
:100ae000f0ff2f00f1ff27000300e00013003b00a0
:100af000010028000000050000004000818048003f
:100b00008502e900fcff3a0008003700f88f420038
:100b100002003c008000eb00000005008100d100d5
:100b20000080d3008502e800fcff3a000300e000eb
:100b300002003b0060001000e0801800000006008a
:100b40000001be00440007000470a70003f0a100ec
:100b500003f8a30013003a006509b1001000320049
:100b6000090035006928e100020035000100280075
:100b70000000050000004000818048008502e90077
:100b8000fcff3a0000000600f88f42000500350027
:100b90008100d1000080d3008502e800fcff3a000c
:100ba000000006008000eb00000005004f89de0019
:100bb00082017800a40037006011b800b20037004d
:100bc00081002000618055000b003d000b002000db
:100bd00061fe2f000100e1001d00340082817100e0
:100be000610164008904d1000884d3000000e8009a
:100bf000faff3a00710020006100640003007000f9
:100c0000020060000900320061044400e0844c00ee
:100c10000988a500050032008b05e8006808e1009e
:100c200002003a008904d1000884d300f20f2000aa
:100c30000258e10005003d00c75ddd00f907b20084
:100c40008980750008007800000006000bf8270076
:100c50008b00780000000500c70ade00f107b20033
:100c6000f50fb20008003200e1cf4200020032006e
:100c70000170a00024000500810f70000100320007
:100c80000408050044000500810f700002003a00ce
:100c9000140005008502e9000000400081c0480002
:100ca000fcff3b000170a000240005000004be0012
:100cb000e9ff07000003be000405be000200be00fd
:100cc000e5ff0700844f7500000006000200be002b
:100cd0006450e100050036006420e10002003600a7
:100ce0000968a30001003a000800be000160a000ee
:100cf0004f0678004f05be004f04be0000000600fe
:100d0000f0ff2f00f1ff2700f9ff3700889fbe009a
:100d10008a9fbe008c1f7800e4ff0700ebff3300c2
:100d200003866c006450e100240032006420e1007e
:100d3000270032006150e100220032006120e10012
:100d4000210032008b854200eb07b1000134b8006e
:100d5000003ab8000804420089844a00013ab80009
:100d60000030b8008880400009014a0004003300c8
:100d70000000400081804800020149008b05e90025
:100d8000c909dd008301700001003200130020005a
:100d9000c814de004814dd004709de001200b2006e
:100da000c808de000884700085ff070001f0a1007c
:100db0000cf0a70001f0a000cdff37006120e1009a
:100dc000cfff32000801be000200be00f7ff37006f
:100dd0006150e100fcff3a00c9ff3700889fbe0068
:100de0008a9fbe00841f7800b0ff07004f00780084
:100df00011003300f0ff2f00838f6c0006003b00d2
:100e0000040565000a00a7000800370009f0a600e5
:100e10001000200008003700820f5400838f5c0010
:100e2000030039001000200001003e0000002000f7
:100e300009f0a7000000ea004f05be004f04be0005
:100e40000000e00000000600881f7800030478001e
:100e50000300e00007003d0060001000e080180083
:100e600060011900e081190002003b0001f02d0033
:100e7000030037000400070008f0a70001f0a000fd
:100e80004f04780000000600889fbe008a9fbe00c5
:100e9000008270000402710004827100260032009a
:100ea0000004be000200be006011b8006b09200003
:100eb000950220000182cf000a0039000541b100ef
:100ec0000082cf00070039000541b1000982cf0040
:100ed000040039000541b1000882cf00010039004b
:100ee0000541b10005425200120032000a003b00e9
:100ef00082817100610164008100d1000080d30013
:100f00008984d3000884d3008b05e8000442e800fc
:100f1000f7ff3a00070037000804440089844c00ba
:100f200000004800818048008b05e9000442e90088
:100f3000f9ff3a0022ff07004f05be004f04be0034
:040f400000000600a7
:020000040000fa
:100f44001000fa00889fbe0091080700e10807001e
:100f540013040700f90307009004070005060700bf
:100f6400c70707005608070007080700e14f5000ad
:100f740084003a0008080700ff07070010079800dc
:100f84001e009000100078008000eb0009ff0700ad
:100f940032332300330524005bff070002002000e6
:100fa400035824007efe0700d2cc2c00c304240086
:100fb40055ff070020079800310798002e01900084
:100fc400be019000000020008120240074fe070070
:100fd40002002000030a240013fe0700908d8800fd
:100fe400a18d88001e0090000080e80010007800a9
:100ff4008000eb00effe07003233230033052400aa
:1010040041ff0700020020000358240064fe07008b
:10101400d2cc2c00c30424003bff07002007980017
:10102400310798002e019000be01900000002000be
:10103400812024005afe070002002000030a240035
:10104400f9fd0700b08d8800c18d88001e00900056
:1010540064004000100078008000eb00d5fe07001b
:10106400323323003305240027ff07000200200049
:10107400035824004afe0700d2cc2c00c3042400e9
:1010840021ff070020079800310798002e019000e7
:10109400be019000000020008120240040fe0700d3
:1010a40002002000030a2400dffd0700d08d880021
:1010b400e18d88001e009000680040001000780058
:1010c4008000eb00bbfe070032332300330524000d
:1010d4000dff0700020020000358240030fe070023
:1010e400d2cc2c00c304240007ff0700200798007b
:1010f400310798002e019000be01900000002000ee
:101104008120240026fe070002002000030a240098
:10111400c5fd0700f08d8800018e88001e00900038
:1011240066004000100078008000eb00a1fe07007c
:101134003233230033052400f3fe070002002000ad
:101144000358240016fe0700d2cc2c00c30424004c
:10115400edfe070020079800310798002e0190004b
:10116400be01900000002000812024000cfe070036
:1011740002002000030a2400abfd0700108e880043
:10118400218e880000c3b300004f98003000200077
:1011940050079800f08d8000018e800067fe0700e4
:1011a40080447800d08d8000e18d800063fe0700cc
:1011b40000447800b08d8000c18d80005ffe070080
:1011c40000407800594f9800684f9800704f98007d
:1011d4000e4890000080fb00ed00470001017800fc
:1011e400de0090009a04070000c2b300004f98008c
:1011f4002000200050079800b08d8000c18d800031
:1012040018c0b30002002000031a240028fe0700bf
:101214000000e00001003c000044eb000804e00092
:1012240002003200254ea80001003700254ea90017
:1012340010c0b300504f9800207180004a00de00b7
:1012440061406000604f98000e4890000080fb00f1
:10125400ed00470001017800de0090007c040700e7
:10126400d08d8000e18d800018c0b3000200200002
:10127400031724000efe07000000e00001003c00fc
:101284000044eb000804e0000200320064eea80011
:101294000100370064eea90020c0b300504f98004d
:1012a400207380004700de0061406000604f9800ba
:1012b4000e4890000080fb00ed004700010178001b
:1012c400de00900062040700f08d8000018e800033
:1012d40018c0b30002002000031a2400f4fd070024
:1012e4000000e00001003c000044eb000804e000c2
:1012f4000200320064cea8000100370064cea900c9
:1013040030c0b300504f9800207380004600de00c8
:1013140061406000604f98000e4890000080fb0020
:10132400ed00470001017800de009000480407004a
:1013340000c4b300004f980020002000500798001c
:10134400108d8000218d8000dbfd070000007800f7
:1013540000f0a7000000ea0000407800504f980019
:10136400508d8000618d8000d3fd0700000078005f
:1013740000f0a7000000ea0000407800604f9800e9
:101384000e4890000080fb00ed004700010178004a
:10139400de0090002e0407000000eb00000f780030
:1013a4000500370013070700404f98004e4890008f
:1013b400860407001e0fe800280707009e0f500050
:1013c400f8ff3c00e8fe37000000fa0016d0bf002a
:1013d4000080fb00cf80de00d2012000030020004b
:1013e400820f5000838f5800bf003e0000060100aa
:1013f4001d003700260037002f0037003900370062
:101404003a00370043003700440037004d003700ee
:101414004e0037005700370058003700610037008e
:10142400620037006b0037006c003700750037002e
:101434007600370080003700810037008b003700ca
:10144400a9003700a8003700a7003700a60037001e
:101454008800370092003700a3003700a20037004d
:10146400910037009e0037000a30ef000c30ef0087
:101474000041eb006000b8008505070012c0b3000e
:101484006000b8008205070010c0b30016f0b70072
:101494005280800063808000803e20000100200094
:1014a400800f5100818f59009200360020c0b30094
:1014b40016f0b700900037000041eb000000200058
:1014c400011924007205070012c0b30000002000b7
:1014d400011924006e05070030c0b30016f0b700f0
:1014e4008500370086000700830037000041eb00c9
:1014f40000002000011824006505070012c0b30095
:101504006000b8006205070050c0b30016f0b700d1
:10151400790037007a000700770037000041eb00bc
:101524006000b8005a05070012c0b3000000200094
:10153400011824005605070070c0b30016f0b70068
:101544006d0037006e0007006b0037000041eb00b0
:1015540000002000811a24004d05070012c0b300ca
:101564006000b8004a05070090c0b30016f0b70049
:1015740061003700620007005f0037000041eb00a4
:101584006000b8004205070012c0b300000020004c
:10159400811a24003e050700b0c0b30016f0b7005e
:1015a4005500370056000700530037000041eb0098
:1015b40000002000011d24003505070012c0b300ff
:1015c4006000b80032050700d0c0b30016f0b700c1
:1015d400490037004a000700470037000041eb008c
:1015e4006000b8002a05070012c0b3000000200004
:1015f400011d240026050700f0c0b30016f0b70053
:101604003d0037003e0007003b0037000041eb007f
:1016140000002000011824001d05070012c0b300bb
:101624000000200001182c001905070010c1b300a8
:1016340016f0b70030003700310007002e003700e5
:101644000041eb000000200001182c0010050700e9
:1016540012c0b30000002000011824000c0507008c
:1016640030c1b30016f0b700230037002400070090
:10167400210037000041eb0000002000011024008d
:101684000305070012c0b30000002000011024006d
:10169400ff04070030c0b30016f0b700160037008f
:1016a4001700070014003700a08080000000e80045
:1016b400a08088000041eb0000002000011c2400f1
:1016c400f304070012c0b30000002000011c240032
:1016d400ef040700d0c1b30016f0b70006003700ce
:1016e40007000700040037001670ef000000000038
:1016f40001003700000000000080fa00000006002e
:101704000a00fa00881f78000040eb00004f7800c0
:10171400b08d8000c18d800018c0b300020020008d
:1017240003192400e0fc07000000e000010035007c
:101734000044eb000804e00019003200d08d800062
:10174400e18d800018c0b30002002000831b240038
:10175400d7fc07000000e00001003c000044eb005f
:101764000804e0000e003200f08d8000018e80003d
:1017740018c0b3000200200003192400ccfc0700a9
:101784000000e00001003c000044eb000804e0001d
:101794000300320040c0b300004f780065013700f9
:1017a400b08d8000c18d800018c0b30002002000fd
:1017b40003192400befc07000000e00001003c0007
:1017c4000044eb000804e00019003200d08d8000d2
:1017d400e18d800018c0b30002002000831b2400a8
:1017e400b3fc07000000e00001003c000044eb00f3
:1017f4000804e0000e003200f08d8000018e8000ad
:1018040018c0b3000200200003192400a6fc07003e
:101814000000e000010035000044eb000804e00093
:101824000300320030c0b300004f7800410137009c
:10183400d08d8000e18d800018c0b300020020002c
:10184400031b240098fc07000000e00001003500a1
:101854000044eb000804e00003003200a0c0b30021
:10186400004f780033013700b08d8000c18d8000b7
:1018740018c0b30002002000031b24008afc0700e8
:101884000000e000010035000044eb000804e00023
:1018940019003200d08d8000e18d800018c0b300a3
:1018a40002002000831d240081fc07000000e000ea
:1018b40001003c000044eb000804e0000e0032008c
:1018c400f08d8000018e800018c0b300020020005b
:1018d400031b240076fc07000000e00001003c002c
:1018e4000044eb000804e0000300320020c0b30011
:1018f400004f78000f013700b08d8000c18d80004b
:1019040018c0b30002002000031b240068fc070079
:101914000000e00001003c000044eb000804e0008b
:1019240019003200d08d8000e18d800018c0b30012
:1019340002002000831d24005dfc07000000e0007d
:1019440001003c000044eb000804e0000e003200fb
:10195400f08d8000018e800018c0b30002002000ca
:10196400031b240050fc07000000e00001003500c8
:101974000044eb000804e0000300320010c0b30090
:10198400004f7800eb003700908d8000a18d80001f
:1019940018c0b30002002000031d240042fc07000d
:1019a4000000e000010035000044eb000804e00002
:1019b4000e003200108e8000218e800018c0b3000b
:1019c40002002000031d240039fc07000000e00091
:1019d40001003c000044eb000804e0000300320076
:1019e400d0c0b300004f7800d2003700908d800043
:1019f400a18d800018c0b30002002000031d240044
:101a04002bfc07000000e00001003c000044eb0058
:101a14000804e0000e003200108e8000218e800049
:101a240018c0b30002002000031d24001efc0700a0
:101a34000000e000010035000044eb000804e00071
:101a440003003200c0c0b300004f7800b900370073
:101a5400b08d8000c18d800018c0b300020020004a
:101a6400831d240010fc07000000e0000100350085
:101a74000044eb000804e00019003200d08d80001f
:101a8400e18d800018c0b30002002000432124002f
:101a940007fc07000000e00001003c000044eb00ec
:101aa4000804e0000e003200f08d8000018e8000fa
:101ab40018c0b30002002000831d2400fcfb0700b3
:101ac4000000e00001003c000044eb000804e000da
:101ad4000300320060c0b300004f78009500370067
:101ae400b08d8000c18d800018c0b30002002000ba
:101af400831d2400eefb07000000e00001003c0011
:101b04000044eb000804e00019003200d08d80008e
:101b1400e18d800018c0b30002002000432124009e
:101b2400e3fb07000000e00001003c000044eb0080
:101b34000804e0000e003200f08d8000018e800069
:101b440018c0b30002002000831d2400d6fb070048
:101b54000000e000010035000044eb000804e00050
:101b64000300320050c0b300004f7800710037000a
:101b7400d08d8000e18d800018c0b30002002000e9
:101b840043202400c8fb07000000e00001003500ea
:101b94000044eb000804e0000300320070c0b3000e
:101ba400004f780063003700908d8000a18d800085
:101bb40018c0b3000200200003172400bafb07007a
:101bc4000000e000010035000044eb000804e000e0
:101bd4000e003200108e8000218e800018c0b300e9
:101be40002002000031f2400b1fb07000000e000f6
:101bf40001003c000044eb000804e0000300320054
:101c0400f0c0b300004f78004a003700908d800088
:101c1400a18d800018c0b30002002000031f24001f
:101c2400a3fb07000000e00001003c000044eb00bf
:101c34000804e0000e003200108e8000218e800027
:101c440018c0b300020020000317240096fb07000d
:101c54000000e000010035000044eb000804e0004f
:101c640003003200e0c0b300004f780031003700b9
:101c7400d08d8000e18d800018c0b30002002000e8
:101c84000323240088fb07000000e0000100350066
:101c94000044eb000804e00003003200b0c0b300cd
:101ca400004f780023003700b08d8000c18d800084
:101cb40018c0b30002002000032224007cfb0700ac
:101cc4000000e00001003c000044eb000804e000d8
:101cd40018003200d08d8000e18d800018c0b30060
:101ce400020020000327240071fb07000000e0002d
:101cf40001003c000044eb000804e0000d00320049
:101d0400f08d8000018e800018c0b3000200200016
:101d14000322240066fb07000000e00001003c00f1
:101d24000044eb000804e000020032000040eb0035
:101d3400004f78001e4078000004e00003003a00e1
:101d4400c0c1b30017f0b7004e0037001e40780042
:101d5400e44f500003003a00c0c0b30017f0b700ce
:101d6400480037001e407800e34f500003003a005b
:101d7400e0c0b30017f0b700420037001e407800ff
:101d8400e24f500003003a0080c0b30017f0b700e0
:101d94003c0037001e407800e14f500003003a0039
:101da400a0c0b30017f0b700360037001e4078001b
:101db400e64f500003003a0040c0b30017f0b700ec
:101dc400300037001e407800e54f500003003a0011
:101dd40060c0b30017f0b7002a0037001e40780037
:101de400ea4f5000060032001e407800ef4f5000ca
:101df400030032001e407800ee4f50000a003a0003
:101e0400a0808000610060000000e00003003a0050
:101e140020c1b30017f0b7001a00370000c1b300a7
:101e240017f0b700170037001e407800e74f500046
:101e340003003a0080c1b30017f0b7001100370067
:101e44001e407800eb4f500003003a0020c0b3005e
:101e540017f0b7000b0037001e407800ed4f50001c
:101e640003003a0040c0b30017f0b7000500370084
:101e74001e407800ec4f500002003a0060c0b300ee
:101e840017f0b70017d0bf008080fb0016d0bf004a
:101e94000080fb000000e900808f50002400320025
:101ea40017d0bf0016f0b70000c5b3001047980064
:101eb400500020001007980017d0bf00404798003a
:101ec40050808000618080004808de000040780077
:101ed4005047980050808000618080004008de00f8
:101ee4000040780060479800508080006180800046
:101ef4004809dd004800de0000007100c808de006b
:101f04000040780070479800508080006180800015
:101f140000407800004f98001e4090000080fb00b5
:101f2400e4004700010178009e009000480107008a
:101f34004f0478000080fa00000006000000fa0058
:101f440013e1a90011e1a9001061a8001021a90062
:101f540081088000f0fc2f00008060008008880069
:101f64000a21ef000621ef002026200070088800d7
:101f740000a02500600888002142800080ff2f0017
:101f8400008060000000a000204288000108a90031
:101f94002108a80011e1a8000080fa000000060052
:101fa4000000fa0005e1a90000002000a12f240090
:101fb400060007000421a9000068a9002068a80001
:101fc40005e1a8000080fa00000006000400fa0001
:101fd400881f7800008fbe0021088000f0fc2f00cd
:101fe40000806000200888001e0178009e01900097
:101ff4000068290081c1240069fa070018c0b300f1
:1020040002f02f00f3772400a9fa07000000e00093
:1020140001003c000044eb000804e00054003200de
:1020240021088000f0fc2f00008060000040a00028
:10203400200888001e0178009e0190000068290095
:1020440081c1240056fa0700020020000310240076
:1020540053fa070018c0b30002f02f00f3772400ee
:1020640093fa07000000e00001003c000044eb008c
:102074000804e0003200320021088000f0fc2f0048
:10208400008060000050a000200888001e01780035
:102094009e0190000068290081c1240040fa0700d5
:1020a40002002000032824003dfa070018c0b300f2
:1020b40002f02f00f37724007dfa07000000e0000f
:1020c40001003c000044eb000804e0001000320072
:1020d400210880000003200001007000200888000f
:1020e4001e0178009e0190000068290081c124002f
:1020f4002bfa0700020020000338240028fa070006
:102104006dfa0700000078001008880020003700ee
:102114001e0178009e0190000068290081c12400fe
:102124001ffa070002002000032824001cfa0700fd
:1021340061fa0700000078001008880014003700d6
:102144001e0178009e0190000068290081c12400ce
:1021540013fa0700020020000310240010fa0700fd
:1021640055fa0700000078001008880008003700be
:102174001e0178009e0190000068290081c124009e
:1021840007fa07004cfa07000000780010088800de
:102194004f0478000080fa00000006000000fa00f6
:1021a4001fe1a90000002000a14724000600070049
:1021b4001e21a9000368a9002368a8001fe1a80044
:1021c4000080fa00000006000400fa00881f78006e
:1021d400008fbe00f1088000f0fc2f00008060003a
:1021e400f00888001e0178009e0190000068290014
:1021f40081c12400eaf9070018c0b30002f02f00df
:10220400f37724002afa07000000e00001003c00f4
:102214000044eb000804e00054003200f1088000a0
:10222400f0fc2f00008060000040a000f00888004f
:102234001e0178009e0190000068290081c12400dd
:10224400d7f907000200200003102400d4f9070086
:1022540018c0b30002f02f00f377240014fa07002b
:102264000000e00001003c000044eb000804e00032
:1022740032003200f1088000f0fc2f000080600082
:102284000050a000f00888001e0178009e01900014
:102294000068290081c12400c1f907000200200060
:1022a40003282400bef9070018c0b30002f02f0071
:1022b400f3772400fef907000000e00001003c0071
:1022c4000044eb000804e00010003200f108800034
:1022d4000003200001007000f00888001e0178004f
:1022e4009e0190000068290081c12400acf9070018
:1022f4000200200003382400a9f90700eef90700c2
:1023040000007800d0088800200037001e01780003
:102314009e0190000068290081c12400a0f90700f3
:1023240002002000032824009df90700e2f90700b9
:1023340000007800d0088800140037001e017800df
:102344009e0190000068290081c1240094f90700cf
:10235400020020000310240091f90700d6f90700b9
:1023640000007800d0088800080037001e017800bb
:102374009e0190000068290081c1240088f90700ab
:10238400cdf9070000007800d00888004f047800d9
:102394000080fa00000006000a00fa0020079800f6
:1023a4003107980042079800e0cfb300004f78004f
:1023b4002e0090004880de00804078001e407800a7
:1023c40000c06800004f78002e0090008040780024
:1023d4001e40780000c06800004f78003e00900066
:1023e4004880de00804078001e40780000c068000d
:1023f400004f78003e009000804078001e40780036
:1024040000c06800004f78000000eb00100798003f
:10241400080037001e009000ce00900000804000ad
:10242400104078001e4f68001e0090000000e80075
:10243400100798009e0090003e009000808f50008e
:10244400f4ff35001e4078000080fa00000006000a
:102454001000fa00889fbe0050079800610798009a
:10246400720798000f0478000f0078008004780049
:102474007e019000ee0090005e009000c6ff070011
:10248400404798006e009000660040008000e9001c
:10249400310798000000e8000000e8000000d100c7
:1024a400800040000f007800818747000000e800aa
:1024b4000000d10000004000400798000000eb003d
:1024c400000f78004e0090001e004000e1cfb300e2
:1024d400014878001e0fe8005e0090004880de008e
:1024e400804078004e0090001e00400001487800b3
:1024f4001e0fe8005e009000804078004e009000bf
:102504001e004000014878001e0fe8006e00900095
:102514004880de00804078004e0090001e0040009d
:10252400014878001e0fe8006e009000804078009b
:102534004e0090001e004000014878001e0fe80085
:102544000000eb00100798000b0037001e009000fd
:10255400fe00900000804000904078004e00900003
:102564001e004000014878001e0fe8001e00900085
:102574000000e800100798009e0090006e00900094
:10258400808f5000f1ff35004e0090001e00400087
:10259400ce409000014878001e0fe8006e009000c5
:1025a400e60040004e009000d301070000a821007f
:1025b400610020006203070089077800880778001b
:1025c4004f04be000080fa00000006000400fa0078
:1025d4002047980006d0bf000080fb00e30f5000a6
:1025e40026003200e30f500007003c00e10f5000ca
:1025f40013003200e10f500018003c000000e0001e
:10260400080032004d003700e50f5000340032005e
:10261400e50f500020003500e60f50003e00320068
:10262400460037002e409000e24f400046003a003a
:1026340010c0b30006f0b7000030ef0045003700cb
:102644002e4090000080fb004800dd0000808800e0
:1026540020c0b30006f0b7003e0037002e409000c3
:102664008080fb00008080000080400000808800a3
:1026740030c0b30006f0b700360037002e4090009b
:102684000080fb004800dd001080880040c0b300db
:1026940006f0b7002f0037002e4090008080fb002a
:1026a400108080000080400010808800108080002e
:1026b4000000e0000400320011808000004020008f
:1026c400808f5000020034000670ef0021003700b4
:1026d40050c0b30006f0b7000430ef001d0037000f
:1026e4002080800001122100808040002e41900053
:1026f400824878000000e800208088002180800063
:1027040010808000808f50001100350060c0b3003d
:1027140006f0b7000f0037001180800000808000b1
:10272400021221001cff070007f0b700ae40900022
:10273400014f78000670ef00060037000670ef00c6
:102744000000000003003700000000000100370013
:10275400000000000080fa00000006000400fa00f7
:10276400004f780011479800120798000080fa0083
:10277400000006000000fa001160800080ff2f00b6
:10278400008060001060880000fa2000206088004b
:1027940023aca800238ca80011618000f03f2f0017
:1027a4000080600000a0a0001061880030002000bc
:1027b40020618800c3aca800c38ca8001166800007
:1027c400f03f2f000080600000a0a0001066880089
:1027d400300020002066880001eca8000080fa0088
:1027e400000006000000fa00889fbe008a9fbe0019
:1027f400748d8000858d8000508d8000618d8000f7
:1028040018c0b3000001be000400be00a6f8070013
:102814000000e000010035000044eb000804e00083
:102824000f003200588d8000698d80007a8d800001
:102834008b8d80001cd0bf000080fb00cf80de00a9
:10284400d9f807000001be000a00be00f7f7070030
:102854000801be00cf000700708d8800818d8800bc
:10286400748d8000858d8000508d8000618d800086
:1028740018c0b3000001be000400be008cf80700bd
:102884000000e00001003c000044eb000804e0000c
:102894000f003200588d8000698d80007a8d800091
:1028a4008b8d80001cd0bf000080fb00cf80de0039
:1028b400bdf807000001be000a00be00daf70700f9
:1028c4000801be009b000700708d8800818d880080
:1028d400708d8000818d800018c0b3006011b80035
:1028e40073f807000000e00001003c000044eb0026
:1028f4000804e00004003200c3cca80024cea800e1
:10290400c3eca90003003700c3cca90024eea8003f
:10291400c3eca800708d8000818d80006f000700db
:102924000200200003222400f7f8070083f80700c0
:102934000000780030668800348d8000458d80006a
:10294400108d8000218d800018c0b3000001be00ee
:102954000400be0054f807000000e0000100350048
:102964000044eb000804e0000f003200188d8000e2
:10297400298d80003a8d80004b8d80001cd0bf00d3
:102984000080fb00cf80de0087f807000001be0056
:102994000a00be00a5f707000801be007d0007007d
:1029a400308d8800418d8800348d8000458d8000f5
:1029b400108d8000218d800018c0b3000001be007e
:1029c4000400be003af807000000e00001003c00eb
:1029d4000044eb000804e0000f003200188d800072
:1029e400298d80003a8d80004b8d80001cd0bf0063
:1029f4000080fb00cf80de006bf807000001be0002
:102a04000a00be0088f707000801be00490007005d
:102a1400308d8800418d8800308d8000418d80008c
:102a240018c0b3006011b80021f807000000e000ee
:102a340001003c000044eb000804e0000400320004
:102a440023cca90015eea80023eca800030037004e
:102a540023eca90015cea80023cca800308d80005b
:102a6400418d80001d000700020020000322240085
:102a7400a5f8070031f807000000780030618800ed
:102a84004f05be004f04be000080fa00000006009f
:102a94000600fa00008fbe00424798004e409000a6
:102aa4000004e00004003a001e0178009e0190003a
:102ab400528d8800638d88004e409000e14f500095
:102ac40004003a001e0178009e019000128d8800d7
:102ad400238d88000080fa00000006000400fa003c
:102ae400881f7800008fbe0018c0b3006011b800c2
:102af4001e0078009e009000edf707000000e00043
:102b040001003d000044eb000804e0000300320033
:102b14001e0078009e009000030037001e0078001d
:102b24009e00900001f0a2004f0478000080fa009b
:102b3400000006000800fa00881f7800008fbe001d
:102b4400220798003307980018c0b3002e019000a4
:102b5400be0190001e0078009e009000d4f707008c
:102b64000000e00001003c000044eb000804e00029
:102b7400030032001e0078009e009000020037001f
:102b84002e009000be0090004f0478000080fa00f0
:102b9400000006000800fa00881f7800008fbe00bd
:102ba400220798003307980018c0b3002e01900044
:102bb400be0190001e0078009e009000baf7070046
:102bc4000000e000010035000044eb000804e000d0
:102bd400030032001e0078009e00900002003700bf
:102be4002e009000be0090004f0478000080fa0090
:102bf400000006000c00fa00881f7800008fbe0059
:102c04002207980033079800440798005507980056
:102c140018c0b3004e019000de0190001e00780041
:102c24009e009000a2f707000000e00001003c00b5
:102c34000044eb000804e000040032004e01900060
:102c4400de019000028fbe000e00370018c0b300f2
:102c54002e019000be0190001e0078009e0090009e
:102c640091f707000000e000010035000044eb008c
:102c74000804e000030032002e019000be01900021
:102c8400028fbe001e0078009e0090004f04780062
:102c94000080fa00000006000400fa00008fbe0065
:102ca400b2fd2000930424001e0078009e009000d2
:102cb4003bf70700020020004333240012f807000a
:102cc4000080fa00000006000400fa00008fbe0035
:102cd400b2fd2000930424001e0078009e009000a2
:102ce40009f8070002002000433324002cf70700f2
:102cf4000080fa00000006000600fa0010079800a1
:102d0400210798000040eb00004f780055000700b1
:102d1400ae009000810f5000110034000040eb0021
:102d2400004f7800060037001e80fb009e009000d4
:102d340000804000104078000b0007001e4fe800a0
:102d44009e80fb002e009000808f5000f6ff35001f
:102d54002e0007000004e00001003a0022000700f2
:102d64000080fa00000006000200fa00004f78001c
:102d74007080800001022100008040001e4878001d
:102d8400708080000000e8007080880071808000fe
:102d9400f0072000808f5000010034000e30ef0057
:102da4000080fa00000006000200fa008080800023
:102db4000102210000804000104f780080808000d4
:102dc4000000e8008080880081808000f0072000f7
:102dd400808f5000010034001030ef001e40780056
:102de4000080fa00000006000200fa0010c0b300e0
:102df40012f0b700ecff0700004f78001e80fb00c4
:102e0400201188000080fa00000006000000fa008b
:102e140012d0bf000080fa00000006000200fa0091
:102e24007180800080808000808f50000500350014
:102e34007180800080808000008f50001e00780028
:102e44000600370070808000010820008080500058
:102e540080808000008f40001e0078000080fa000f
:102e6400000006000200fa00ecff07000108200041
:102e7400008f50001e0078000080fa000000060059
:102e84000000fa0021e3a9002143a80001198000f1
:102e9400f0cf2f0000806000001988002043a900b3
:102ea40001198000000e2000010070000019880044
:102eb40011198000f0ff21000080600010198800c3
:102ec4002343a80011198000f0cf2f000080600078
:102ed400101988001119800030f82f00008060005c
:102ee4000040a000101988002203a9002223a90091
:102ef40025e3a900f0c0b30024e3b7002119800042
:102f0400f00f2e008080600000f0200001007000af
:102f1400201988003303a9001e2ea8002e0ea80035
:102f24002f6ea8004feea8006f2ea8003063a800f3
:102f340030c3a8003163a80031e3a8002e03a80021
:102f44004119800000fc2f000080600040198800b7
:102f540028e3a90001a8a90021a8a80021e3a8004a
:102f64000080fa00000006000000fa002023a800f8
:102f74000080fa00000006000000fa00601c210036
:102f84000080fa00000006000000fa001fd0bf0015
:102f94000080fa00000006000000fa001f70ef0035
:102fa4000080fa00000006000200fa00004f7800da
:102fb4003c0007000000e0000c003400c0808000ea
:102fc400010a2100008040001e487800c080800073
:102fd4000000e800c0808800c1808000f007200065
:102fe400808f5000010034001830ef000080fa0098
:102ff400000006000200fa00d0808000010a2100cf
:1030040000804000104f7800d08080000000e8006d
:10301400d0808800d1808000f0072000808f50008d
:10302400010034001a30ef001e4078000080fa00de
:10303400000006000000fa00c1808000d0808000fb
:10304400808f50000200320010c0b300010037002e
:103054000040eb000080fa00000006000200fa00c5
:10306400c1808000d0808000808f50000500350032
:10307400c1808000d0808000008f50001e00780046
:1030840006003700c08080000108200080805000c6
:10309400d0808000008f40001e0078000080fa007d
:1030a400000006000200fa00ecff070001082000ff
:1030b400008f50001e0078000080fa000000060017
:1030c4000000fa002002a9000111800090ff2f00e7
:1030d400008060000011880020a2a9002062a800de
:1030e400500520004011880023a2a90023e2a90072
:1030f4000188a9002188a80011118000f0f32f0095
:1031040000806000101188000168a9002168a800ef
:1031140021e2a8002342a8000080fa000000060073
:103124000600fa0010079800210798000040eb0001
:10313400004f78000040eb00004f78000e0037008d
:1031440000000000111180000020200000806000b9
:103154000000e000fbff3a001e00900010407800e1
:103164000080fb00201188001e0090000000e80091
:10317400100798001e4fe8009e80fb002e00900070
:10318400808f5000eeff35000080fa00000006003a
:103194000000fa00f0032000303a8800213a800051
:1031a400f0f32f0000806000203a8800213a80006c
:1031b40000fe2f00008060000000a000203a88007c
:1031c4001200200080072000a10920003374200091
:1031d400804978008149780082497800103a80005b
:1031e400000178000200a0006004200071052000a6
:1031f400237420008049780081497800824978004e
:1032040000000000113a8000000027008080600068
:1032140000002100808f5000faff3a0000000000f7
:10322400113a800000022000008060000000e000ed
:0c323400fbff32000080fa0000000600e2
:020000040000fa
:1032400014100000040000008000000008100000be
:103250000600000080000000a01100002600000011
:10326000800000001c10000002000000820000002e
:1032700005000000c61100000a00000080000000e8
:103280001e1000000200000080000000201000005e
:1032900080000000800000000e100000060000000a
:1032a00080000000a01000008000000080000000ee
:1032b0001810000004000000800000002011000031
:1032c00080000000800000000010000008000000e6
:0832d000800000000000000076
:020000040000fa
:1032d8000000fa002136800000f82f00008060000e
:1032e8008001b300203688001134800000fc2f00d4
:1032f800008060000000a000103488000e2eef004f
:103308001e2eef002e2eef003e2eef004e2eef0069
:103318005e2eef006e2eef00214ea90060cea900b0
:1033280060eea90011cea90011eea90020cea900d7
:0c33380020eea9000080fa000000060052
:020000040000fa
:10334400f03fb1000180b10006003500ee03090032
:1033540000000000403fb1000180b100fbff3d00d0
:103364001000b000203fb0000200350000800900ca
:0833740000000000000006004b
:020000040000fa
:02000004000af0
:04afe000cfff00009f
:020000040000fa
:02000004000af0
:04afe400ffff00006b
:020000040000fa
:02000004000af0
:04afe8007fff0000e7
:020000040000fa
:02000004000af0
:04afec005fff000003
:020000040000fa
:02000004000af0
:04aff00038ff000026
:020000040000fa
:02000004000af0
:04aff400ffff00005b
:00000001FF
