:020000040000fa
:080000000002040000000000f2
:020000040000fa
:040008003e040000b2
:020000040000fa
:04000c003e040000ae
:020000040000fa
:040010003e040000aa
:020000040000fa
:040014003e040000a6
:020000040000fa
:040018003e040000a2
:020000040000fa
:04001c003e0400009e
:020000040000fa
:040020003e0400009a
:020000040000fa
:040024003e04000096
:020000040000fa
:040028003e04000092
:020000040000fa
:04002c003e0400008e
:020000040000fa
:040030003e0400008a
:020000040000fa
:0400340014030000b1
:020000040000fa
:040038003e04000082
:020000040000fa
:04003c003e0400007e
:020000040000fa
:040040003e0400007a
:020000040000fa
:040044003e04000076
:020000040000fa
:04004800fa020000b8
:020000040000fa
:04004c003e0400006e
:020000040000fa
:040050003e0400006a
:020000040000fa
:04005400fa030000ab
:020000040000fa
:04005800d0030000d1
:020000040000fa
:04005c00ac030000f1
:020000040000fa
:040060003e0400005a
:020000040000fa
:040064003e04000056
:020000040000fa
:040068003e04000052
:020000040000fa
:04006c003e0400004e
:020000040000fa
:040070003e0400004a
:020000040000fa
:040074003e04000046
:020000040000fa
:040078003e04000042
:020000040000fa
:04007c003e0400003e
:020000040000fa
:040080003e0400003a
:020000040000fa
:040084003e04000036
:020000040000fa
:040088003e04000032
:020000040000fa
:04008c003e0400002e
:020000040000fa
:040090003e0400002a
:020000040000fa
:0400940082030000e3
:020000040000fa
:040098003e04000022
:020000040000fa
:04009c003e0400001e
:020000040000fa
:0400a0003e0400001a
:020000040000fa
:0400a4003e04000016
:020000040000fa
:0400a8003e04000012
:020000040000fa
:0400ac003e0400000e
:020000040000fa
:0400b0003e0400000a
:020000040000fa
:0400b4003e04000006
:020000040000fa
:0400b8003e04000002
:020000040000fa
:0400bc003e040000fe
:020000040000fa
:0400c0003e040000fa
:020000040000fa
:0400c4003e040000f6
:020000040000fa
:0400c8003e040000f2
:020000040000fa
:0400cc003e040000ee
:020000040000fa
:0400d0003e040000ea
:020000040000fa
:0400d4003e040000e6
:020000040000fa
:0400d8003e040000e2
:020000040000fa
:0400dc003e040000de
:020000040000fa
:0400e0003e040000da
:020000040000fa
:0400e4003e040000d6
:020000040000fa
:0400e8003e040000d2
:020000040000fa
:0400ec003e040000ce
:020000040000fa
:0400f0003e040000ca
:020000040000fa
:0400f4003e040000c6
:020000040000fa
:0400f8003e040000c2
:020000040000fa
:0400fc003e040000be
:020000040000fa
:040100003e040000b9
:020000040000fa
:040104003e040000b5
:020000040000fa
:040108003e040000b1
:020000040000fa
:04010c003e040000ad
:020000040000fa
:040110003e040000a9
:020000040000fa
:040114003e040000a5
:020000040000fa
:040118003e040000a1
:020000040000fa
:04011c003e0400009d
:020000040000fa
:040120003e04000099
:020000040000fa
:040124003e04000095
:020000040000fa
:040128003e04000091
:020000040000fa
:04012c003e0400008d
:020000040000fa
:040130003e04000089
:020000040000fa
:040134003e04000085
:020000040000fa
:040138003e04000081
:020000040000fa
:04013c003e0400007d
:020000040000fa
:040140003e04000079
:020000040000fa
:040144003e04000075
:020000040000fa
:040148003e04000071
:020000040000fa
:04014c003e0400006d
:020000040000fa
:040150003e04000069
:020000040000fa
:040154003e04000065
:020000040000fa
:040158003e04000061
:020000040000fa
:04015c003e0400005d
:020000040000fa
:040160003e04000059
:020000040000fa
:040164003e04000055
:020000040000fa
:040168003e04000051
:020000040000fa
:04016c003e0400004d
:020000040000fa
:040170003e04000049
:020000040000fa
:040174003e04000045
:020000040000fa
:040178003e04000041
:020000040000fa
:04017c003e0400003d
:020000040000fa
:040180003e04000039
:020000040000fa
:040184003e04000035
:020000040000fa
:040188003e04000031
:020000040000fa
:04018c003e0400002d
:020000040000fa
:040190003e04000029
:020000040000fa
:040194003e04000025
:020000040000fa
:040198003e04000021
:020000040000fa
:04019c003e0400001d
:020000040000fa
:0401a0003e04000019
:020000040000fa
:0401a4003e04000015
:020000040000fa
:0401a8003e04000011
:020000040000fa
:0401ac003e0400000d
:020000040000fa
:0401b0003e04000009
:020000040000fa
:0401b4003e04000005
:020000040000fa
:0401b8003e04000001
:020000040000fa
:0401bc003e040000fd
:020000040000fa
:0401c0003e040000f9
:020000040000fa
:0401c4003e040000f5
:020000040000fa
:0401c8003e040000f1
:020000040000fa
:0401cc003e040000ed
:020000040000fa
:0401d0003e040000e9
:020000040000fa
:0401d4003e040000e5
:020000040000fa
:0401d8003e040000e1
:020000040000fa
:0401dc003e040000dd
:020000040000fa
:0401e0003e040000d9
:020000040000fa
:0401e4003e040000d5
:020000040000fa
:0401e8003e040000d1
:020000040000fa
:0401ec003e040000cd
:020000040000fa
:0401f0003e040000c9
:020000040000fa
:0401f4003e040000c5
:020000040000fa
:0401f8003e040000c1
:020000040000fa
:0401fc003e040000bd
:020000040000fa
:040200003e040000b8
:020000040000fa
:040204003e040000b4
:020000040000fa
:040208003e040000b0
:020000040000fa
:04020c003e040000ac
:020000040000fa
:040210003e040000a8
:020000040000fa
:040214003e040000a4
:020000040000fa
:040218003e040000a0
:020000040000fa
:04021c003e0400009c
:020000040000fa
:040220003e04000098
:020000040000fa
:040224003e04000094
:020000040000fa
:040228003e04000090
:020000040000fa
:04022c003e0400008c
:020000040000fa
:040230003e04000088
:020000040000fa
:040234003e04000084
:020000040000fa
:040238003e04000080
:020000040000fa
:04023c003e0400007c
:020000040000fa
:040240003e04000078
:020000040000fa
:040244003e04000074
:020000040000fa
:040248003e04000070
:020000040000fa
:04024c003e0400006c
:020000040000fa
:040250003e04000068
:020000040000fa
:040254003e04000064
:020000040000fa
:040258003e04000060
:020000040000fa
:04025c003e0400005c
:020000040000fa
:040260003e04000058
:020000040000fa
:040264003e04000054
:020000040000fa
:040268003e04000050
:020000040000fa
:04026c003e0400004c
:020000040000fa
:040270003e04000048
:020000040000fa
:040274003e04000044
:020000040000fa
:040278003e04000040
:020000040000fa
:04027c003e0400003c
:020000040000fa
:040280003e04000038
:020000040000fa
:100400002f3321000eff2c000e0188000000000099
:10041000000020000000e000020032000001200087
:100420002002880014000700160107000000e00009
:1004300003003a00203c22000100200002003700a7
:100440000000200001002000810f70000100320038
:100450000f000700000020000000e0000200320052
:1004600000000200000000004c0902000000000033
:100470000040da000000fe00200020000000e00044
:1004800002003200100020009001880000000600e9
:10049000a1028800800478000000eb001f003700f4
:1004a000e284440054a0b4009905ba00e2844400f8
:1004b00054a0b4009906ba00e284440054a0b400e9
:1004c0000006eb00476fde00fd07b200ae018800ba
:1004d000636ce10003003a000ad801000000eb0061
:1004e0000e003700606ce10008003a00004deb00a0
:1004f0000a05e800020039003420ec000af0a000f0
:100500008b05e900f9ff3e00040037006168e10057
:10051000010032000086eb000b00070019c7ba008b
:100520000e04e0001905ba0003003a000a00e000da
:10053000dbff3a0000000600fe07b200ae028800b2
:100540008a047800f5ff37000cd0a300e20f4d00bd
:100550001c00390089027800354dba000a05e80010
:10056000020039003420ec000af0a0008b05e900fd
:100570000f003200254dba000a05e80002003900dc
:100580003420ec000af0a0008b05e90008003200de
:100590000c00e0000600320015cdba000a05e800a4
:1005a000020039003420ec000af0a0008b05e900bd
:1005b0008984e80054a0b4000b00e000e2ff3a0098
:1005c000000006009902ba00055d78008b05e9007d
:1005d000f7ff3200c82ade00055d78008b05e900d0
:1005e000f3ff32000c00e000f1ff320019ddba0029
:1005f000eeff3700801f78000000fa000108a90014
:100600003cd0bf000004e00003003a0010c0b3007b
:100610003cf0b700010037003c70ef000080fa00aa
:100620004f007800004006003600f800809fbe00b2
:10063000829fbe00849fbe00869fbe000200fa001b
:100640000068a90010828000000f7800a10020003f
:100650001e00780081017800110009000300d80015
:1006600001f0a7008100ea008100e900cf08de0068
:10067000814078001e0178000200e80010828800a6
:100680000104e00001003200760f0700880a07002d
:10069000d40c0700790b0700430b0700138280007e
:1006a000030f7800910120001e007800810178007e
:1006b000110009000300d80001f0a7008100ea0042
:1006c0008100e900cf08de00814078001e0178003b
:1006d0000200e800108288000104e00002003200fd
:1006e000900d07007f0907000080fa004f03be004d
:1006f0004f02be004f01be004f00be003600f900a1
:10070000004006003600f800809fbe00829fbe00b9
:10071000849fbe00869fbe000000fa000368a90007
:10072000f08180000182800061004000e08048008c
:10073000f081880001828800f50307000080fa003c
:100740004f03be004f02be004f01be004f00be006f
:100750003600f90000400600801f78000000fa0013
:1007600001a8a90000188000409988001018800096
:100770005099880020188000609988003018800007
:1007800070998800401880008099880010c0b300dc
:1007900057f0b7000080fa004f00780000400600d4
:1007a0003600f800809fbe00829fbe00849fbe007e
:1007b000869fbe000000fa000188a90031828000f7
:1007c00020828000808f500002003200c50e07009a
:1007d000010037004870ef000080fa004f03be00b0
:1007e0004f02be004f01be004f00be003600f900b0
:1007f000004006003600f800809fbe00829fbe00c9
:10080000849fbe00869fbe000000fa000168a90018
:1008100010118000640060000000e0000100320060
:100820002242a90010118000620060000000e00078
:10083000060032002222a900050037003011800096
:1008400000407800170f070001003700000000008b
:1008500010118000610060000000e000f7ff3a0026
:100860000080fa004f03be004f02be004f01be00e1
:100870004f00be003600f900004006000040da00dc
:100880000000fe000000050003f0a200889fbe00eb
:100890008a9fbe008c1f78006e010700750133002f
:1008a0006450e1004f0032006420e1005200320049
:1008b00003826c0007003b000905d0000306d0004e
:1008c000820f54000c065d00020039000200320065
:1008d00089017800030678008582550004003d00f8
:1008e0000003fd008103fd008502ea008b854200c4
:1008f000840f720002003b0060001000e0801800ce
:100900006011b8000005eb007a28e1000a00390008
:1009100006007800c75ddd00f707b200878075002c
:100920002d003700828171000a01780061056000a6
:100930008180d1000080d3008502e900f9ff3b00ef
:10094000060440008784480002003b006004140055
:10095000e0841c000988a300070032008a8171002e
:1009600082817100610164008904d1000884d30090
:100970008b05e800170037000978a30013003a0040
:100980000b00e000130034008b05e900080444006c
:1009900089844c000a4474000978a3000d003a00d1
:1009a0000b00e000070034008b05e9000804440058
:1009b00089844c0001003a000b0020000978a30054
:1009c000f7ff32000001eb00020037008281710066
:1009d0000a017800e40007000cf0a70001f0a00075
:1009e0002d0137006420e10002003a00838f6c0083
:1009f0002d0133000801be000200be0026013700b1
:100a00000081eb005f013700889fbe008a9fbe0017
:100a10008c1f78000f0107001601330003866c005d
:100a20006450e1002e0032006420e1003300320007
:100a30006150e1002f0032006120e10031003200fe
:100a400085855500eb07b000090020000804200050
:100a5000050037000804440089844c000a00310076
:100a60000603430087834b000001530081815b0034
:100a7000f8ff33000203be000800a0000804440091
:100a800089844c00f6ff3900c639dd00830173000c
:100a900001003200130020008904d1000884d30033
:100aa0000998a300050032000800a7000300a00079
:100ab0008904d1000884d3008b05e8008904d100a3
:100ac0000884d3000001eb000281d200a6000700d9
:100ad00001f0a1000cf0a70001f0a000ee0037002b
:100ae0006420e100f00032000801be000200be00f8
:100af000f7ff37006120e100eb0032006000b80032
:100b0000f3ff37000000200001f82700f0ff370056
:100b10001400200086013700f4ff2f008401370005
:100b20000001be00b60007000470a70003f0a1009a
:100b30006509b100160032000d0035006828e1009b
:100b400006003500f0ff2f00f1ff27000300e00052
:100b500013003b00010028000000050000004000d9
:100b6000818048008502e900fcff3a000800370058
:100b7000f88f420002003c008000eb0000000500fe
:100b80008100d1000080d3008502e800fcff3a001c
:100b90000300e00002003b0060001000e08018004d
:100ba000000006000001be00950007000470a700c9
:100bb00003f0a10003f8a30013003a006509b10097
:100bc00010003200090035006928e10002003500fc
:100bd000010028000000050000004000818048005e
:100be0008502e900fcff3a0000000600f88f420091
:100bf000050035008100d1000080d3008502e800a7
:100c0000fcff3a00000006008000eb000000050039
:100c10004f89de0082017800600137006011b80062
:100c20006e0137000400200000003700889fbe00de
:100c30008a9fbe008c1f78004f26dd0085000700cc
:100c40008c0033006120e100430032006250e1007b
:100c500041003e003e0039006420e1003c003200cb
:100c6000058255000f003b000402e80038003a00fe
:100c7000800f5300818f5b00350034000800be00f8
:100c800003f0a10001f0a60003f0a0000cf0a70003
:100c9000fefe0700800037000603430087834b00f9
:100ca0000c4646000005530081855b0002003300be
:100cb0000a03be000c00a0000402e900f6ff3b009e
:100cc000850578000602430087824b0004003a0045
:100cd0006000b80009f0a70001f0a0006e00370026
:100ce0000002520081825a000704e0000400330031
:100cf0000603430087834b008b05e900faff3700aa
:100d0000090578000604be000203be006011b800a9
:100d100015000700e00f5200e08f5a000700350071
:100d200002003c000c08a300040032000601be00d3
:100d300003f0a0000cf0a700d4fe07000a856800ad
:100d400001f0a1000af0a70001f0a0005200370056
:100d50000800be0050003700100220000cf0a60072
:100d6000c08288005000370081002000618055005b
:100d70000b003d000b00200061fe2f000100e10090
:100d80001d00340082817100610164008904d1007a
:100d90000884d3000000e800faff3a007100200048
:100da000610064000300700002006000090032006e
:100db00061044400e0844c000988a500050032006d
:100dc0008b05e8006808e10002003a008904d100c0
:100dd0000884d300f20f20000258e10005003d0016
:100de000c75ddd00f907b200898075000800780052
:100df000000006000bf827008b00780000000500bb
:100e0000c70ade00f107b200f50fb2000800320099
:100e1000e1cf4200020032000170a0002400050072
:100e2000810f700001003200040805004400050035
:100e3000810f700002003a00140005008502e900ed
:100e40000000400081c04800fcff3b000170a00092
:100e5000240005000004be00e9ff07000003be00f7
:100e60000405be000200be00e5ff0700844f7500c8
:100e7000000006000200be006450e10005003600dc
:100e80006420e100020036000968a30001003a0076
:100e90000800be000160a0004f0678004f05be00ac
:100ea0004f04be0000000600f0ff2f00f1ff2700f6
:100eb000f9ff3700889fbe008a9fbe008c1f780014
:100ec000e4ff0700ebff330003866c006450e10091
:100ed000240032006420e100270032006150e1006c
:100ee000220032006120e100210032008b854200a7
:100ef000eb07b1000134b800003ab8000804420022
:100f000089844a00013ab8000030b8008880400067
:100f100009014a00040033000000400081804800bd
:100f2000020149008b05e900c909dd008301700059
:100f30000100320013002000c814de004814dd0058
:100f40004709de001200b200c808de000884700005
:100f500085ff070001f0a1000cf0a70001f0a00040
:100f6000cdff37006120e100cfff32000801be0055
:100f70000200be00f7ff37006150e100fcff3a00bd
:100f8000c9ff3700889fbe008a9fbe008c9fbe00ad
:100f9000820578000004be0099ff07000800be002b
:100fa0006420e1000700390002003a00f1ff270049
:100fb000f0ff2f000160a00012022000c282880012
:100fc000550037006120e10003003a000b00a70044
:100fd00001f823005000370001f0a10002002100b9
:100fe00093642400cafe07000800be000400350018
:100ff000b2fd2000930c24000aff07000004be008d
:101000000005eb000b00a6004f0dde0001f0a10073
:101010000004be0032982f0023ea2300a5ff07003a
:101020000001eb0003f023000b00a70003f82300ee
:1010300016fe0700bafe07000000a7000a00a20083
:10104000f3fe07000b00e000030032000200200066
:1010500003f023000cfe070001f0a2000006be0012
:10106000020020009304240092ff07000801be0044
:1010700006fe0700809fbe000c00be0022a22a00d0
:10108000d3a723008bff07004f01be00fffd070021
:101090000004be0001f0a10002002000039823001c
:1010a0009bfe07000800be00190035000001be00cd
:1010b00080ff07000006be00b2c52900e3622300de
:1010c0007cff070022222b00f3942b00effd07008a
:1010d0000c01be0077ff0700e273280083c02300e5
:1010e000eafd07000c01be0072ff070042aa2a00b9
:1010f000a3e22b00e5fd07000c01be006dff070019
:101100000801be006bff07000801be00dffd0700fd
:101110000a00a70001f0a2004f06be004f05be0066
:101120004f04be00000006000001eb0095ff3700f1
:10113000889fbe008a9fbe00841f780045ff07007d
:101140004f00780011003300f0ff2f00838f6c00f8
:1011500006003b00040565000a00a70008003700f0
:1011600009f0a6001000200008003700820f54008c
:10117000838f5c00030039001000200001003e0056
:101180000000200009f0a7000000ea004f05be00a3
:101190004f04be000000e00000000600881f780039
:1011a000030478000300e00007003d006000100029
:1011b000e080180060011900e081190002003b0086
:1011c00001f02d00030037000400070008f0a7001d
:1011d00001f0a0004f04780000000600889fbe00c8
:1011e0008a9fbe00008270000402710004827100b8
:1011f000260032000004be000200be006011b800ec
:101200006b092000950220000182cf000a003900fe
:101210000541b1000082cf00070039000541b1004f
:101220000982cf00040039000541b1000882cf00d7
:10123000010039000541b1000542520012003200a0
:101240000a003b0082817100610164008100d100cd
:101250000080d3008984d3000884d3008b05e80084
:101260000442e800f7ff3a00070037000804440092
:1012700089844c0000004800818048008b05e9000b
:101280000442e900f9ff3a00b7fe07004f05be002f
:081290004f04be00000006003f
:020000040000fa
:101298001200fa00889fbe006b0d0700040d0700be
:1012a800be080700a40807003b09070062070700fb
:1012b800300c0700bf0c0700b6090700be0907007d
:1012c800860607006d0c0700e14f5000ed003a005c
:1012d8006e0c0700650c0700100798001e009000b0
:1012e800100078008000eb004afe0700323323002c
:1012f80033052400edfe07000200200003582400f7
:10130800bffd0700d2cc2c00c3042400e7fe070071
:1013180020079800310798002e019000be01900028
:101328000000200081202400b5fd070002002000f5
:10133800030a240052fd0700608388007183880037
:101348001e0090000080e800100078008000eb008c
:1013580030fe07003233230033052400d3fe070094
:101368000200200003582400a5fd0700d2cc2c0061
:10137800c3042400cdfe0700200798003107980019
:101388002e019000be019000000020008120240062
:101398009bfd070002002000030a240038fd070017
:1013a80080838800918388001e00900064004000bc
:1013b800100078008000eb0016fe0700323323008f
:1013c80033052400b9fe070002002000035824005a
:1013d8008bfd0700d2cc2c00c3042400b3fe070009
:1013e80020079800310798002e019000be01900058
:1013f800000020008120240081fd07000200200059
:10140800030a24001efd0700a0838800b18388001a
:101418001e00900068004000100078008000eb007b
:10142800fcfd070032332300330524009ffe07002c
:10143800020020000358240071fd0700d2cc2c00c4
:10144800c304240099fe070020079800310798007c
:101458002e019000be019000000020008120240091
:1014680067fd070002002000030a240004fd0700ae
:10147800c0838800d18388001e0090006600400069
:10148800100078008000eb00e2fd070032332300f3
:101498003305240085fe07000200200003582400bd
:1014a80057fd0700d2cc2c00c30424007ffe0700a0
:1014b80020079800310798002e019000be01900087
:1014c80000002000812024004dfd070002002000bc
:1014d800030a2400eafc0700e0838800f1838800ff
:1014e80000c3b300004f9800300020005007980058
:1014f800c0838000d1838000a8fd07008044780065
:10150800a0838000b1838000a4fd07000044780018
:101518008083800091838000a0fd07000040780050
:10152800594f9800684f9800704f98000e489000e7
:101538000080fb00ed00470001017800de0090000c
:101548007f03070000c4b300004f9800200020006c
:1015580050079800e0828000f18280008ffd07002c
:101568000040780000579800208380003183800075
:101578008afd070000407800105798000e48900038
:101588000080fb00f000470001017800de009000b9
:101598006b030700808380009183800018c0b3002c
:1015a80002002000031a240059fd07000000e00093
:1015b80001003c000044eb000804e0000200320097
:1015c800254ea80001003700254ea90010c0b30021
:1015d800504f9800207180004a00de006140600092
:1015e800604f9800a0838000b183800018c0b300ca
:1015f800020020000317240045fd07000000e0005a
:1016080001003c000044eb000804e0000200320046
:1016180064eea8000100370064eea90020c0b30002
:10162800504f9800207380004700de006140600042
:10163800604f9800c0838000d183800018c0b30039
:1016480002002000031a240031fd07000000e0001a
:1016580001003c000044eb000804e00002003200f6
:1016680064cea8000100370064cea90030c0b300e2
:10167800504f9800207380004600de0061406000f3
:10168800604f98000000eb00000f7800050037005d
:10169800950b0700404f98004e48900087030700bd
:1016a8001e0fe800aa0b07009e0f5000f8ff3c0031
:1016b80004ff37000200fa00004f78001e4178004e
:1016c800c1042100824878000080fa00000006006a
:1016d8000200fa00004f78001e80fb00908288000c
:1016e80090828000e10f500003003a0020c0b30050
:1016f8004cf0b7000200370040c1b3004cf0b7000f
:101708000080fa00000006000000fa004cd0bf007c
:101718000080fb00cf80de00d20120000300200003
:10172800820f5000838f5800bf003e000006010062
:101738001d003700260037002f003700390037001a
:101748003a00370043003700440037004d003700a7
:101758004e00370057003700580037006100370047
:10176800620037006b0037006c00370075003700e7
:101778007600370080003700810037008b00370083
:10178800a9003700a8003700a7003700a6003700d7
:101798008800370092003700a3003700a200370006
:1017a800910037009e0037003e30ef004030ef00d8
:1017b8000041eb006000b800e606070012c0b30065
:1017c8006000b800e306070010c0b3004cf0b70093
:1017d800f281800003828000803e2000010020000a
:1017e800800f5100818f59009200360020c0b3004d
:1017f8004cf0b700900037000041eb0000002000db
:1018080001192400d306070012c0b300000020000d
:1018180001192400cf06070030c0b3004cf0b70010
:101828008500370086000700830037000041eb0081
:101838000000200001182400c606070012c0b300eb
:101848006000b800c306070050c0b3004cf0b700f2
:10185800790037007a000700770037000041eb0075
:101868006000b800bb06070012c0b30000002000eb
:1018780001182400b706070070c0b3004cf0b70089
:101888006d0037006e0007006b0037000041eb0069
:1018980000002000811a2400ae06070012c0b30021
:1018a8006000b800ab06070090c0b3004cf0b7006a
:1018b80061003700620007005f0037000041eb005d
:1018c8006000b800a306070012c0b30000002000a3
:1018d800811a24009f060700b0c0b3004cf0b7007f
:1018e8005500370056000700530037000041eb0051
:1018f80000002000011d24009606070012c0b30056
:101908006000b80093060700d0c0b3004cf0b700e1
:10191800490037004a000700470037000041eb0044
:101928006000b8008b06070012c0b300000020005a
:10193800011d240087060700f0c0b3004cf0b70073
:101948003d0037003e0007003b0037000041eb0038
:1019580000002000011824007e06070012c0b30012
:101968000000200001182c007a06070010c1b300ff
:101978004cf0b70030003700310007002e00370068
:101988000041eb000000200001182c007106070040
:1019980012c0b30000002000011824006d060700e3
:1019a80030c1b3004cf0b700230037002400070013
:1019b800210037000041eb00000020000110240046
:1019c8006406070012c0b3000000200001102400c4
:1019d8006006070030c0b3004cf0b70016003700af
:1019e8001700070014003700508280000000e8004c
:1019f800508288000041eb0000002000011c2400f8
:101a08005406070012c0b30000002000011c240087
:101a180050060700d0c1b3004cf0b70006003700ed
:101a280007000700040037004c70ef0000000000ba
:101a380001003700000000000080fa0000000600e6
:101a48000a00fa00881f780090828000e10f500099
:101a58000a023a000040eb00004f780080838000c3
:101a68009183800018c0b3000200200003192400ed
:101a780025fc07000000e000010035000044eb00f1
:101a88000804e00019003200a0838000b1838000c0
:101a980018c0b30002002000831b24001cfc0700b0
:101aa8000000e00001003c000044eb000804e000f6
:101ab8000e003200c0838000d183800018c0b300bc
:101ac800020020000319240011fc07000000e000b8
:101ad80001003c000044eb000804e0000300320071
:101ae80040c0b300004f7800650137008083800054
:101af8009183800018c0b30002002000031924005d
:101b080003fc07000000e00001003c000044eb007b
:101b18000804e00019003200a0838000b18380002f
:101b280018c0b30002002000831b2400f8fb070044
:101b38000000e00001003c000044eb000804e00065
:101b48000e003200c0838000d183800018c0b3002b
:101b58000200200003192400ebfb07000000e0004e
:101b6800010035000044eb000804e00003003200e7
:101b780030c0b300004f780041013700a0838000d7
:101b8800b183800018c0b30002002000031b2400aa
:101b9800ddfb07000000e000010035000044eb0019
:101ba8000804e00003003200a0c0b300004f780032
:101bb80033013700808380009183800018c0b30010
:101bc80002002000031b2400cffb07000000e000f8
:101bd800010035000044eb000804e0001900320061
:101be800a0838000b183800018c0b30002002000e9
:101bf800831d2400c6fb07000000e00001003c0034
:101c08000044eb000804e0000e003200c0838000ae
:101c1800d183800018c0b30002002000031b2400f9
:101c2800bbfb07000000e00001003c000044eb00a3
:101c38000804e0000300320020c0b300004f780021
:101c48000f013700808380009183800018c0b300a3
:101c580002002000031b2400adfb07000000e00089
:101c680001003c000044eb000804e00019003200c9
:101c7800a0838000b183800018c0b3000200200058
:101c8800831d2400a2fb07000000e00001003c00c7
:101c98000044eb000804e0000e003200c08380001e
:101ca800d183800018c0b30002002000031b240069
:101cb80095fb07000000e000010035000044eb0040
:101cc8000804e0000300320010c0b300004f7800a1
:101cd800eb003700608380007183800018c0b30078
:101ce80002002000031d240087fb07000000e0001d
:101cf800010035000044eb000804e0000e0032004b
:101d0800e0838000f183800018c0b3000200200047
:101d1800031d24007efb07000000e00001003c00da
:101d28000044eb000804e00003003200d0c0b30018
:101d3800004f7800d20037006083800071838000f4
:101d480018c0b30002002000031d240070fb070028
:101d58000000e00001003c000044eb000804e00043
:101d68000e003200e0838000f183800018c0b300c9
:101d780002002000031d240063fb07000000e000b0
:101d8800010035000044eb000804e00003003200c5
:101d9800c0c0b300004f7800b900370080838000ce
:101da8009183800018c0b30002002000831d240026
:101db80055fb07000000e000010035000044eb007f
:101dc8000804e00019003200a0838000b18380007d
:101dd80018c0b30002002000432124004cfb070078
:101de8000000e00001003c000044eb000804e000b3
:101df8000e003200c0838000d183800018c0b30079
:101e080002002000831d240041fb07000000e000c1
:101e180001003c000044eb000804e000030032002d
:101e280060c0b300004f78009500370080838000c1
:101e38009183800018c0b30002002000831d240095
:101e480033fb07000000e00001003c000044eb0009
:101e58000804e00019003200a0838000b1838000ec
:101e680018c0b300020020004321240028fb07000b
:101e78000000e00001003c000044eb000804e00022
:101e88000e003200c0838000d183800018c0b300e8
:101e980002002000831d24001bfb07000000e00057
:101ea800010035000044eb000804e00003003200a4
:101eb80050c0b300004f780071003700a083800045
:101ec800b183800018c0b300020020004320240022
:101ed8000dfb07000000e000010035000044eb00a6
:101ee8000804e0000300320070c0b300004f78001f
:101ef80063003700608380007183800018c0b300de
:101f08000200200003172400fffa07000000e00089
:101f1800010035000044eb000804e0000e00320028
:101f2800e0838000f183800018c0b3000200200025
:101f3800031f2400f6fa07000000e00001003c003f
:101f48000044eb000804e00003003200f0c0b300d6
:101f5800004f78004a00370060838000718380005a
:101f680018c0b30002002000031f2400e8fa07008d
:101f78000000e00001003c000044eb000804e00021
:101f88000e003200e0838000f183800018c0b300a7
:101f98000200200003172400dbfa07000000e0001d
:101fa800010035000044eb000804e00003003200a3
:101fb800e0c0b300004f780031003700a0838000f4
:101fc800b183800018c0b30002002000032324005e
:101fd800cdfa07000000e000010035000044eb00e6
:101fe8000804e00003003200b0c0b300004f7800de
:101ff80023003700808380009183800018c0b300dd
:102008000200200003222400c1fa07000000e000bb
:1020180001003c000044eb000804e0001800320016
:10202800a0838000b183800018c0b30002002000a4
:1020380003272400b6fa07000000e00001003c0076
:102048000044eb000804e0000d003200c08380006b
:10205800d183800018c0b3000200200003222400ae
:10206800abfa07000000e00001003c000044eb0070
:102078000804e000020032000040eb00004f780046
:102088001e4078000004e00003003a00c0c1b3001d
:102098004df0b7004e0037001e407800e44f500066
:1020a80003003a00c0c0b3004df0b7004800370045
:1020b8001e407800e34f500003003a00e0c0b30030
:1020c8004df0b700420037001e407800e24f500044
:1020d80003003a0080c0b3004df0b7003c00370061
:1020e8001e407800e14f500003003a00a0c0b30042
:1020f8004df0b700360037001e407800e64f50001c
:1021080003003a0040c0b3004df0b700300037007c
:102118001e407800e54f500003003a0060c0b3004d
:102128004df0b7002a0037001e407800ea4f5000f3
:10213800060032001e407800ef4f500003003200c6
:102148001e407800ee4f50000a003a00508280008e
:10215800610060000000e00003003a0020c1b30005
:102168004df0b7001a00370000c1b3004df0b700ba
:10217800170037001e407800e74f500003003a0070
:1021880080c1b3004df0b700110037001e40780041
:10219800eb4f500003003a0020c0b3004df0b700e9
:1021a8000b0037001e407800ed4f500003003a0046
:1021b80040c0b3004df0b700050037001e4078005e
:1021c800ec4f500002003a0060c0b3004df0b70079
:1021d8004dd0bf008080fb004cd0bf000080fb00ca
:1021e8000000e900808f5000240032004dd0bf006d
:1021f8004cf0b70000c5b30010479800500020000d
:10220800100798004dd0bf0040479800f08180002b
:10221800018280004808de0000407800504798009e
:10222800f0818000018280004008de0000407800d4
:1022380060479800f0818000018280004809dd0035
:102248004800de0000007100c808de000040780089
:1022580070479800f081800001828000004078007b
:10226800004f98001e4090000080fb00e4004700eb
:10227800010178009e009000310007004f047800ab
:102288000080fa00000006000a00fa002007980003
:102298003107980042079800e0cfb300004f78005c
:1022a8002e0090004880de00804078001e407800b4
:1022b80000c06800004f78002e0090008040780031
:1022c8001e40780000c06800004f78003e00900073
:1022d8004880de00804078001e40780000c068001a
:1022e800004f78003e009000804078001e40780043
:1022f80000c06800004f78000000eb00100798004d
:10230800080037001e009000ce00900000804000ba
:10231800104078001e4f68001e0090000000e80082
:10232800100798009e0090003e009000808f50009b
:10233800f4ff35001e4078000080fa000000060017
:102348001000fa00889fbe005007980061079800a7
:10235800720798000f0478000f0078008004780056
:102368007e019000ee0090005e009000c6ff07001e
:10237800404798006e009000660040008000e90029
:10238800310798000000e8000000e8000000d100d4
:10239800800040000f007800818747000000e800b7
:1023a8000000d10000004000400798000000eb004a
:1023b800000f78004e0090001e004000e1cfb300ef
:1023c800014878001e0fe8005e0090004880de009b
:1023d800804078004e0090001e00400001487800c0
:1023e8001e0fe8005e009000804078004e009000cc
:1023f8001e004000014878001e0fe8006e009000a3
:102408004880de00804078004e0090001e004000aa
:10241800014878001e0fe8006e00900080407800a8
:102428004e0090001e004000014878001e0fe80092
:102438000000eb00100798000b0037001e0090000a
:10244800fe00900000804000904078004e00900010
:102458001e004000014878001e0fe8001e00900092
:102468000000e800100798009e0090006e009000a1
:10247800808f5000f1ff35004e0090001e00400094
:10248800ce409000014878001e0fe8006e009000d2
:10249800e60040004e0090005407070000a8210005
:1024a8006100200013090700890778008807780071
:1024b8004f04be000080fa00000006000400fa0085
:1024c8002047980006d0bf000080fb00e30f5000b3
:1024d80026003200e30f500007003c00e10f5000d7
:1024e80013003200e10f500018003c000000e0002b
:1024f8000800320059003700e50f5000370032005d
:10250800e50f500020003500e60f50004100320072
:10251800520037002e409000e24f400052003a002f
:1025280010c0b30006f0b7000030ef0051003700cc
:102538002e4090000080fb004800dd0000808800ed
:1025480020c0b30006f0b7004a0037002e409000c4
:102558008080fb00008080000080400000808800b0
:1025680030c0b30006f0b700420037002e4090009c
:102578000080fb004800dd001080880040c0b300e8
:1025880006f0b7003b0037002e4090008080fb002b
:10259800108080000080400010808800108080003b
:1025a8000000e00003003a0060c0b30006f0b70086
:1025b800300037001180800000402000808f5000dc
:1025c800020034000670ef002a00370050c0b30044
:1025d80006f0b7000430ef002600370020808000a6
:1025e80001242100808040002e419000824878001c
:1025f8000000e80020808800218080001080800092
:10260800808f50001a00350060c0b30006f0b70094
:10261800180037001180800000808000022421000b
:1026280019ff070007f0b700ae409000014f78008f
:1026380007d0bf009e4f500006003a00108080006f
:10264800804078000080800000407800022421004b
:102658000a0007000670ef00060037000670ef005a
:1026680000000000030037000000000001003700f0
:10267800000000000080fa00000006000a00fa00ce
:10268800889fbe008a9fbe006047980071479800e7
:10269800420798000000eb00000f78006e409000a1
:1026a8000080fb0021052000810f5000350032001a
:1026b80021052000810f500007003c000102200086
:1026c800810f50000e00320011052000810f5000cc
:1026d80028003200a600370011072000810f5000a3
:1026e8009400320001082000810f50001a003200c7
:1026f80001072000810f5000260032009c0037009f
:102708004e009000104078000080fb0010079800f1
:102718004e0090000000e800104078000080fb00a8
:10272800200798001e009000e10f500001003a00b9
:10273800254ea8001e009000e20f500001003a004c
:1027480064eea8001e009000e30f500085003a00d8
:1027580064cea800860037007e4090000080fb0011
:102768004e0190008000780000082000f4fe070069
:102778007f0037004e00900010407800cdfb070026
:102788007b0037004e00900010407800d0fb070017
:10279800770037009e0078004e0090003c06070046
:1027a80040808800518088009e007800648f400037
:1027b8009e0078004e009000350607006080880073
:1027c800718088009e007800648f40009e00780029
:1027d8004e0090002e0607008080880091808800b7
:1027e8009e007800648f40009e0078004e009000a4
:1027f80027060700a0808800b18088009e00780026
:10280800648f40009e0078004e009000200607006c
:10281800c0808800d18088009e007800648f4000c6
:102828009e0078004e00900019060700e08088009e
:10283800f18088009e007800648f40009e00780038
:102848004e00900012060700008188001181880060
:1028580040808000518080000200200003f823009f
:10286800a9f807000000e00016003a000a8180007d
:102878001b818000e8808000f9808000c68080008d
:10288800d7808000a4808000b5808000828080008e
:102898009380800060808000718080008a9fbe00e5
:1028a800889fbe00869fbe000403be000202be00d1
:1028b8000001be00800a210031000700ec875700a4
:1028c8002b00370040808000518080006011b800e4
:1028d8008df807000000e00024003a000a8180001b
:1028e8001b818000e8808000f9808000c68080001d
:1028f800d7808000a4808000b5808000828080001e
:102908009380800060808000718080008a9fbe0074
:10291800889fbe00869fbe000403be000202be0060
:102928000001be00400e210015000700ec8757008b
:102938000f0037008000eb004e009000d405070020
:102948006086880071868800410020004e00900053
:10295800cf050700408888005188880000000000e3
:1029680003003700000000000100370000000000ed
:102978004f05be004f04be000080fa0000000600ac
:102988000e00fa00000f780012079800230798003d
:10299800340798004507980056079800670798007d
:1029a8001e0078001e019000ae0190000288be0053
:1029b8001e0078003eb99700ceb9970062009800d3
:1029c800730098001e0078003e019000ce01900030
:1029d80022009800330098001e0078001eb9970066
:1029e800aeb9970002089800130898001e007800f6
:1029f8005e019000ee01900042009800530098009c
:102a08001e0078007eb197008eb9970022089800c2
:102a1800330898000080fa00000006001200fa004f
:102a2800889fbe006007980072079800030f9800ff
:102a38006e0090007e0190008e09900002109800b0
:102a4800131098006e00900060029000f002900051
:102a58006e00900090009000100078000001be0009
:102a68000400be00e6f707000004be006e009000f8
:102a7800f0009000600090000002be0005f0a20087
:102a88006e00900090009000100078000001be00d9
:102a98000400be00daf707000802be000001be000d
:102aa8007e0090008e0890000d050700008fbe0084
:102ab8006e00900090009000100078001e017800d1
:102ac8009e019000f9f807006e0190000019980027
:102ad800111998006e009000400c9000d00c9000e6
:102ae80002002000a33724007e0090008e0890008a
:102af800c3f707000001be000800be0061f7070029
:102b08006e01900040099800510998006e009000ed
:102b1800000a9000900a90006e009000b0009000ab
:102b2800200090000001be000400be00b4f70700ba
:102b38000004be006e00900090089000000890000d
:102b48000002be0005f0a2006e009000b0009000e8
:102b5800200090000001be000400be00a8f7070096
:102b68006e019000420b9000d20b90000802be004c
:102b78000001be000600be00d90407006e019000e7
:102b880040099800510998006e009000400a900092
:102b9800d00a90006e009000b000900020009000d5
:102ba8000001be000400be00c0f807006e019000de
:102bb80020199800311998006e009000f0089000d4
:102bc800600890000001be007e0090008e08900012
:102bd8002bf7070002002000a3372400b3f80700f2
:102be80020079800310798006e009000200a900096
:102bf800b00a90006e009000d00090004000900055
:102c08000001be000400be007df707000004be00fe
:102c18006e009000b0089000200890000002be00ee
:102c280005f0a2006e009000d000900040009000d7
:102c38000001be000400be0071f707000802be00d4
:102c48000001be002e009000be009000a404070002
:102c580040079800510798006e0090007e01900090
:102c68008e09900062089800730898006e00900022
:102c7800d0009000400090004e019000de019000ce
:102c88008af807006e0190004019980051199800c1
:102c98006e009000001a9000901a90006e0090004c
:102ca800b0189000201890000001be000400be007b
:102cb800f4f607000002be006e009000d0189000e5
:102cc800401890000001be000400be00edf60700a9
:102cd8004f04be000080fa00000006000200fa005f
:102ce8000000eb00000f780060868000718680008d
:102cf8000001be009e007800002c2100ef040700b0
:102d080040888000518880001e017800640f4100cf
:102d18000001be009e007800002c2100e704070097
:102d280080868000918680001e017800640f410033
:102d38000001be009e007800002c2100df0407007f
:102d480060888000718880001e017800640f41004f
:102d58000001be009e007800002c2100d704070067
:102d680040868000518680001e017800640f410073
:102d78000001be009e007800002c2100cf0407004f
:102d880020888000318880001e017800640f41008f
:102d98000001be009e007800002c2100c704070037
:102da80060898000718980001e017800640f4100ed
:102db8000001be009e007800002c2100bf0407001f
:102dc80040898000518980001e017800640f41000d
:102dd8000001be009e007800002c2100b704070007
:102de800c0868000d18680001e017800640f4100f3
:102df8000001be009e007800002c2100af040700ef
:102e0800a0888000b18880001e017800640f41000e
:102e18000001be009e007800002c2100a7040700d6
:102e2800e0868000f18680001e017800640f410072
:102e38000001be009e007800002c21009f040700be
:102e4800c0888000d18880001e017800640f41008e
:102e58000001be009e007800002c210097040700a6
:102e680000878000118780001e017800640f4100f0
:102e78000001be009e007800002c21008f0407008e
:102e8800e0888000f18880001e017800640f41000e
:102e98000001be009e007800002c21008704070076
:102ea80040858000518580001e017800640f410034
:102eb8000001be009e007800002c21007f0407005e
:102ec80020878000318780001e017800640f410050
:102ed8000001be009e007800002c21007704070046
:102ee80060858000718580001e017800640f4100b4
:102ef8000001be009e007800002c21006f0407002e
:102f080040878000518780001e017800640f4100cf
:102f18000001be009e007800002c21006704070015
:102f280080858000918580001e017800640f410033
:102f38000001be009e007800002c21005f040700fd
:102f480060878000718780001e017800640f41004f
:102f58000001be009e007800002c210057040700e5
:102f6800a0858000b18580001e017800640f4100b3
:102f78000001be009e007800002c21004f040700cd
:102f880080878000918780001e017800640f4100cf
:102f98000001be009e007800002c210047040700b5
:102fa800c0858000d18580001e017800640f410033
:102fb8000001be009e007800002c21003f0407009d
:102fc800a0878000b18780001e017800640f41004f
:102fd8000001be009e007800002c21003704070085
:102fe800e0858000f18580001e017800640f4100b3
:102ff8000001be009e007800002c21002f0407006d
:10300800c0878000d18780001e017800640f4100ce
:103018000001be009e007800002c21002704070054
:10302800022c21008106200000072000c4fc0700b4
:103038000080fa00000006000000fa00116080001d
:1030480080ff2f00008060001060880000fa2000d8
:103058002060880023aca800238ca80011618000a0
:10306800f03f2f000080600000a0a00010618800e1
:103078003000200020618800c3aca800c38ca800e1
:1030880011668000f03f2f000080600000a0a000c3
:1030980010668800300020002066880001eca80037
:1030a8000080fa00000006000000fa00889fbe00b9
:1030b8008a9fbe004483800055838000208380005f
:1030c8003183800018c0b3000001be000400be00b8
:1030d8008df607000000e000010035000044eb0019
:1030e8000804e0000f003200288380003983800044
:1030f8004a8380005b83800054d0bf000080fb00bf
:10310800cf80de00c0f607000001be000a00be0046
:10311800dcf507000801be0059030700408388005a
:103128005183880044838000558380002083800079
:103138003183800018c0b3000001be000400be0047
:1031480073f607000000e00001003c000044eb00bb
:103158000804e0000f0032002883800039838000d3
:103168004a8380005b83800054d0bf000080fb004e
:10317800cf80de00a4f607000001be000a00be00f2
:10318800bff507000801be0025030700408388003b
:1031980051838800408380005183800018c0b300a9
:1031a8006011b8005af607000000e00001003c007a
:1031b8000044eb000804e00004003200c3cca8007f
:1031c80024cea800c3eca90003003700c3cca90093
:1031d80024eea800c3eca80040838000518380003f
:1031e800f902070002002000032224002ff707003d
:1031f8006af60700000078003066880004838000c3
:1032080015838000e0828000f182800018c0b3003e
:103218000001be000400be003bf607000000e0000d
:10322800010035000044eb000804e0000f00320004
:10323800e8828000f98280000a8380001b83800076
:1032480054d0bf000080fb00cf80de006ef6070080
:103258000001be000a00be008af507000801be0092
:103268000703070000838800118388000483800017
:1032780015838000e0828000f182800018c0b300ce
:103288000001be000400be0021f607000000e000b7
:1032980001003c000044eb000804e0000f0032008d
:1032a800e8828000f98280000a8380001b83800006
:1032b80054d0bf000080fb00cf80de0052f607002c
:1032c8000001be000a00be006df507000801be003f
:1032d800d3020700008388001183880000838000e0
:1032e8001183800018c0b3006011b80008f6070009
:1032f8000000e00001003c000044eb000804e0008e
:103308000400320023cca90015eea80023eca80085
:103318000300370023eca90015cea80023cca80091
:103328000083800011838000a702070002002000ac
:1033380003222400ddf6070018f6070000007800d5
:10334800306188004f05be004f04be000080fa00bf
:10335800000006000600fa00008fbe0042479800f1
:103368004e4090000004e00004003a001e0178007e
:103378009e01900022838800338388004e4090008d
:10338800e14f500004003a001e0178009e019000b1
:10339800e2828800f38288000080fa0000000600bc
:1033a8000000fa00889fbe00c8898000d989800083
:1033b800e0898000f1898000e27a240013e6230086
:1033c800baf6070002002000030024008cf507006d
:1033d8000001be000800be002af50700208388000f
:1033e800318388002083800031838000040020001e
:1033f800852c240002002000832c2c00b802070032
:103408002083880031838800c8898000d98980009a
:10341800e0898000f1898000e27a240013e6230025
:10342800a2f60700020020000300240074f507003c
:103438000001be000800be0011f50700e082880008
:10344800f1828800e0828000f18280000400200080
:10345800852c240002002000832c2c00a0020700e9
:10346800e0828800f18288004f04be000080fa00e4
:10347800000006000000fa0064868000758680005f
:1034880040848000518480000001be000400be001a
:10349800fbf4070040868800518688004488800035
:1034a8005588800060848000718480000001be001f
:1034b8000400be00f2f407002088880031888800e4
:1034c80040868000518680000001be00800a2100ed
:1034d80052fd070060898800718988002088800073
:1034e800318880000001be00400e21004bfd07001e
:1034f800408988005189880060898000718980002e
:1035080002002000432b240068f60700c0898800c9
:10351800d1898800408980005189800002002000fc
:10352800032a240061f60700e0898800f1898800f1
:103538000080fa00000006000000fa0013e1a9006c
:1035480011e1a9001061a8001021a90081088000dc
:10355800f0fc2f0000806000800888000a21ef003e
:103568000621ef00202620007008880000a0250012
:10357800600888002142800080ff2f0000806000e2
:103588000000a000204288000108a9002108a80026
:1035980011e1a8000080fa00000006000000fa000f
:1035a80005e1a90000002000a1372400060007005b
:1035b8000421a9000068a9002068a80005e1a80066
:1035c8000080fa00000006000400fa00881f780056
:1035d800008fbe0021088000f0fc2f0000806000f2
:1035e800200888001e0178009e01900000682900cc
:1035f80081c1240002f5070018c0b30002f02f00b3
:10360800f377240042f507000000e00001003c00c9
:103618000044eb000804e000540032002108800058
:10362800f0fc2f00008060000040a0002008880007
:103638001e0178009e0190000068290081c12400c5
:10364800eff407000200200003102400ecf4070048
:1036580018c0b30002f02f00f37724002cf5070000
:103668000000e00001003c000044eb000804e0001a
:103678003200320021088000f0fc2f00008060003a
:103688000050a000200888001e0178009e019000cc
:103698000068290081c12400d9f407000200200035
:1036a80003282400d6f4070018c0b30002f02f0046
:1036b800f377240016f507000000e00001003c0045
:1036c8000044eb000804e0001000320021088000ec
:1036d8000003200001007000200888001e01780007
:1036e8009e0190000068290081c12400c4f40700ed
:1036f8000200200003382400c1f4070006f5070083
:103708000000780010088800200037001e017800ab
:103718009e0190000068290081c12400b8f40700c8
:103728000200200003282400b5f40700faf407007b
:103738000000780010088800140037001e01780087
:103748009e0190000068290081c12400acf40700a4
:103758000200200003102400a9f40700eef407007b
:103768000000780010088800080037001e01780063
:103778009e0190000068290081c12400a0f4070080
:10378800e5f4070000007800100888004f0478006e
:103798000080fa00000006000000fa001fe1a900fe
:1037a80000002000a1472400060007001e21a900f0
:1037b8000368a9002368a8001fe1a8000080fa0098
:1037c800000006000400fa00881f7800008fbe0081
:1037d800f1088000f0fc2f0000806000f0088800ed
:1037e8001e0178009e0190000068290081c1240014
:1037f80083f4070018c0b30002f02f00f377240009
:10380800c3f407000000e00001003c000044eb00a6
:103818000804e00054003200f1088000f0fc2f009a
:10382800008060000040a000f00888001e017800b9
:103838009e0190000068290081c1240070f40700ef
:1038480002002000031024006df4070018c0b30024
:1038580002f02f00f3772400adf407000000e00029
:1038680001003c000044eb000804e0003200320094
:10387800f1088000f0fc2f00008060000050a000dc
:10388800f00888001e0178009e0190000068290059
:1038980081c124005af407000200200003282400f4
:1038a80057f4070018c0b30002f02f00f377240084
:1038b80097f407000000e00001003c000044eb0022
:1038c8000804e00010003200f10880000003200026
:1038d80001007000f00888001e0178009e01900029
:1038e8000068290081c1240045f407000200200077
:1038f8000338240042f4070087f40700000078002a
:10390800d0088800200037001e0178009e01900032
:103918000068290081c1240039f407000200200052
:103928000328240036f407007bf407000000780021
:10393800d0088800140037001e0178009e0190000e
:103948000068290081c124002df40700020020002e
:10395800031024002af407006ff407000000780021
:10396800d0088800080037001e0178009e019000ea
:103978000068290081c1240021f4070066f40700cb
:1039880000007800d00888004f0478000080fa0012
:10399800000006000000fa00c301a8000080eb0048
:1039a800e00e88000080eb00f00e8800c1e1a8005e
:1039b8000080fa00000006000000fa00c305a80015
:1039c8000080eb00e02e88000080eb00f02e8800dd
:1039d800c1e5a8000080fa00000006001400fa0003
:1039e800889fbe008a9fbe00608180007181800030
:1039f800a0818800b1818800808180009181800049
:103a0800c0818800d1818800300e80008000eb00e2
:103a1800008fbe00500e80008000eb00c000dd006b
:103a2800000020001e0f40005e974800302e8000e6
:103a38008000eb002007980031079800502e800086
:103a48008000eb00c000dd00000020002e01900087
:103a5800be019000020040008380480020079800c3
:103a6800310798001e0078009e00900066f4070059
:103a780002fe2000437923000cf5070060818800ce
:103a8800718188002e009000be0090005ef407004f
:103a980002fe200043792b0004f50700808188008e
:103aa800918188006481800075818000a0818000f8
:103ab800b18180000001be000400be0070f3070061
:103ac8004007980051079800848180009581800004
:103ad800c0818000d18180000001be000400be00ca
:103ae80067f3070060079800710798006e0190005f
:103af800fe0190004e009000de00900060f3070089
:103b0800e27a240013e62300bdf30700000f9800b3
:103b1800110f980002002000a33724004e009000e7
:103b2800de009000e1f4070000848800118488001a
:103b380002002000a33724006e009000fe009000d1
:103b4800daf4070020848800318488000484800027
:103b58001584800020848000318480000001be002c
:103b68000400be0047f30700020020000300240001
:103b7800a3f30700408488005184880002002000d5
:103b8800a33724000e0890009e089000c7f4070091
:103b9800608488007184880080848000918480001b
:103ba800e0848800f1848800a0848000b1848000cb
:103bb8000085880011858800c0848000d184800039
:103bc8002085880031858800e8848000f984800099
:103bd800408480005184800002002000a337240024
:103be80087f307000005be00c0848000d1848000f0
:103bf80081f307000001be000a00be00abf4070015
:103c08000001be000800be001ef307008084880083
:103c18009184880008858000198580004084800090
:103c28005184800002002000a337240074f30700a9
:103c38000005be00c0848000d184800038f50700ec
:103c48000001be000a00be0098f407000001be0093
:103c58000800be000bf30700a0848800b184880028
:103c680020858000318580000e0990009e09900013
:103c780004f30700c0848800d1848800c0848000d1
:103c8800d184800018c0b300b2fd20009304240042
:103c98009ff307000000e00001003c000044eb0037
:103ca8000804e00007003200c0848000d18480004e
:103cb800b2fd2000930c2400f1f20700c0848800b4
:103cc800d1848800c0848000d184800018c0b300eb
:103cd800b2fd200093042c008bf307000000e000e5
:103ce800010035000044eb000804e0000700320042
:103cf800c0848000d1848000b2fd2000930c240091
:103d0800e0f20700c0848800d18488004f05be0017
:103d18004f04be000080fa00000006001800fa00f8
:103d2800f0818000018280000001be008000eb006d
:103d38000e007800fa0007008084800091848000db
:103d48000001be00410020000e007800db000700e3
:103d5800a0848000b18480000001be0081002000a2
:103d68000e007800d5000700c0848000d184800050
:103d78000001be00c10020000e007800cf0007003f
:103d880040848000518480000001be0001012000b1
:103d98000e007800c90007006084800071848000ec
:103da8000001be00410120000e007800c30007009a
:103db8000e017800810120001006200060f907003c
:103dc8000080fa00000006000400fa00881f78004e
:103dd800008fbe0018c0b3006011b8001e00780044
:103de8009e0090004af307000000e00001003d003b
:103df8000044eb000804e000030032001e007800d5
:103e08009e009000030037001e0078009e0090007e
:103e180001f0a2004f0478000080fa0000000600bc
:103e28000800fa00881f7800008fbe00220798005b
:103e38003307980018c0b3002e019000be0190000f
:103e48001e0078009e00900031f307000000e0009b
:103e580001003c000044eb000804e00003003200cd
:103e68001e0078009e009000020037002e0090008f
:103e7800be0090004f0478000080fa0000000600a1
:103e88000800fa00881f7800008fbe0022079800fb
:103e98003307980018c0b3002e019000be019000af
:103ea8001e0078009e00900017f307000000e00055
:103eb800010035000044eb000804e0000300320074
:103ec8001e0078009e009000020037002e0090002f
:103ed800be0090004f0478000080fa000000060041
:103ee8000c00fa00881f7800008fbe002207980097
:103ef80033079800440798005507980018c0b30086
:103f08004e019000de0190001e0078009e00900097
:103f1800fff207000000e00001003c000044eb0055
:103f28000804e000040032004e019000de01900019
:103f3800028fbe000e00370018c0b3002e0190009b
:103f4800be0190001e0078009e009000eef207006f
:103f58000000e000010035000044eb000804e00028
:103f6800030032002e019000be019000028fbe00b7
:103f78001e0078009e0090004f0478000080fa0030
:103f8800000006000400fa00008fbe00b2fd200009
:103f9800930424001e0078009e00900098f2070009
:103fa8000200200043332400c0f307000080fa0019
:103fb800000006000400fa00008fbe00b2fd2000d9
:103fc800930424001e0078009e009000b7f30700b9
:103fd800020020004333240089f207000080fa0021
:103fe800000006000800fa00200798003107980032
:103ff800b2fd2000930424002e009000be00900023
:104008001ff20700b2fd2000930c240003f3070001
:10401800b2fd2000930424001af20700008fbe00ae
:10402800b2fd2000930424001e0078009e0090003a
:1040380014f20700b2fd2000930c2400f7f20700e9
:10404800b2fd2000930424000df207000080fa005e
:10405800000006000a00fa0030079800410798009f
:10406800be0090004e009000008f40001e007800b7
:10407800100178009001900012079800230798001b
:104088001e009000ae0090000080fa0000000600bc
:104098000600fa0010079800210798009e0090007b
:1040a8002e009000008f40001e00780090009000c5
:1040b800100078000080fa00000006000c00fa00ea
:1040c8002007980031079800420798005307980086
:1040d80068004700100798000000eb00000f780008
:1040e8000a0037003e0090001e004000ae0090001d
:1040f800008040009e0078001e0190008100410071
:1041080091407800014878001e0fe8001e007800f2
:10411800e30f5000f3ff34000080fa0000000600af
:104128000c00fa0020079800310798004207980011
:104138005307980068004700100798000000eb003c
:10414800000f78000b0037003e0090001e00400072
:10415800ae00900000804000320020009e00510018
:104168001e019000810041009140780001487800cc
:104178001e0fe8001e007800e30f5000f2ff340025
:104188000080fa00000006000c00fa0020079800e2
:1041980031079800420798005307980068004700c5
:1041a800100798000000eb00000f78000a003700a5
:1041b8003e0090001e004000ae00900000804000cd
:1041c8009e0078001e019000810041009140780017
:1041d800014878001e0fe8001e007800e70f500025
:1041e800f3ff34000080fa00000006000600fa0021
:1041f80010079800210798000040eb00004f780056
:1042080055000700ae009000810f500011003400e7
:104218000040eb00004f7800060037001e80fb00ce
:104228009e00900000804000104078000b000700be
:104238001e4fe8009e80fb002e009000808f5000eb
:10424800f6ff35002e0007000004e00001003a00e8
:10425800220007000080fa00000006000200fa00b1
:10426800004f780020828000011421000080400067
:104278001e487800208280000000e8002082880024
:1042880021828000f0072000808f50000100340058
:104298004430ef000080fa00000006000200fa0037
:1042a800308280000114210000804000104f780007
:1042b800308280000000e80030828800318280006f
:1042c800f0072000808f5000010034004630ef00d6
:1042d8001e4078000080fa00000006000200fa0084
:1042e80010c0b30048f0b700ecff0700004f78009b
:1042f8001e80fb00201188000080fa0000000600e4
:104308000000fa0048d0bf000080fa000000060054
:104318000200fa002182800030828000808f5000e5
:10432800050035002182800030828000008f500017
:104338001e00780006003700208280000108200057
:104348008080500030828000008f40001e0078007e
:104358000080fa00000006000200fa00ecff0700e7
:1043680001082000008f50001e0078000080fa002d
:10437800000006000000fa0021e3a9002143a8007c
:1043880001198000f0cf2f0000806000001988001c
:104398002043a90001198000000e200001007000d0
:1043a8000019880011198000f0ff210000806000ca
:1043b800101988002343a80011198000f0cf2f009e
:1043c80000806000101988001119800030f82f0053
:1043d800008060000040a000101988002203a90096
:1043e8002223a90025e3a900f0c0b30024e3b70005
:1043f80021198000f00f2e008080600000f020005e
:1044080001007000201988003303a9001e2ea8009f
:104418002e0ea8002f6ea8004feea8006f2ea80041
:104428003063a80030c3a8003163a80031e3a800b6
:104438002e03a8004119800000fc2f0000806000b6
:104448004019880028e3a90001a8a90021a8a8000c
:1044580021e3a8000080fa00000006000000fa002e
:104468002023a8000080fa00000006000000fa00df
:10447800803221000080fa00000006000000fa00e7
:1044880057d0bf000080fa00000006000000fa00c4
:104498005770ef000080fa00000006000200fa00e2
:1044a800004f78003c0007000000e0000c003400da
:1044b80070828000011c2100008040001e487800a6
:1044c800708280000000e80070828800718280009d
:1044d800f0072000808f5000010034004e30ef00bc
:1044e8000080fa00000006000200fa0080828000c6
:1044f800011c210000804000104f7800808280005d
:104508000000e8008082880081828000f007200097
:10451800808f5000010034005030ef001e407800ba
:104528000080fa00000006000000fa007182800096
:1045380080828000808f50000200320010c0b300db
:10454800010037000040eb000080fa000000060080
:104558000200fa007182800080828000808f500003
:10456800050035007182800080828000008f500035
:104578001e007800060037007082800001082000c5
:104588008080500080828000008f40001e007800ec
:104598000080fa00000006000200fa00ecff0700a5
:1045a80001082000008f50001e0078000080fa00eb
:1045b800000006000000fa002002a9000111800096
:1045c80090ff2f00008060000011880020a2a90041
:1045d8002062a800500520004011880023a2a900ed
:1045e80023e2a9000188a9002188a80011118000f0
:1045f800f0f32f0000806000101188000168a90006
:104608002168a80021428000f0ff28008080600017
:10461800000025000100700020428800314280001f
:1046280080ff2f00008060005000b30030428800f7
:1046380021e2a8002342a8000080fa00000006003a
:104648000600fa0010079800210798000040eb00c8
:10465800004f78000040eb00004f78000e00370054
:104668000000000011118000002020000080600080
:104678000000e000fbff3a001e00900010407800a8
:104688000080fb00201188001e0090000000e80058
:10469800100798001e4fe8009e80fb002e00900037
:1046a800808f5000eeff35000080fa000000060001
:1046b8000000fa002136800000f82f00008060001a
:1046c8008001b300203688001134800000fc2f00e0
:1046d800008060000000a000103488000e2eef005b
:1046e8001e2eef002e2eef003e2eef004e2eef0076
:1046f8005e2eef006e2eef00214ea90060cea900bd
:1047080060eea90011cea90011eea90020cea900e3
:1047180020eea9000136800000f82f00808060009c
:104728001006200001007000003688000136800065
:10473800f00f280080806000000026000100700053
:1047480000368800e135800000f82f008080600086
:104758006004200001007000e0358800e135800029
:10476800f00f2800808060000050240001007000d5
:0c477800e03588000080fa000000060018
:020000040000fa
:10478400521000000200000082000000010000003e
:104794004a10000004000000800000003c100000eb
:1047a40008000000800000005a100000e60000002d
:1047b400800000005410000002000000820000008d
:1047c40005000000281300000a000000800000001b
:1047d400561000000200000080000000401100009c
:1047e400800000008000000044100000060000006b
:1047f40080000000c0110000800000008000000064
:104804004e10000004000000800000004012000070
:104814008000000080000000001000002c00000058
:10482400800000002c100000100000008000000038
:10483400c012000068000000800000005810000052
:0c484400020000008000000000000000e6
:020000040000fa
:104850000000fa00f0032000303a8800213a80007e
:10486000f0f32f0000806000203a8800213a800099
:1048700000fe2f00008060000000a000203a8800a9
:104880001200200080072000a109200033742000be
:10489000804978008149780082497800103a800088
:1048a000000178000200a0006004200071052000d3
:1048b000237420008049780081497800824978007b
:1048c00000000000113a8000000027008080600096
:1048d00000002100808f5000faff3a000000000025
:1048e000113a800000022000008060000000e0001b
:0c48f000fbff32000080fa000000060010
:020000040000fa
:1048fc00f03fb1000180b10006003500ee03090065
:10490c0000000000403fb1000180b100fbff3d0002
:10491c001000b000203fb0000200350000800900fc
:08492c0000000000000006007d
:020000040000fa
:02000004000af0
:04afe000cfff00009f
:020000040000fa
:02000004000af0
:04afe400ffff00006b
:020000040000fa
:02000004000af0
:04afe8007fff0000e7
:020000040000fa
:02000004000af0
:04afec005fff000003
:020000040000fa
:02000004000af0
:04aff00038ff000026
:020000040000fa
:02000004000af0
:04aff400ffffff005c
:00000001FF
