:020000040000fa
:080000000002040000000000f2
:020000040000fa
:040008001a040000d6
:020000040000fa
:04000c001a040000d2
:020000040000fa
:040010001a040000ce
:020000040000fa
:040014001a040000ca
:020000040000fa
:040018001a040000c6
:020000040000fa
:04001c001a040000c2
:020000040000fa
:040020001a040000be
:020000040000fa
:040024001a040000ba
:020000040000fa
:040028001a040000b6
:020000040000fa
:04002c001a040000b2
:020000040000fa
:040030001a040000ae
:020000040000fa
:0400340002030000c3
:020000040000fa
:040038001a040000a6
:020000040000fa
:04003c001a040000a2
:020000040000fa
:040040001a0400009e
:020000040000fa
:040044001a0400009a
:020000040000fa
:04004800fa020000b8
:020000040000fa
:04004c001a04000092
:020000040000fa
:040050001a0400008e
:020000040000fa
:040054007a0300002b
:020000040000fa
:04005800ac030000f5
:020000040000fa
:04005c004c03000051
:020000040000fa
:040060001a0400007e
:020000040000fa
:040064001a0400007a
:020000040000fa
:040068001a04000076
:020000040000fa
:04006c001a04000072
:020000040000fa
:040070001a0400006e
:020000040000fa
:040074001a0400006a
:020000040000fa
:040078001a04000066
:020000040000fa
:04007c001a04000062
:020000040000fa
:040080001a0400005e
:020000040000fa
:040084001a0400005a
:020000040000fa
:040088001a04000056
:020000040000fa
:04008c001a04000052
:020000040000fa
:040090001a0400004e
:020000040000fa
:040094002203000043
:020000040000fa
:040098001a04000046
:020000040000fa
:04009c001a04000042
:020000040000fa
:0400a0001a0400003e
:020000040000fa
:0400a4001a0400003a
:020000040000fa
:0400a8001a04000036
:020000040000fa
:0400ac001a04000032
:020000040000fa
:0400b0001a0400002e
:020000040000fa
:0400b4001a0400002a
:020000040000fa
:0400b8001a04000026
:020000040000fa
:0400bc001a04000022
:020000040000fa
:0400c0001a0400001e
:020000040000fa
:0400c4001a0400001a
:020000040000fa
:0400c8001a04000016
:020000040000fa
:0400cc001a04000012
:020000040000fa
:0400d0001a0400000e
:020000040000fa
:0400d4001a0400000a
:020000040000fa
:0400d8001a04000006
:020000040000fa
:0400dc001a04000002
:020000040000fa
:0400e0001a040000fe
:020000040000fa
:0400e4001a040000fa
:020000040000fa
:0400e8001a040000f6
:020000040000fa
:0400ec001a040000f2
:020000040000fa
:0400f0001a040000ee
:020000040000fa
:0400f4001a040000ea
:020000040000fa
:0400f8001a040000e6
:020000040000fa
:0400fc001a040000e2
:020000040000fa
:040100001a040000dd
:020000040000fa
:040104001a040000d9
:020000040000fa
:040108001a040000d5
:020000040000fa
:04010c001a040000d1
:020000040000fa
:040110001a040000cd
:020000040000fa
:040114001a040000c9
:020000040000fa
:040118001a040000c5
:020000040000fa
:04011c001a040000c1
:020000040000fa
:040120001a040000bd
:020000040000fa
:040124001a040000b9
:020000040000fa
:040128001a040000b5
:020000040000fa
:04012c001a040000b1
:020000040000fa
:040130001a040000ad
:020000040000fa
:040134001a040000a9
:020000040000fa
:040138001a040000a5
:020000040000fa
:04013c001a040000a1
:020000040000fa
:040140001a0400009d
:020000040000fa
:040144001a04000099
:020000040000fa
:040148001a04000095
:020000040000fa
:04014c001a04000091
:020000040000fa
:040150001a0400008d
:020000040000fa
:040154001a04000089
:020000040000fa
:040158001a04000085
:020000040000fa
:04015c001a04000081
:020000040000fa
:040160001a0400007d
:020000040000fa
:040164001a04000079
:020000040000fa
:040168001a04000075
:020000040000fa
:04016c001a04000071
:020000040000fa
:040170001a0400006d
:020000040000fa
:040174001a04000069
:020000040000fa
:040178001a04000065
:020000040000fa
:04017c001a04000061
:020000040000fa
:040180001a0400005d
:020000040000fa
:040184001a04000059
:020000040000fa
:040188001a04000055
:020000040000fa
:04018c001a04000051
:020000040000fa
:040190001a0400004d
:020000040000fa
:040194001a04000049
:020000040000fa
:040198001a04000045
:020000040000fa
:04019c001a04000041
:020000040000fa
:0401a0001a0400003d
:020000040000fa
:0401a4001a04000039
:020000040000fa
:0401a8001a04000035
:020000040000fa
:0401ac001a04000031
:020000040000fa
:0401b0001a0400002d
:020000040000fa
:0401b4001a04000029
:020000040000fa
:0401b8001a04000025
:020000040000fa
:0401bc001a04000021
:020000040000fa
:0401c0001a0400001d
:020000040000fa
:0401c4001a04000019
:020000040000fa
:0401c8001a04000015
:020000040000fa
:0401cc001a04000011
:020000040000fa
:0401d0001a0400000d
:020000040000fa
:0401d4001a04000009
:020000040000fa
:0401d8001a04000005
:020000040000fa
:0401dc001a04000001
:020000040000fa
:0401e0001a040000fd
:020000040000fa
:0401e4001a040000f9
:020000040000fa
:0401e8001a040000f5
:020000040000fa
:0401ec001a040000f1
:020000040000fa
:0401f0001a040000ed
:020000040000fa
:0401f4001a040000e9
:020000040000fa
:0401f8001a040000e5
:020000040000fa
:0401fc001a040000e1
:020000040000fa
:040200001a040000dc
:020000040000fa
:040204001a040000d8
:020000040000fa
:040208001a040000d4
:020000040000fa
:04020c001a040000d0
:020000040000fa
:040210001a040000cc
:020000040000fa
:040214001a040000c8
:020000040000fa
:040218001a040000c4
:020000040000fa
:04021c001a040000c0
:020000040000fa
:040220001a040000bc
:020000040000fa
:040224001a040000b8
:020000040000fa
:040228001a040000b4
:020000040000fa
:04022c001a040000b0
:020000040000fa
:040230001a040000ac
:020000040000fa
:040234001a040000a8
:020000040000fa
:040238001a040000a4
:020000040000fa
:04023c001a040000a0
:020000040000fa
:040240001a0400009c
:020000040000fa
:040244001a04000098
:020000040000fa
:040248001a04000094
:020000040000fa
:04024c001a04000090
:020000040000fa
:040250001a0400008c
:020000040000fa
:040254001a04000088
:020000040000fa
:040258001a04000084
:020000040000fa
:04025c001a04000080
:020000040000fa
:040260001a0400007c
:020000040000fa
:040264001a04000078
:020000040000fa
:040268001a04000074
:020000040000fa
:04026c001a04000070
:020000040000fa
:040270001a0400006c
:020000040000fa
:040274001a04000068
:020000040000fa
:040278001a04000064
:020000040000fa
:04027c001a04000060
:020000040000fa
:040280001a0400005c
:020000040000fa
:10040000ef1c21000eff27000e01880000000000f5
:10041000000020000000e000020032000001200087
:100420002002880014000700040107000000e0001b
:1004300003003a00e07521000100200002003700af
:100440000000200001002000810f70000100320038
:100450000f000700000020000000e0000200320052
:100460000000020000000000b407020000000000cd
:100470000040da000000fe00800020000000e000e4
:1004800002003200002020009001880000000600d9
:10049000a1028800800478000000eb001f003700f4
:1004a000e284440054a0b4009905ba00e2844400f8
:1004b00054a0b4009906ba00e284440054a0b400e9
:1004c0000006eb00476fde00fd07b200ae018800ba
:1004d000636ce10003003a000ad801000000eb0061
:1004e0000e003700606ce10008003a00004deb00a0
:1004f0000a05e800020039003420ec000af0a000f0
:100500008b05e900f9ff3e00040037006168e10057
:10051000010032000086eb000b00070019c7ba008b
:100520000e04e0001905ba0003003a000a00e000da
:10053000dbff3a0000000600fe07b200ae028800b2
:100540008a047800f5ff37000cd0a300e20f4d00bd
:100550001c00390089027800354dba000a05e80010
:10056000020039003420ec000af0a0008b05e900fd
:100570000f003200254dba000a05e80002003900dc
:100580003420ec000af0a0008b05e90008003200de
:100590000c00e0000600320015cdba000a05e800a4
:1005a000020039003420ec000af0a0008b05e900bd
:1005b0008984e80054a0b4000b00e000e2ff3a0098
:1005c000000006009902ba00055d78008b05e9007d
:1005d000f7ff3200c82ade00055d78008b05e900d0
:1005e000f3ff32000c00e000f1ff320019ddba0029
:1005f000eeff37000000fa000108a9000080fa00b1
:10060000004006003600f800809fbe00829fbe00ba
:10061000849fbe00869fbe000000fa000068a9000b
:10062000fc060700700907000080fa004f03be00b7
:100630004f02be004f01be004f00be003600f90061
:10064000004006003600f800809fbe00829fbe007a
:10065000849fbe00869fbe000000fa000368a900c8
:10066000708080008180800061004000e080480050
:100670007080880081808800ec0207000080fa000a
:100680004f03be004f02be004f01be004f00be0030
:100690003600f90000400600809fbe000000fa000e
:1006a00001a8a9000118800020002100010878009d
:1006b00011188000200021001100980021188000ee
:1006c0002000210021009800311880002000210026
:1006d000310098004118800020002100410098005e
:1006e00010c0b3000af0b7000080fa004f00be004f
:1006f00000400600801f78000000fa000168a90091
:1007000010118000640060000000e0000100320071
:100710002242a90010118000620060000000e00089
:10072000050032002222a9000400370030118000a9
:100730002011880001003700000000001011800027
:10074000610060000000e000f8ff3a000080fa005d
:100750004f007800004006003600f800809fbe0081
:10076000829fbe00849fbe00869fbe000000fa00ec
:100770000188a900a180800090808000808f5000b7
:1007800002003200b8080700010037001670ef00c1
:100790000080fa004f03be004f02be004f01be00b2
:1007a0004f00be003600f900004006003600f80099
:1007b000809fbe00829fbe00849fbe00869fbe00b9
:1007c0000000fa000168a9001011800064006000b8
:1007d0000000e000010032002242a9001011800058
:1007e000620060000000e000060032002222a90042
:1007f0000500370030118000004078000a0907002a
:10080000010037000000000010118000610060004e
:100810000000e000f7ff3a000080fa004f03be003e
:100820004f02be004f01be004f00be003600f9006f
:10083000004006000040da000000fe000000050055
:1008400003f0a200889fbe008a9fbe008c1f780024
:100850001b010700220133006450e1004f00320009
:100860006420e1005200320003826c0007003b006c
:100870000905d0000306d000820f54000c065d006d
:100880000200390002003200890178000306780076
:100890008582550004003d000003fd008103fd003a
:1008a0008502ea008b854200840f720002003b0043
:1008b00060001000e08018006011b8000005eb0037
:1008c0007a28e1000a00390006007800c75ddd00e3
:1008d000f707b200878075002d0037008281710014
:1008e0000a017800610560008180d1000080d3009a
:1008f0008502e900f9ff3b000604400087844800b8
:1009000002003b0060041400e0841c000988a3007e
:10091000070032008a8171008281710061016400e8
:100920008904d1000884d3008b05e8001700370044
:100930000978a30013003a000b00e0001300340014
:100940008b05e9000804440089844c000a447400c3
:100950000978a3000d003a000b00e0000700340006
:100960008b05e9000804440089844c0001003a002a
:100970000b0020000978a300f7ff32000001eb0014
:1009800002003700828171000a017800910007009f
:100990000cf0a70001f0a000da0037006420e100ad
:1009a00002003a00838f6c00da0033000801be00b9
:1009b0000200be00d3003700889fbe008a9fbe00a1
:1009c0008c1f7800be000700c500330003866c0052
:1009d0006450e1002e0032006420e1003300320058
:1009e0006150e1002f0032006120e100310032004f
:1009f00085855500eb07b0000900200008042000a1
:100a0000050037000804440089844c000a003100c6
:100a10000603430087834b000001530081815b0084
:100a2000f8ff33000203be000800a00008044400e1
:100a300089844c00f6ff3900c639dd00830173005c
:100a400001003200130020008904d1000884d30083
:100a50000998a300050032000800a7000300a000c9
:100a60008904d1000884d3008b05e8008904d100f3
:100a70000884d3000001eb000281d200550007007a
:100a800001f0a1000cf0a70001f0a0009d003700cc
:100a90006420e1009f0032000801be000200be0099
:100aa000f7ff37006120e1009a0032006000b800d3
:100ab000f3ff37000000200001f82700f0ff3700a7
:100ac00014002000ca003700f4ff2f00c8003700d0
:100ad0000001be00650007000470a70003f0a1003c
:100ae0006509b100160032000d0035006828e100ec
:100af00006003500f0ff2f00f1ff27000300e000a3
:100b000013003b0001002800000005000000400029
:100b1000818048008502e900fcff3a0008003700a8
:100b2000f88f420002003c008000eb00000005004e
:100b30008100d1000080d3008502e800fcff3a006c
:100b40000300e00002003b0060001000e08018009d
:100b5000000006000001be00440007000470a7006a
:100b600003f0a10003f8a30013003a006509b100e7
:100b700010003200090035006928e100020035004c
:100b800001002800000005000000400081804800ae
:100b90008502e900fcff3a0000000600f88f4200e1
:100ba000050035008100d1000080d3008502e800f7
:100bb000fcff3a00000006008000eb00000005008a
:100bc0004f89de0082017800a40037006011b80070
:100bd000b200370081002000618055000b003d000d
:100be0000b00200061fe2f000100e1001d00340019
:100bf00082817100610164008904d1000884d300fe
:100c00000000e800faff3a00710020006100640073
:100c1000030070000200600009003200610444001b
:100c2000e0844c000988a500050032008b05e8002f
:100c30006808e10002003a008904d1000884d3006a
:100c4000f20f20000258e10005003d00c75ddd0005
:100c5000f907b200898075000800780000000600de
:100c60000bf827008b00780000000500c70ade00a3
:100c7000f107b200f50fb20008003200e1cf4200e8
:100c8000020032000170a00024000500810f7000f6
:100c9000010032000408050044000500810f7000c7
:100ca00002003a00140005008502e900000040003f
:100cb00081c04800fcff3b000170a000240005003b
:100cc0000004be00e9ff07000003be000405be00eb
:100cd0000200be00e5ff0700844f7500000006001b
:100ce0000200be006450e100050036006420e1000f
:100cf000020036000968a30001003a000800be00a7
:100d00000160a0004f0678004f05be004f04be00f2
:100d100000000600f0ff2f00f1ff2700f9ff370069
:100d2000889fbe008a9fbe008c1f7800e4ff0700ea
:100d3000ebff330003866c006450e10024003200b6
:100d40006420e100270032006150e10022003200ff
:100d50006120e100210032008b854200eb07b100e9
:100d60000134b800003ab8000804420089844a00ff
:100d7000013ab8000030b8008880400009014a00fc
:100d80000400330000004000818048000201490057
:100d90008b05e900c909dd00830170000100320004
:100da00013002000c814de004814dd004709de00ef
:100db0001200b200c808de000884700085ff07003a
:100dc00001f0a1000cf0a70001f0a000cdff37005a
:100dd0006120e100cfff32000801be000200be002a
:100de000f7ff37006150e100fcff3a00c9ff370010
:100df000889fbe008a9fbe00841f7800b0ff070056
:100e00004f00780011003300f0ff2f00838f6c003b
:100e100006003b00040565000a00a7000800370033
:100e200009f0a6001000200008003700820f5400cf
:100e3000838f5c00030039001000200001003e0099
:100e40000000200009f0a7000000ea004f05be00e6
:100e50004f04be000000e00000000600881f78007c
:100e6000030478000300e00007003d00600010006c
:100e7000e080180060011900e081190002003b00c9
:100e800001f02d00030037000400070008f0a70060
:100e900001f0a0004f04780000000600889fbe000b
:100ea0008a9fbe00008270000402710004827100fb
:100eb000260032000004be000200be006011b8002f
:100ec0006b092000950220000182cf000a00390042
:100ed0000541b1000082cf00070039000541b10093
:100ee0000982cf00040039000541b1000882cf001b
:100ef000010039000541b1000542520012003200e4
:100f00000a003b0082817100610164008100d10010
:100f10000080d3008984d3000884d3008b05e800c7
:100f20000442e800f7ff3a000700370008044400d5
:100f300089844c0000004800818048008b05e9004e
:100f40000442e900f9ff3a0022ff07004f05be0006
:080f50004f04be000000060082
:020000040000fa
:100f5800426f00006e6a00006f75000072000000aa
:020000040000fa
:100f68001400fa00a8070700f50707008d0307001b
:100f7800730307000a04070088040700de06070059
:100f88006d0707001e070700e14f500084003a0074
:100f98001f07070016070700100798001e0090009b
:100fa800100078008000eb0006ff070032332300b2
:100fb8003305240058ff07000200200003582400ce
:100fc8007bfe0700d2cc2c00c304240052ff07008c
:100fd80020079800310798002e019000be0190006c
:100fe800000020008120240071fe0700020020007c
:100ff800030a240010fe0700d08d8800e18d8800c8
:101008001e0090000080e800100078008000eb00cf
:10101800ecfe070032332300330524003eff0700af
:10102800020020000358240061fe0700d2cc2c00e7
:10103800c304240038ff07002007980031079800f0
:101048002e019000be0190000000200081202400a5
:1010580057fe070002002000030a2400f6fd0700df
:10106800f08d8800018e88001e009000640040000a
:10107800100078008000eb00d2fe07003233230016
:101088003305240024ff0700020020000358240031
:1010980047fe0700d2cc2c00c30424001eff070023
:1010a80020079800310798002e019000be0190009b
:1010b80000002000812024003dfe070002002000df
:1010c800030a2400dcfd0700108e8800218e8800aa
:1010d8001e00900068004000100078008000eb00bf
:1010e800b8fe070032332300330524000aff070047
:1010f80002002000035824002dfe0700d2cc2c004b
:10110800c304240004ff0700200798003107980053
:101118002e019000be0190000000200081202400d4
:1011280023fe070002002000030a2400c2fd070076
:10113800308e8800418e88001e00900066004000b6
:10114800100078008000eb009efe07003233230079
:1011580033052400f0fe0700020020000358240095
:1011680013fe0700d2cc2c00c3042400eafe0700bb
:1011780020079800310798002e019000be019000ca
:10118800000020008120240009fe07000200200042
:10119800030a2400a8fd0700508e8800618e88008d
:1011a8000000eb00000f780006003700af060700cc
:1011b800305798007300470011002000ec05070025
:1011c8001e0fe800c30607009e0f5000f7ff3c0003
:1011d80000712200010020007407070000c8b30056
:1011e800004f9800ec004700c27a2800060009006a
:1011f800b258780070002000500798000e48900000
:101208000080fb00ec00470001017800de00900040
:10121800ea04070000a02500212620006307070034
:1012280058ff37000000fa0020d0bf000080fb0004
:10123800cf80de00d201200003002000820f500082
:10124800838f5800bf003e00000601001d003700d4
:10125800260037002f003700390037003a003700e2
:1012680043003700440037004d0037004e00370078
:101278005700370058003700610037006200370018
:101288006b0037006c0037007500370076003700b8
:1012980080003700810037008b003700a900370035
:1012a800a8003700a7003700a600370088003700dd
:1012b80092003700a3003700a200370091003700e2
:1012c8009e0037000e30ef001030ef000041eb00b9
:1012d8006000b8007804070012c0b3006000b800ce
:1012e8007504070010c0b30020f0b70072808000ba
:1012f80083808000803e200001002000800f510084
:10130800818f59009200360020c0b30020f0b7004a
:10131800900037000041eb00000020000119240074
:101328006504070012c0b300000020000119240062
:101338006104070030c0b30020f0b7008500370013
:1013480086000700830037000041eb000000200002
:10135800011824005804070012c0b3006000b80048
:101368005504070050c0b30020f0b70079003700db
:101378007a000700770037000041eb006000b800f2
:101388004d04070012c0b30000002000011824001b
:101398004904070070c0b30020f0b7006d003700a3
:1013a8006e0007006b0037000041eb0000002000d2
:1013b800811a24004004070012c0b3006000b8007e
:1013c8003d04070090c0b30020f0b700610037006b
:1013d800620007005f0037000041eb006000b800c2
:1013e8003504070012c0b30000002000811a240051
:1013f80031040700b0c0b30020f0b7005500370033
:1014080056000700530037000041eb0000002000a1
:10141800011d24002804070012c0b3006000b800b2
:1014280025040700d0c0b30020f0b70049003700fa
:101438004a000700470037000041eb006000b80091
:101448001d04070012c0b30000002000011d240085
:1014580019040700f0c0b30020f0b7003d003700c2
:101468003e0007003b0037000041eb000000200071
:10147800011824001004070012c0b3000000200067
:1014880001182c000c04070010c1b30020f0b700ad
:1014980030003700310007002e0037000041eb0014
:1014a8000000200001182c000304070012c0b3003c
:1014b8000000200001182400ff03070030c1b3001a
:1014c80020f0b70023003700240007002100370070
:1014d8000041eb000000200001102400f603070083
:1014e80012c0b3000000200001102400f20307001e
:1014f80030c0b30020f0b70016003700170007000f
:1015080014003700f08080000000e800f0808800b8
:101518000041eb0000002000011c2400e603070046
:1015280012c0b30000002000011c2400e2030700e1
:10153800d0c1b30020f0b70006003700070007004d
:10154800040037002070ef000000000001003700a1
:10155800000000000080fa00000006000200fa0007
:10156800881f78000040eb00004f7800f08d800065
:10157800018e800018c0b300020020000319240067
:101588004dfd07000000e000010035000044eb00bd
:101598000804e00019003200108e8000218e8000bf
:1015a80018c0b30002002000831b240044fd07007c
:1015b8000000e00001003c000044eb000804e000eb
:1015c8000e003200308e8000418e800018c0b300bb
:1015d800020020000319240039fd07000000e00084
:1015e80001003c000044eb000804e0000300320066
:1015f80040c0b300004f780065013700f08d8000cf
:10160800018e800018c0b3000200200003192400d6
:101618002bfd07000000e00001003c000044eb0047
:101628000804e00019003200108e8000218e80002e
:1016380018c0b30002002000831b240020fd07000f
:101648000000e00001003c000044eb000804e0005a
:101658000e003200308e8000418e800018c0b3002a
:10166800020020000319240013fd07000000e00019
:10167800010035000044eb000804e00003003200dc
:1016880030c0b300004f780041013700108e800051
:10169800218e800018c0b30002002000031b240024
:1016a80005fd07000000e000010035000044eb00e4
:1016b8000804e00003003200a0c0b300004f780027
:1016c80033013700f08d8000018e800018c0b30010
:1016d80002002000031b2400f7fc07000000e000c4
:1016e800010035000044eb000804e0001900320056
:1016f800108e8000218e800018c0b30002002000e8
:10170800831d2400eefc07000000e00001003c00ff
:101718000044eb000804e0000e003200308e800028
:10172800418e800018c0b30002002000031b240073
:10173800e3fc07000000e00001003c000044eb006f
:101748000804e0000300320020c0b300004f780016
:101758000f013700f08d8000018e800018c0b300a3
:1017680002002000031b2400d5fc07000000e00055
:1017780001003c000044eb000804e00019003200be
:10178800108e8000218e800018c0b3000200200057
:10179800831d2400cafc07000000e00001003c0093
:1017a8000044eb000804e0000e003200308e800098
:1017b800418e800018c0b30002002000031b2400e3
:1017c800bdfc07000000e000010035000044eb000c
:1017d8000804e0000300320010c0b300004f780096
:1017e800eb003700d08d8000e18d800018c0b30079
:1017f80002002000031d2400affc07000000e000e9
:10180800010035000044eb000804e0000e0032003f
:10181800508e8000618e800018c0b3000200200046
:10182800031d2400a6fc07000000e00001003c00a6
:101838000044eb000804e00003003200d0c0b3000d
:10184800004f7800d2003700d08d8000e18d8000f5
:1018580018c0b30002002000031d240098fc0700f4
:101868000000e00001003c000044eb000804e00038
:101878000e003200508e8000618e800018c0b300c8
:1018880002002000031d24008bfc07000000e0007c
:10189800010035000044eb000804e00003003200ba
:1018a800c0c0b300004f7800b9003700f08d800049
:1018b800018e800018c0b30002002000831d2400a0
:1018c8007dfc07000000e000010035000044eb004b
:1018d8000804e00019003200108e8000218e80007c
:1018e80018c0b300020020004321240074fc070044
:1018f8000000e00001003c000044eb000804e000a8
:101908000e003200308e8000418e800018c0b30077
:1019180002002000831d240069fc07000000e0008d
:1019280001003c000044eb000804e0000300320022
:1019380060c0b300004f780095003700f08d80003c
:10194800018e800018c0b30002002000831d24000f
:101958005bfc07000000e00001003c000044eb00d5
:101968000804e00019003200108e8000218e8000eb
:1019780018c0b300020020004321240050fc0700d7
:101988000000e00001003c000044eb000804e00017
:101998000e003200308e8000418e800018c0b300e7
:1019a80002002000831d240043fc07000000e00023
:1019b800010035000044eb000804e0000300320099
:1019c80050c0b300004f780071003700108e8000bf
:1019d800218e800018c0b30002002000432024009c
:1019e80035fc07000000e000010035000044eb0072
:1019f8000804e0000300320070c0b300004f780014
:101a080063003700d08d8000e18d800018c0b300de
:101a1800020020000317240027fc07000000e00054
:101a2800010035000044eb000804e0000e0032001d
:101a3800508e8000618e800018c0b3000200200024
:101a4800031f24001efc07000000e00001003c000a
:101a58000044eb000804e00003003200f0c0b300cb
:101a6800004f78004a003700d08d8000e18d80005b
:101a780018c0b30002002000031f240010fc070058
:101a88000000e00001003c000044eb000804e00016
:101a98000e003200508e8000618e800018c0b300a6
:101aa800020020000317240003fc07000000e000e8
:101ab800010035000044eb000804e0000300320098
:101ac800e0c0b300004f780031003700108e80006e
:101ad800218e800018c0b3000200200003232400d8
:101ae800f5fb07000000e000010035000044eb00b2
:101af8000804e00003003200b0c0b300004f7800d3
:101b080023003700f08d8000018e800018c0b300dc
:101b18000200200003222400e9fb07000000e00087
:101b280001003c000044eb000804e000180032000b
:101b3800108e8000218e800018c0b30002002000a3
:101b480003272400defb07000000e00001003c0042
:101b58000044eb000804e0000d003200308e8000e5
:101b6800418e800018c0b300020020000322240028
:101b7800d3fb07000000e00001003c000044eb003c
:101b88000804e000020032000040eb00004f78003b
:101b98001e4078000004e00003003a00c0c1b30012
:101ba80021f0b7004e0037001e407800e44f500087
:101bb80003003a00c0c0b30021f0b7004800370066
:101bc8001e407800e34f500003003a00e0c0b30025
:101bd80021f0b700420037001e407800e24f500065
:101be80003003a0080c0b30021f0b7003c00370082
:101bf8001e407800e14f500003003a00a0c0b30037
:101c080021f0b700360037001e407800e64f50003c
:101c180003003a0040c0b30021f0b700300037009d
:101c28001e407800e54f500003003a0060c0b30042
:101c380021f0b7002a0037001e407800ea4f500014
:101c4800060032001e407800ef4f500003003200bb
:101c58001e407800ee4f50000a003a00f0808000e5
:101c6800610060000000e00003003a0020c1b300fa
:101c780021f0b7001a00370000c1b30021f0b70007
:101c8800170037001e407800e74f500003003a0065
:101c980080c1b30021f0b700110037001e40780062
:101ca800eb4f500003003a0020c0b30021f0b7000a
:101cb8000b0037001e407800ed4f500003003a003b
:101cc80040c0b30021f0b700050037001e4078007f
:101cd800ec4f500002003a0060c0b30021f0b7009a
:101ce80021d0bf008080fb0020d0bf000080fb0017
:101cf8000000e900808f50000200320021d0bf00b0
:101d080020f0b70021d0bf00fc4f500002003a007d
:101d180064eea8000100370064eea90021d0bf00de
:101d2800e24f500002003a0064cea80001003700dc
:101d380064cea9004f0478000080fa000000060075
:101d48000000fa0013e1a90011e1a9001061a80040
:101d58001021a90081088000f0fc2f00008060009d
:101d6800800888000a21ef000621ef0020262000c5
:101d78007008880000a025006008880021428000c3
:101d880080ff2f00008060000000a0002042880033
:101d98000108a9002108a80011e1a8000080fa00a4
:101da800000006000000fa0005e1a900000020007c
:101db800a12f2400060007000421a9000068a9003b
:101dc8002068a80005e1a8000080fa0000000600cd
:101dd8000400fa00881f7800008fbe0021088000e8
:101de800f0fc2f0000806000200888001e017800a9
:101df8009e0190000068290081c12400ecfa0700c8
:101e080018c0b30002f02f00f37724002cfb070062
:101e18000000e00001003c000044eb000804e00082
:101e28005400320021088000f0fc2f000080600080
:101e38000040a000200888001e0178009e01900044
:101e48000068290081c12400d9fa07000200200097
:101e580003102400d6fa070018c0b30002f02f00c0
:101e6800f377240016fb07000000e00001003c00a7
:101e78000044eb000804e000320032002108800032
:101e8800f0fc2f00008060000050a00020088800af
:101e98001e0178009e0190000068290081c124007d
:101ea800c3fa07000200200003282400c0fa070034
:101eb80018c0b30002f02f00f377240000fb0700de
:101ec8000000e00001003c000044eb000804e000d2
:101ed800100032002108800000032000010070007b
:101ee800200888001e0178009e01900000682900e3
:101ef80081c12400aefa0700020020000338240044
:101f0800abfa0700f0fa0700000078001008880014
:101f1800200037001e0178009e019000006829000b
:101f280081c12400a2fa070002002000032824002f
:101f38009ffa0700e4fa07000000780010088800fc
:101f4800140037001e0178009e01900000682900e7
:101f580081c1240096fa0700020020000310240023
:101f680093fa0700d8fa07000000780010088800e4
:101f7800080037001e0178009e01900000682900c3
:101f880081c124008afa0700cffa07000000780010
:101f9800100888004f0478000080fa00000006004e
:101fa8000000fa001fe1a90000002000a14724005a
:101fb800060007001e21a9000368a9002368a800dd
:101fc8001fe1a8000080fa00000006000400fa00e3
:101fd800881f7800008fbe00f1088000f0fc2f00f9
:101fe80000806000f00888001e0178009e019000c3
:101ff8000068290081c124006dfa070018c0b300e9
:1020080002f02f00f3772400adfa07000000e0008b
:1020180001003c000044eb000804e00054003200da
:10202800f1088000f0fc2f00008060000040a00054
:10203800f00888001e0178009e01900000682900c1
:1020480081c124005afa070002002000031024006e
:1020580057fa070018c0b30002f02f00f3772400e6
:1020680097fa07000000e00001003c000044eb0084
:102078000804e00032003200f1088000f0fc2f0074
:10208800008060000050a000f00888001e01780061
:102098009e0190000068290081c1240044fa0700cd
:1020a800020020000328240041fa070018c0b300ea
:1020b80002f02f00f377240081fa07000000e00007
:1020c80001003c000044eb000804e000100032006e
:1020d800f10880000003200001007000f00888006b
:1020e8001e0178009e0190000068290081c124002b
:1020f8002ffa070002002000033824002cfa0700fa
:1021080071fa070000007800d00888002000370026
:102118001e0178009e0190000068290081c12400fa
:1021280023fa0700020020000328240020fa0700f1
:1021380065fa070000007800d0088800140037000e
:102148001e0178009e0190000068290081c12400ca
:1021580017fa0700020020000310240014fa0700f1
:1021680059fa070000007800d008880008003700f6
:102178001e0178009e0190000068290081c124009a
:102188000bfa070050fa070000007800d008880012
:102198004f0478000080fa00000006000000fa00f2
:1021a8001160800080ff2f000080600010608800b0
:1021b80000fa20002060880023aca800238ca80027
:1021c80011618000f03f2f000080600000a0a00097
:1021d800106188003000200020618800c3aca8008e
:1021e800c38ca80011668000f03f2f0000806000bb
:1021f80000a0a0001066880030002000206688003b
:1022080001eca8000080fa00000006000000fa00b7
:10221800889fbe008a9fbe00b48d8000c58d800057
:10222800908d8000a18d800018c0b3000001be0011
:102238000400be0020fa07000000e000010035009d
:102248000044eb000804e0000f003200988d800085
:10225800a98d8000ba8d8000cb8d800026d0bf006c
:102268000080fb00cf80de0053fa07000001be00ab
:102278000a00be0071f907000801be0063010700eb
:10228800b08d8800c18d8800b48d8000c58d800018
:10229800908d8000a18d800018c0b3000001be00a1
:1022a8000400be0006fa07000000e00001003c0040
:1022b8000044eb000804e0000f003200988d800015
:1022c800a98d8000ba8d8000cb8d800026d0bf00fc
:1022d8000080fb00cf80de0037fa07000001be0057
:1022e8000a00be0054f907000801be002f010700cc
:1022f800b08d8800c18d8800b08d8000c18d8000b0
:1023080018c0b3006011b800edf907000000e00044
:1023180001003c000044eb000804e0000400320027
:10232800c3cca80024cea800c3eca9000300370042
:10233800c3cca90024eea800c3eca800b08d80008f
:10234800c18d800003010700020020000322240041
:1023580071fa0700fdf90700000078003066880070
:10236800748d8000858d8000508d8000618d800087
:1023780018c0b3000001be000400be00cef907007b
:102388000000e000010035000044eb000804e00014
:102398000f003200588d8000698d80007a8d800092
:1023a8008b8d800026d0bf000080fb00cf80de0030
:1023b80001fa07000001be000a00be001ff907006d
:1023c8000801be0011010700708d8800818d88000a
:1023d800748d8000858d8000508d8000618d800017
:1023e80018c0b3000001be000400be00b4f9070025
:1023f8000000e00001003c000044eb000804e0009d
:102408000f003200588d8000698d80007a8d800021
:102418008b8d800026d0bf000080fb00cf80de00bf
:10242800e5f907000001be000a00be0002f9070036
:102438000801be00dd000700708d8800818d8800ce
:10244800708d8000818d800018c0b3006011b800c5
:102458009bf907000000e00001003c000044eb008d
:102468000804e0000400320023cca90015eea800ff
:1024780023eca8000300370023eca90015cea80020
:1024880023cca800708d8000818d8000b1000700ea
:1024980002002000032224001ffa0700abf90700fe
:1024a80000007800306188004f05be004f04be0070
:1024b8000080fa00000006000600fa00008fbe0047
:1024c800424798004e4090000004e00004003a00a3
:1024d8001e0178009e019000928d8800a38d8800cf
:1024e8004e409000e14f500004003a001e01780071
:1024f8009e019000528d8800638d88000080fa004c
:10250800000006000a00fa0020079800310798002a
:1025180042079800e0cfb300004f78002e009000eb
:102528004880de00804078001e40780000c06800c7
:10253800004f78002e009000804078001e40780000
:1025480000c06800004f78003e0090004880de0020
:10255800804078001e40780000c06800004f780076
:102568003e009000804078001e40780000c068005f
:10257800004f78000000eb001007980008003700b3
:102588001e009000ce0090000080400010407800af
:102598001e4f68001e0090000000e8001007980019
:1025a8009e0090003e009000808f5000f4ff3500a0
:1025b8001e4078000080fa00000006001000fa00b3
:1025c800889fbe005007980061079800720798001e
:1025d8000f0478000f007800800478007e019000d6
:1025e800ee0090005e009000c6ff0700404798008c
:1025f8006e009000660040008000e90031079800f6
:102608000000e8000000e8000000d1008000400061
:102618000f007800818747000000e8000000d10023
:1026280000004000400798000000eb00000f780011
:102638004e0090001e004000e1cfb3000148780032
:102648001e0fe8005e0090004880de0080407800a1
:102658004e0090001e004000014878001e0fe80060
:102668005e009000804078004e0090001e00400000
:10267800014878001e0fe8006e0090004880de00d8
:10268800804078004e0090001e004000014878000d
:102698001e0fe8006e009000804078004e00900009
:1026a8001e004000014878001e0fe8000000eb0003
:1026b800100798000b0037001e009000fe009000e5
:1026c80000804000904078004e0090001e004000be
:1026d800014878001e0fe8001e0090000000e80086
:1026e800100798009e0090006e009000808f5000a8
:1026f800f1ff35004e0090001e004000ce409000d3
:10270800014878001e0fe8006e009000e6004000c7
:102718004e00900096000700890778008807780027
:102728004f04be000080fa00000006000200fa0014
:10273800004f78000080fa00000006000400fa004c
:10274800004f780011479800120798000080fa009f
:10275800000006000400fa00881f7800008fbe0001
:1027680018c0b3006011b8001e0078009e009000e9
:10277800d3f807000000e00001003d000044eb0032
:102788000804e000030032001e0078009e0090005c
:10279800030037001e0078009e00900001f0a200a0
:1027a8004f0478000080fa00000006000800fa00d4
:1027b800881f7800008fbe00220798003307980012
:1027c80018c0b3002e019000be0190001e007800d2
:1027d8009e009000baf807000000e00001003c00ed
:1027e8000044eb000804e000030032001e007800fb
:1027f8009e009000020037002e009000be0090005e
:102808004f0478000080fa00000006000800fa0073
:10281800881f7800008fbe002207980033079800b1
:1028280018c0b3002e019000be0190001e00780071
:102838009e009000a0f807000000e00001003500ad
:102848000044eb000804e000030032001e0078009a
:102858009e009000020037002e009000be009000fd
:102868004f0478000080fa00000006000c00fa000f
:10287800881f7800008fbe00220798003307980051
:10288800440798005507980018c0b3004e019000ff
:10289800de0190001e0078009e00900088f8070076
:1028a8000000e00001003c000044eb000804e000e8
:1028b800040032004e019000de019000028fbe003d
:1028c8000e00370018c0b3002e019000be01900022
:1028d8001e0078009e00900077f807000000e000d6
:1028e800010035000044eb000804e000030032005a
:1028f8002e019000be019000028fbe001e007800dd
:102908009e0090004f0478000080fa000000060046
:102918000400fa00008fbe00b2fd200093042400da
:102928001e0078009e00900021f807000200200099
:1029380043332400f8f807000080fa00000006007e
:102948000400fa00008fbe00b2fd200093042400aa
:102958001e0078009e009000eff80700020020009b
:102968004333240012f807000080fa000000060034
:102978000600fa0010079800210798000040eb00b5
:10298800004f780055000700ae009000810f5000fe
:10299800110034000040eb00004f780006003700bb
:1029a8001e80fb009e0090000080400010407800d0
:1029b8000b0007001e4fe8009e80fb002e009000d1
:1029c800808f5000f6ff35002e0007000004e0005d
:1029d80001003a00220007000080fa00000006000b
:1029e8000200fa00004f78009080800081022100e8
:1029f800008040001e487800908080000000e800b9
:102a08009080880091808000f0072000808f50001f
:102a1800010034001230ef000080fa0000000600c8
:102a28000200fa00a080800081022100008040009e
:102a3800104f7800a08080000000e800a080880087
:102a4800a1808000f0072000808f50000100340032
:102a58001430ef001e4078000080fa0000000600e5
:102a68000200fa0010c0b30016f0b700ecff070030
:102a7800004f78001e80fb00201188000080fa00bb
:102a8800000006000000fa0016d0bf000080fa001f
:102a9800000006000200fa0091808000a0808000fb
:102aa800808f50000500350091808000a080800054
:102ab800008f50001e0078000600370090808000cc
:102ac8000108200080805000a0808000008f400016
:102ad8001e0078000080fa00000006000200fa00dc
:102ae800ecff070001082000008f50001e0078004e
:102af8000080fa00000006000000fa0021e3a900a7
:102b08002143a80001198000f0cf2f000080600049
:102b1800001988002043a90001198000000e200038
:102b2800010070000019880011198000f0ff2100d1
:102b380000806000101988002343a8001119800044
:102b4800f0cf2f0000806000101988001119800054
:102b580030f82f00008060000040a00010198800a5
:102b68002203a9002223a90025e3a900f0c0b3008d
:102b780024e3b70021198000f00f2e008080600048
:102b880000f0200001007000201988003303a9001c
:102b98001e2ea8002e0ea8002f6ea8004feea8002b
:102ba8006f2ea8003063a80030c3a8003163a800c6
:102bb80031e3a8002e03a8004119800000fc2f0073
:102bc800008060004019880028e3a90001a8a90036
:102bd80021a8a80021e3a8000080fa000000060050
:102be8000000fa002023a8000080fa000000060078
:102bf8000000fa00200021000080fa000000060012
:102c08000000fa000ad0bf000080fa0000000600a9
:102c18000000fa000a70ef000080fa0000000600c9
:102c28000200fa00004f78003c0007000000e000b6
:102c38000c00340010818000810a210000804000cf
:102c48001e487800108180000000e800108188008c
:102c580011818000f0072000808f500001003400af
:102c68002230ef000080fa00000006000200fa009f
:102c780020818000810a210000804000104f7800e8
:102c8800208180000000e8002081880021818000e8
:102c9800f0072000808f5000010034002430ef003e
:102ca8001e4078000080fa00000006000000fa00cc
:102cb8001181800020818000808f50000200320046
:102cc80010c0b300010037000040eb000080fa009c
:102cd800000006000200fa001181800020818000b7
:102ce800808f500005003500118180002081800010
:102cf800008f50001e007800060037001081800009
:102d0800010820008080500020818000008f400052
:102d18001e0078000080fa00000006000200fa0099
:102d2800ecff070001082000008f50001e0078000b
:102d38000080fa00000006000000fa002002a90046
:102d48000111800090ff2f000080600000118800b2
:102d580020a2a9002062a800500520004011880088
:102d680023a2a90023e2a9000188a9002188a800bc
:102d780011118000f0f32f0000806000101188000e
:102d88000168a9002168a80021e2a8002342a80040
:102d98000080fa00000006000600fa0010079800fc
:102da800210798000040eb00004f78000040eb003e
:102db800004f78000e00370000000000111180005d
:102dc80000202000008060000000e000fbff3a00c7
:102dd8001e009000104078000080fb002011880041
:102de8001e0090000000e800100798001e4fe80041
:102df8009e80fb002e009000808f5000eeff350073
:102e08000080fa00000006000000fa00f00320002d
:102e1800303a8800213a8000f0f32f0000806000eb
:102e2800203a8800213a800000fe2f0000806000d0
:102e38000000a000203a880012002000800720002f
:102e4800a109200033742000804978008149780066
:102e580082497800103a8000000178000200a00042
:102e68006004200071052000237420008049780048
:102e7800814978008249780000000000113a8000fa
:102e8800000027008080600000002100808f500033
:102e9800faff3a0000000000113a8000000220000a
:102ea800008060000000e000fbff32000080fa00b4
:042eb8000000060010
:020000040000fa
:102ebc001e10000004000000800000000c10000038
:102ecc000600000080000000a81100002600000091
:102edc0080000000261000000200000082000000ac
:102eec0005000000001000000c0000008000000035
:102efc00281000008000000080000000121000006c
:102f0c000600000080000000a810000080000000f7
:102f1c00800000002210000004000000800000006f
:102f2c002811000080000000800000001810000034
:0c2f3c0006000000800000000000000003
:020000040000fa
:102f48000000fa002136800000f82f0000806000a1
:102f58008001b300203688001134800000fc2f0067
:102f6800008060000000a000103488000e2eef00e2
:102f78001e2eef002e2eef003e2eef004e2eef00fd
:102f88005e2eef006e2eef00214ea90060cea90044
:102f980060eea90011cea90011eea90020cea9006b
:0c2fa80020eea9000080fa0000000600e6
:020000040000fa
:102fb400f03fb1000180b10006003500ee030900c6
:102fc40000000000403fb1000180b100fbff3d0064
:102fd4001000b000203fb00002003500008009005e
:082fe4000000000000000600df
:020000040000fa
:02000004000af0
:04afe000cfff00009f
:020000040000fa
:02000004000af0
:04afe400ffff00006b
:020000040000fa
:02000004000af0
:04afe8007fff0000e7
:020000040000fa
:02000004000af0
:04afec005fff000003
:020000040000fa
:02000004000af0
:04aff00038ff000026
:020000040000fa
:02000004000af0
:04aff400ffff00005b
:00000001FF
