:020000040000fa
:080000000002040000000000f2
:020000040000fa
:040008003c040000b4
:020000040000fa
:04000c003c040000b0
:020000040000fa
:040010003c040000ac
:020000040000fa
:040014003c040000a8
:020000040000fa
:040018003c040000a4
:020000040000fa
:04001c003c040000a0
:020000040000fa
:040020003c0400009c
:020000040000fa
:040024003c04000098
:020000040000fa
:040028003c04000094
:020000040000fa
:04002c003c04000090
:020000040000fa
:040030003c0400008c
:020000040000fa
:0400340014030000b1
:020000040000fa
:040038003c04000084
:020000040000fa
:04003c003c04000080
:020000040000fa
:040040003c0400007c
:020000040000fa
:040044003c04000078
:020000040000fa
:04004800fa020000b8
:020000040000fa
:04004c003c04000070
:020000040000fa
:040050003c0400006c
:020000040000fa
:04005400f8030000ad
:020000040000fa
:04005800ce030000d3
:020000040000fa
:04005c00aa030000f3
:020000040000fa
:040060003c0400005c
:020000040000fa
:040064003c04000058
:020000040000fa
:040068003c04000054
:020000040000fa
:04006c003c04000050
:020000040000fa
:040070003c0400004c
:020000040000fa
:040074003c04000048
:020000040000fa
:040078003c04000044
:020000040000fa
:04007c003c04000040
:020000040000fa
:040080003c0400003c
:020000040000fa
:040084003c04000038
:020000040000fa
:040088003c04000034
:020000040000fa
:04008c003c04000030
:020000040000fa
:040090003c0400002c
:020000040000fa
:0400940080030000e5
:020000040000fa
:040098003c04000024
:020000040000fa
:04009c003c04000020
:020000040000fa
:0400a0003c0400001c
:020000040000fa
:0400a4003c04000018
:020000040000fa
:0400a8003c04000014
:020000040000fa
:0400ac003c04000010
:020000040000fa
:0400b0003c0400000c
:020000040000fa
:0400b4003c04000008
:020000040000fa
:0400b8003c04000004
:020000040000fa
:0400bc003c04000000
:020000040000fa
:0400c0003c040000fc
:020000040000fa
:0400c4003c040000f8
:020000040000fa
:0400c8003c040000f4
:020000040000fa
:0400cc003c040000f0
:020000040000fa
:0400d0003c040000ec
:020000040000fa
:0400d4003c040000e8
:020000040000fa
:0400d8003c040000e4
:020000040000fa
:0400dc003c040000e0
:020000040000fa
:0400e0003c040000dc
:020000040000fa
:0400e4003c040000d8
:020000040000fa
:0400e8003c040000d4
:020000040000fa
:0400ec003c040000d0
:020000040000fa
:0400f0003c040000cc
:020000040000fa
:0400f4003c040000c8
:020000040000fa
:0400f8003c040000c4
:020000040000fa
:0400fc003c040000c0
:020000040000fa
:040100003c040000bb
:020000040000fa
:040104003c040000b7
:020000040000fa
:040108003c040000b3
:020000040000fa
:04010c003c040000af
:020000040000fa
:040110003c040000ab
:020000040000fa
:040114003c040000a7
:020000040000fa
:040118003c040000a3
:020000040000fa
:04011c003c0400009f
:020000040000fa
:040120003c0400009b
:020000040000fa
:040124003c04000097
:020000040000fa
:040128003c04000093
:020000040000fa
:04012c003c0400008f
:020000040000fa
:040130003c0400008b
:020000040000fa
:040134003c04000087
:020000040000fa
:040138003c04000083
:020000040000fa
:04013c003c0400007f
:020000040000fa
:040140003c0400007b
:020000040000fa
:040144003c04000077
:020000040000fa
:040148003c04000073
:020000040000fa
:04014c003c0400006f
:020000040000fa
:040150003c0400006b
:020000040000fa
:040154003c04000067
:020000040000fa
:040158003c04000063
:020000040000fa
:04015c003c0400005f
:020000040000fa
:040160003c0400005b
:020000040000fa
:040164003c04000057
:020000040000fa
:040168003c04000053
:020000040000fa
:04016c003c0400004f
:020000040000fa
:040170003c0400004b
:020000040000fa
:040174003c04000047
:020000040000fa
:040178003c04000043
:020000040000fa
:04017c003c0400003f
:020000040000fa
:040180003c0400003b
:020000040000fa
:040184003c04000037
:020000040000fa
:040188003c04000033
:020000040000fa
:04018c003c0400002f
:020000040000fa
:040190003c0400002b
:020000040000fa
:040194003c04000027
:020000040000fa
:040198003c04000023
:020000040000fa
:04019c003c0400001f
:020000040000fa
:0401a0003c0400001b
:020000040000fa
:0401a4003c04000017
:020000040000fa
:0401a8003c04000013
:020000040000fa
:0401ac003c0400000f
:020000040000fa
:0401b0003c0400000b
:020000040000fa
:0401b4003c04000007
:020000040000fa
:0401b8003c04000003
:020000040000fa
:0401bc003c040000ff
:020000040000fa
:0401c0003c040000fb
:020000040000fa
:0401c4003c040000f7
:020000040000fa
:0401c8003c040000f3
:020000040000fa
:0401cc003c040000ef
:020000040000fa
:0401d0003c040000eb
:020000040000fa
:0401d4003c040000e7
:020000040000fa
:0401d8003c040000e3
:020000040000fa
:0401dc003c040000df
:020000040000fa
:0401e0003c040000db
:020000040000fa
:0401e4003c040000d7
:020000040000fa
:0401e8003c040000d3
:020000040000fa
:0401ec003c040000cf
:020000040000fa
:0401f0003c040000cb
:020000040000fa
:0401f4003c040000c7
:020000040000fa
:0401f8003c040000c3
:020000040000fa
:0401fc003c040000bf
:020000040000fa
:040200003c040000ba
:020000040000fa
:040204003c040000b6
:020000040000fa
:040208003c040000b2
:020000040000fa
:04020c003c040000ae
:020000040000fa
:040210003c040000aa
:020000040000fa
:040214003c040000a6
:020000040000fa
:040218003c040000a2
:020000040000fa
:04021c003c0400009e
:020000040000fa
:040220003c0400009a
:020000040000fa
:040224003c04000096
:020000040000fa
:040228003c04000092
:020000040000fa
:04022c003c0400008e
:020000040000fa
:040230003c0400008a
:020000040000fa
:040234003c04000086
:020000040000fa
:040238003c04000082
:020000040000fa
:04023c003c0400007e
:020000040000fa
:040240003c0400007a
:020000040000fa
:040244003c04000076
:020000040000fa
:040248003c04000072
:020000040000fa
:04024c003c0400006e
:020000040000fa
:040250003c0400006a
:020000040000fa
:040254003c04000066
:020000040000fa
:040258003c04000062
:020000040000fa
:04025c003c0400005e
:020000040000fa
:040260003c0400005a
:020000040000fa
:040264003c04000056
:020000040000fa
:040268003c04000052
:020000040000fa
:04026c003c0400004e
:020000040000fa
:040270003c0400004a
:020000040000fa
:040274003c04000046
:020000040000fa
:040278003c04000042
:020000040000fa
:04027c003c0400003e
:020000040000fa
:040280003c0400003a
:020000040000fa
:10040000af3221000eff2c000e018800000000001a
:10041000000020000000e000020032000001200087
:100420002002880014000700150107000000e0000a
:1004300003003a00803c2200010020000200370047
:100440000000200001002000810f70000100320038
:100450000f000700000020000000e0000200320052
:1004600000000200000000004a0902000000000035
:100470000040da000000fe00200020000000e00044
:1004800002003200100020009001880000000600e9
:10049000a1028800800478000000eb001f003700f4
:1004a000e284440054a0b4009905ba00e2844400f8
:1004b00054a0b4009906ba00e284440054a0b400e9
:1004c0000006eb00476fde00fd07b200ae018800ba
:1004d000636ce10003003a000ad801000000eb0061
:1004e0000e003700606ce10008003a00004deb00a0
:1004f0000a05e800020039003420ec000af0a000f0
:100500008b05e900f9ff3e00040037006168e10057
:10051000010032000086eb000b00070019c7ba008b
:100520000e04e0001905ba0003003a000a00e000da
:10053000dbff3a0000000600fe07b200ae028800b2
:100540008a047800f5ff37000cd0a300e20f4d00bd
:100550001c00390089027800354dba000a05e80010
:10056000020039003420ec000af0a0008b05e900fd
:100570000f003200254dba000a05e80002003900dc
:100580003420ec000af0a0008b05e90008003200de
:100590000c00e0000600320015cdba000a05e800a4
:1005a000020039003420ec000af0a0008b05e900bd
:1005b0008984e80054a0b4000b00e000e2ff3a0098
:1005c000000006009902ba00055d78008b05e9007d
:1005d000f7ff3200c82ade00055d78008b05e900d0
:1005e000f3ff32000c00e000f1ff320019ddba0029
:1005f000eeff3700801f78000000fa000108a90014
:100600002cd0bf000004e00003003a0010c0b3008b
:100610002cf0b700010037002c70ef000080fa00ca
:100620004f007800004006003600f800809fbe00b2
:10063000829fbe00849fbe00869fbe000200fa001b
:100640000068a90090818000000f78005100200010
:100650001e00780081017800110009000300d80015
:1006600001f0a7008100ea008100e900cf08de0068
:10067000814078001e0178000200e8009081880027
:100680000104e00001003200790f0700870a07002b
:10069000d70c0700750b070093818000030f7800cb
:1006a000910120001e0078008101780011000900ee
:1006b0000300d80001f0a7008100ea008100e900f2
:1006c000cf08de00814078001e0178000200e800bb
:1006d000908188000104e00002003200940d0700c0
:1006e0007f0907000080fa004f03be004f02be00e2
:1006f0004f01be004f00be003600f900004006006a
:100700003600f800809fbe00829fbe00849fbe001e
:10071000869fbe000000fa000368a9007081800077
:100720008181800061004000e08048007081880085
:1007300081818800f50307000080fa004f03be00a6
:100740004f02be004f01be004f00be003600f90050
:1007500000400600801f78000000fa0001a8a900f0
:1007600000188000009988001018800010998800f7
:100770002018800020998800301880003099880067
:10078000401880004099880010c0b3004ff0b700b7
:100790000080fa004f007800004006003600f800a4
:1007a000809fbe00829fbe00849fbe00869fbe00c9
:1007b0000000fa000188a900f1818000e08180003a
:1007c000808f500002003200c90e07000100370080
:1007d0004070ef000080fa004f03be004f02be00e1
:1007e0004f01be004f00be003600f9000040060079
:1007f0003600f800809fbe00829fbe00849fbe002e
:10080000869fbe000000fa000168a9001011800058
:10081000640060000000e000010032002242a900f4
:1008200010118000620060000000e000060032004d
:100830002222a90005003700301180000040780016
:100840001b0f07000100370000000000101180009e
:10085000610060000000e000f7ff3a000080fa004d
:100860004f03be004f02be004f01be004f00be004e
:100870003600f900004006000040da000000fe00eb
:100880000000050003f0a200889fbe008a9fbe0002
:100890008c1f78006e010700750133006450e10081
:1008a0004f0032006420e1005200320003826c00ed
:1008b00007003b000905d0000306d000820f54005a
:1008c0000c065d0002003900020032008901780048
:1008d000030678008582550004003d000003fd00fa
:1008e0008103fd008502ea008b854200840f7200bf
:1008f00002003b0060001000e08018006011b800aa
:100900000005eb007a28e1000a00390006007800b3
:10091000c75ddd00f707b200878075002d00370046
:10092000828171000a017800610560008180d10038
:100930000080d3008502e900f9ff3b000604400077
:100940008784480002003b0060041400e0841c001f
:100950000988a300070032008a817100828171003a
:10096000610164008904d1000884d3008b05e8008c
:10097000170037000978a30013003a000b00e000cd
:10098000130034008b05e9000804440089844c00fe
:100990000a4474000978a3000d003a000b00e0003f
:1009a000070034008b05e9000804440089844c00ea
:1009b00001003a000b0020000978a300f7ff320085
:1009c0000001eb0002003700828171000a0178000b
:1009d000e40007000cf0a70001f0a0002d01370093
:1009e0006420e10002003a00838f6c002d01330087
:1009f0000801be000200be00260137000081eb00a6
:100a00005f013700889fbe008a9fbe008c1f780060
:100a10000f0107001601330003866c006450e100eb
:100a20002e0032006420e100330032006150e1000a
:100a30002f0032006120e100310032008585550031
:100a4000eb07b00009002000080420000500370073
:100a50000804440089844c000a0031000603430066
:100a600087834b000001530081815b00f8ff330056
:100a70000203be000800a0000804440089844c0062
:100a8000f6ff3900c639dd00830173000100320032
:100a9000130020008904d1000884d3000998a30022
:100aa000050032000800a7000300a0008904d1005f
:100ab0000884d3008b05e8008904d1000884d300a2
:100ac0000001eb000281d200a600070001f0a100a6
:100ad0000cf0a70001f0a000ee0037006420e10058
:100ae000f00032000801be000200be00f7ff370030
:100af0006120e100eb0032006000b800f3ff370036
:100b00000000200001f82700f0ff3700140020004b
:100b100086013700f4ff2f00840137000001be007a
:100b2000b60007000470a70003f0a1006509b1003a
:100b3000160032000d0035006828e100060035007f
:100b4000f0ff2f00f1ff27000300e00013003b003f
:100b500001002800000005000000400081804800de
:100b60008502e900fcff3a0008003700f88f4200d8
:100b700002003c008000eb00000005008100d10075
:100b80000080d3008502e800fcff3a000300e0008b
:100b900002003b0060001000e0801800000006002a
:100ba0000001be00950007000470a70003f0a1003b
:100bb00003f8a30013003a006509b10010003200e9
:100bc000090035006928e100020035000100280015
:100bd0000000050000004000818048008502e90017
:100be000fcff3a0000000600f88f420005003500c7
:100bf0008100d1000080d3008502e800fcff3a00ac
:100c0000000006008000eb00000005004f89de00b8
:100c100082017800600137006011b8006e01370072
:100c20000400200000003700889fbe008a9fbe009d
:100c30008c1f78004f26dd00850007008c003300f4
:100c40006120e100430032006250e10041003e00bb
:100c50003e0039006420e1003c003200058255006e
:100c60000f003b000402e80038003a00800f5300f8
:100c7000818f5b00350034000800be0003f0a10046
:100c800001f0a60003f0a0000cf0a700fefe070094
:100c9000800037000603430087834b000c46460064
:100ca0000005530081855b00020033000a03be008b
:100cb0000c00a0000402e900f6ff3b008505780067
:100cc0000602430087824b0004003a006000b8002f
:100cd00009f0a70001f0a0006e00370000025200ea
:100ce00081825a000704e000040033000603430039
:100cf00087834b008b05e900faff37000905780070
:100d00000604be000203be006011b8001500070013
:100d1000e00f5200e08f5a000700350002003c004f
:100d20000c08a300040032000601be0003f0a0007e
:100d30000cf0a700d4fe07000a85680001f0a100ae
:100d40000af0a70001f0a000520037000800be0022
:100d500050003700100220000cf0a60080828800ae
:100d60005000370081002000618055000b003d00dd
:100d70000b00200061fe2f000100e1001d00340087
:100d800082817100610164008904d1000884d3006c
:100d90000000e800faff3a007100200061006400e2
:100da000030070000200600009003200610444008a
:100db000e0844c000988a500050032008b05e8009e
:100dc0006808e10002003a008904d1000884d300d9
:100dd000f20f20000258e10005003d00c75ddd0074
:100de000f907b2008980750008007800000006004d
:100df0000bf827008b00780000000500c70ade0012
:100e0000f107b200f50fb20008003200e1cf420056
:100e1000020032000170a00024000500810f700064
:100e2000010032000408050044000500810f700035
:100e300002003a00140005008502e90000004000ad
:100e400081c04800fcff3b000170a00024000500a9
:100e50000004be00e9ff07000003be000405be0059
:100e60000200be00e5ff0700844f75000000060089
:100e70000200be006450e100050036006420e1007d
:100e8000020036000968a30001003a000800be0015
:100e90000160a0004f0678004f05be004f04be0061
:100ea00000000600f0ff2f00f1ff2700f9ff3700d8
:100eb000889fbe008a9fbe008c1f7800e4ff070059
:100ec000ebff330003866c006450e1002400320025
:100ed0006420e100270032006150e100220032006e
:100ee0006120e100210032008b854200eb07b10058
:100ef0000134b800003ab8000804420089844a006e
:100f0000013ab8000030b8008880400009014a006a
:100f100004003300000040008180480002014900c5
:100f20008b05e900c909dd00830170000100320072
:100f300013002000c814de004814dd004709de005d
:100f40001200b200c808de000884700085ff0700a8
:100f500001f0a1000cf0a70001f0a000cdff3700c8
:100f60006120e100cfff32000801be000200be0098
:100f7000f7ff37006150e100fcff3a00c9ff37007e
:100f8000889fbe008a9fbe008c9fbe0082057800ad
:100f90000004be0099ff07000800be006420e100c5
:100fa0000700390002003a00f1ff2700f0ff2f0090
:100fb0000160a000120220008282880055003700e4
:100fc0006120e10003003a000b00a70001f82300b4
:100fd0005000370001f0a1000200210093642400ba
:100fe000cafe07000800be0004003500b2fd200064
:100ff000930c24000aff07000004be000005eb006c
:101000000b00a6004f0dde0001f0a1000004be00a1
:1010100032982f0023ea2300a5ff07000001eb0010
:1010200003f023000b00a70003f8230016fe0700bf
:10103000bafe07000000a7000a00a200f3fe0700a6
:101040000b00e000030032000200200003f0230048
:101050000cfe070001f0a2000006be000200200006
:101060009304240092ff07000801be0006fe07005b
:10107000809fbe000c00be0022a22a00d3a723003e
:101080008bff07004f01be00fffd07000004be00fc
:1010900001f0a10002002000039823009bfe07003e
:1010a0000800be00190035000001be0080ff0700e7
:1010b0000006be00b2c52900e36223007cff0700e2
:1010c00022222b00f3942b00effd07000c01be0041
:1010d00077ff0700e273280083c02300eafd0700c2
:1010e0000c01be0072ff070042aa2a00a3e22b00f7
:1010f000e5fd07000c01be006dff07000801be0002
:101100006bff07000801be00dffd07000a00a70013
:1011100001f0a2004f06be004f05be004f04be0006
:10112000000006000001eb0095ff3700889fbe001d
:101130008a9fbe00841f780045ff07004f0078009b
:1011400011003300f0ff2f00838f6c0006003b007e
:10115000040565000a00a7000800370009f0a60092
:101160001000200008003700820f5400838f5c00bd
:10117000030039001000200001003e0000002000a4
:1011800009f0a7000000ea004f05be004f04be00b2
:101190000000e00000000600881f780003047800cb
:1011a0000300e00007003d0060001000e080180030
:1011b00060011900e081190002003b0001f02d00e0
:1011c000030037000400070008f0a70001f0a000aa
:1011d0004f04780000000600889fbe008a9fbe0072
:1011e0000082700004027100048271002600320047
:1011f0000004be000200be006011b8006b092000b0
:10120000950220000182cf000a0039000541b1009b
:101210000082cf00070039000541b1000982cf00ec
:10122000040039000541b1000882cf0001003900f7
:101230000541b10005425200120032000a003b0095
:1012400082817100610164008100d1000080d300bf
:101250008984d3000884d3008b05e8000442e800a9
:10126000f7ff3a00070037000804440089844c0067
:1012700000004800818048008b05e9000442e90035
:10128000f9ff3a00b7fe07004f05be004f04be004d
:041290000000060054
:020000040000fa
:101294001200fa00889fbe006f0d0700080d0700ba
:1012a400c2080700a80807003f09070062070700f3
:1012b400340c0700c30c0700ba090700c209070071
:1012c40086060700710c0700e14f5000ed003a005c
:1012d400720c0700690c0700100798001e009000ac
:1012e400100078008000eb004afe07003233230030
:1012f40033052400edfe07000200200003582400fb
:10130400bffd0700d2cc2c00c3042400e7fe070075
:1013140020079800310798002e019000be0190002c
:101324000000200081202400b5fd070002002000f9
:10133400030a240052fd07002083880031838800bb
:101344001e0090000080e800100078008000eb0090
:1013540030fe07003233230033052400d3fe070098
:101364000200200003582400a5fd0700d2cc2c0065
:10137400c3042400cdfe070020079800310798001d
:101384002e019000be019000000020008120240066
:101394009bfd070002002000030a240038fd07001b
:1013a40040838800518388001e0090006400400040
:1013b400100078008000eb0016fe07003233230093
:1013c40033052400b9fe070002002000035824005e
:1013d4008bfd0700d2cc2c00c3042400b3fe07000d
:1013e40020079800310798002e019000be0190005c
:1013f400000020008120240081fd0700020020005d
:10140400030a24001efd070060838800718388009e
:101414001e00900068004000100078008000eb007f
:10142400fcfd070032332300330524009ffe070030
:10143400020020000358240071fd0700d2cc2c00c8
:10144400c304240099fe0700200798003107980080
:101454002e019000be019000000020008120240095
:1014640067fd070002002000030a240004fd0700b2
:1014740080838800918388001e00900066004000ed
:10148400100078008000eb00e2fd070032332300f7
:101494003305240085fe07000200200003582400c1
:1014a40057fd0700d2cc2c00c30424007ffe0700a4
:1014b40020079800310798002e019000be0190008b
:1014c40000002000812024004dfd070002002000c0
:1014d400030a2400eafc0700a0838800b183880083
:1014e40000c3b300004f980030002000500798005c
:1014f4008083800091838000a8fd070080447800e9
:101504006083800071838000a4fd0700004478009c
:101514004083800051838000a0fd070000407800d4
:10152400594f9800684f9800704f98000e489000eb
:101534000080fb00ed00470001017800de00900010
:101544007f03070000c4b300004f98002000200070
:1015540050079800a0828000b18280008ffd0700b0
:101564000040780000579800e0828000f1828000fb
:101574008afd070000407800105798000e4890003c
:101584000080fb00f000470001017800de009000bd
:101594006b030700408380005183800018c0b300b0
:1015a40002002000031a240059fd07000000e00097
:1015b40001003c000044eb000804e000020032009b
:1015c400254ea80001003700254ea90010c0b30025
:1015d400504f9800207180004a00de006140600096
:1015e400604f9800608380007183800018c0b3004e
:1015f400020020000317240045fd07000000e0005e
:1016040001003c000044eb000804e000020032004a
:1016140064eea8000100370064eea90020c0b30006
:10162400504f9800207380004700de006140600046
:10163400604f9800808380009183800018c0b300bd
:1016440002002000031a240031fd07000000e0001e
:1016540001003c000044eb000804e00002003200fa
:1016640064cea8000100370064cea90030c0b300e6
:10167400504f9800207380004600de0061406000f7
:10168400604f98000000eb00000f78000500370061
:10169400990b0700404f98004e48900087030700bd
:1016a4001e0fe800ae0b07009e0f5000f8ff3c0031
:1016b40004ff37000200fa00004f78001e41780052
:1016c40041042100824878000080fa0000000600ee
:1016d4000200fa00004f78001e80fb005082880050
:1016e40050828000e10f500003003a0020c0b30094
:1016f40044f0b7000200370040c1b30044f0b70023
:101704000080fa00000006000000fa0044d0bf0088
:101714000080fb00cf80de00d20120000300200007
:10172400820f5000838f5800bf003e000006010066
:101734001d003700260037002f003700390037001e
:101744003a00370043003700440037004d003700ab
:101754004e0037005700370058003700610037004b
:10176400620037006b0037006c00370075003700eb
:101774007600370080003700810037008b00370087
:10178400a9003700a8003700a7003700a6003700db
:101794008800370092003700a3003700a20037000a
:1017a400910037009e0037002e30ef003030ef00fc
:1017b4000041eb006000b800e606070012c0b30069
:1017c4006000b800e306070010c0b30044f0b7009f
:1017d4007281800083818000803e2000010020000f
:1017e400800f5100818f59009200360020c0b30051
:1017f40044f0b700900037000041eb0000002000e7
:1018040001192400d306070012c0b3000000200011
:1018140001192400cf06070030c0b30044f0b7001c
:101824008500370086000700830037000041eb0085
:101834000000200001182400c606070012c0b300ef
:101844006000b800c306070050c0b30044f0b700fe
:10185400790037007a000700770037000041eb0079
:101864006000b800bb06070012c0b30000002000ef
:1018740001182400b706070070c0b30044f0b70095
:101884006d0037006e0007006b0037000041eb006d
:1018940000002000811a2400ae06070012c0b30025
:1018a4006000b800ab06070090c0b30044f0b70076
:1018b40061003700620007005f0037000041eb0061
:1018c4006000b800a306070012c0b30000002000a7
:1018d400811a24009f060700b0c0b30044f0b7008b
:1018e4005500370056000700530037000041eb0055
:1018f40000002000011d24009606070012c0b3005a
:101904006000b80093060700d0c0b30044f0b700ed
:10191400490037004a000700470037000041eb0048
:101924006000b8008b06070012c0b300000020005e
:10193400011d240087060700f0c0b30044f0b7007f
:101944003d0037003e0007003b0037000041eb003c
:1019540000002000011824007e06070012c0b30016
:101964000000200001182c007a06070010c1b30003
:1019740044f0b70030003700310007002e00370074
:101984000041eb000000200001182c007106070044
:1019940012c0b30000002000011824006d060700e7
:1019a40030c1b30044f0b70023003700240007001f
:1019b400210037000041eb0000002000011024004a
:1019c4006406070012c0b3000000200001102400c8
:1019d4006006070030c0b30044f0b70016003700bb
:1019e4001700070014003700108280000000e80090
:1019f400108288000041eb0000002000011c24003c
:101a04005406070012c0b30000002000011c24008b
:101a140050060700d0c1b30044f0b70006003700f9
:101a240007000700040037004470ef0000000000c6
:101a340001003700000000000080fa0000000600ea
:101a44000a00fa00881f780050828000e10f5000dd
:101a54000a023a000040eb00004f78004083800007
:101a64005183800018c0b300020020000319240031
:101a740025fc07000000e000010035000044eb00f5
:101a84000804e00019003200608380007183800044
:101a940018c0b30002002000831b24001cfc0700b4
:101aa4000000e00001003c000044eb000804e000fa
:101ab4000e003200808380009183800018c0b30040
:101ac400020020000319240011fc07000000e000bc
:101ad40001003c000044eb000804e0000300320075
:101ae40040c0b300004f7800650137004083800098
:101af4005183800018c0b3000200200003192400a1
:101b040003fc07000000e00001003c000044eb007f
:101b14000804e000190032006083800071838000b3
:101b240018c0b30002002000831b2400f8fb070048
:101b34000000e00001003c000044eb000804e00069
:101b44000e003200808380009183800018c0b300af
:101b54000200200003192400ebfb07000000e00052
:101b6400010035000044eb000804e00003003200eb
:101b740030c0b300004f780041013700608380001b
:101b84007183800018c0b30002002000031b2400ee
:101b9400ddfb07000000e000010035000044eb001d
:101ba4000804e00003003200a0c0b300004f780036
:101bb40033013700408380005183800018c0b30094
:101bc40002002000031b2400cffb07000000e000fc
:101bd400010035000044eb000804e0001900320065
:101be400608380007183800018c0b300020020006d
:101bf400831d2400c6fb07000000e00001003c0038
:101c04000044eb000804e0000e00320080838000f2
:101c14009183800018c0b30002002000031b24003d
:101c2400bbfb07000000e00001003c000044eb00a7
:101c34000804e0000300320020c0b300004f780025
:101c44000f013700408380005183800018c0b30027
:101c540002002000031b2400adfb07000000e0008d
:101c640001003c000044eb000804e00019003200cd
:101c7400608380007183800018c0b30002002000dc
:101c8400831d2400a2fb07000000e00001003c00cb
:101c94000044eb000804e0000e0032008083800062
:101ca4009183800018c0b30002002000031b2400ad
:101cb40095fb07000000e000010035000044eb0044
:101cc4000804e0000300320010c0b300004f7800a5
:101cd400eb003700208380003183800018c0b300fc
:101ce40002002000031d240087fb07000000e00021
:101cf400010035000044eb000804e0000e0032004f
:101d0400a0838000b183800018c0b30002002000cb
:101d1400031d24007efb07000000e00001003c00de
:101d24000044eb000804e00003003200d0c0b3001c
:101d3400004f7800d2003700208380003183800078
:101d440018c0b30002002000031d240070fb07002c
:101d54000000e00001003c000044eb000804e00047
:101d64000e003200a0838000b183800018c0b3004d
:101d740002002000031d240063fb07000000e000b4
:101d8400010035000044eb000804e00003003200c9
:101d9400c0c0b300004f7800b90037004083800012
:101da4005183800018c0b30002002000831d24006a
:101db40055fb07000000e000010035000044eb0083
:101dc4000804e00019003200608380007183800001
:101dd40018c0b30002002000432124004cfb07007c
:101de4000000e00001003c000044eb000804e000b7
:101df4000e003200808380009183800018c0b300fd
:101e040002002000831d240041fb07000000e000c5
:101e140001003c000044eb000804e0000300320031
:101e240060c0b300004f7800950037004083800005
:101e34005183800018c0b30002002000831d2400d9
:101e440033fb07000000e00001003c000044eb000d
:101e54000804e00019003200608380007183800070
:101e640018c0b300020020004321240028fb07000f
:101e74000000e00001003c000044eb000804e00026
:101e84000e003200808380009183800018c0b3006c
:101e940002002000831d24001bfb07000000e0005b
:101ea400010035000044eb000804e00003003200a8
:101eb40050c0b300004f7800710037006083800089
:101ec4007183800018c0b300020020004320240066
:101ed4000dfb07000000e000010035000044eb00aa
:101ee4000804e0000300320070c0b300004f780023
:101ef40063003700208380003183800018c0b30062
:101f04000200200003172400fffa07000000e0008d
:101f1400010035000044eb000804e0000e0032002c
:101f2400a0838000b183800018c0b30002002000a9
:101f3400031f2400f6fa07000000e00001003c0043
:101f44000044eb000804e00003003200f0c0b300da
:101f5400004f78004a0037002083800031838000de
:101f640018c0b30002002000031f2400e8fa070091
:101f74000000e00001003c000044eb000804e00025
:101f84000e003200a0838000b183800018c0b3002b
:101f94000200200003172400dbfa07000000e00021
:101fa400010035000044eb000804e00003003200a7
:101fb400e0c0b300004f7800310037006083800038
:101fc4007183800018c0b3000200200003232400a2
:101fd400cdfa07000000e000010035000044eb00ea
:101fe4000804e00003003200b0c0b300004f7800e2
:101ff40023003700408380005183800018c0b30061
:102004000200200003222400c1fa07000000e000bf
:1020140001003c000044eb000804e000180032001a
:10202400608380007183800018c0b3000200200028
:1020340003272400b6fa07000000e00001003c007a
:102044000044eb000804e0000d00320080838000af
:102054009183800018c0b3000200200003222400f2
:10206400abfa07000000e00001003c000044eb0074
:102074000804e000020032000040eb00004f78004a
:102084001e4078000004e00003003a00c0c1b30021
:1020940045f0b7004e0037001e407800e44f500072
:1020a40003003a00c0c0b30045f0b7004800370051
:1020b4001e407800e34f500003003a00e0c0b30034
:1020c40045f0b700420037001e407800e24f500050
:1020d40003003a0080c0b30045f0b7003c0037006d
:1020e4001e407800e14f500003003a00a0c0b30046
:1020f40045f0b700360037001e407800e64f500028
:1021040003003a0040c0b30045f0b7003000370088
:102114001e407800e54f500003003a0060c0b30051
:1021240045f0b7002a0037001e407800ea4f5000ff
:10213400060032001e407800ef4f500003003200ca
:102144001e407800ee4f50000a003a0010828000d2
:10215400610060000000e00003003a0020c1b30009
:1021640045f0b7001a00370000c1b30045f0b700ce
:10217400170037001e407800e74f500003003a0074
:1021840080c1b30045f0b700110037001e4078004d
:10219400eb4f500003003a0020c0b30045f0b700f5
:1021a4000b0037001e407800ed4f500003003a004a
:1021b40040c0b30045f0b700050037001e4078006a
:1021c400ec4f500002003a0060c0b30045f0b70085
:1021d40045d0bf008080fb0044d0bf000080fb00de
:1021e4000000e900808f50002400320045d0bf0079
:1021f40044f0b70000c5b300104798005000200019
:102204001007980045d0bf004047980070818000b7
:10221400818180004808de00004078005047980023
:1022240070818000818180004008de0000407800d9
:102234006047980070818000818180004809dd003a
:102244004800de0000007100c808de00004078008d
:102254007047980070818000818180000040780080
:10226400004f98001e4090000080fb00e4004700ef
:10227400010178009e009000310007004f047800af
:102284000080fa00000006000a00fa002007980007
:102294003107980042079800e0cfb300004f780060
:1022a4002e0090004880de00804078001e407800b8
:1022b40000c06800004f78002e0090008040780035
:1022c4001e40780000c06800004f78003e00900077
:1022d4004880de00804078001e40780000c068001e
:1022e400004f78003e009000804078001e40780047
:1022f40000c06800004f78000000eb001007980051
:10230400080037001e009000ce00900000804000be
:10231400104078001e4f68001e0090000000e80086
:10232400100798009e0090003e009000808f50009f
:10233400f4ff35001e4078000080fa00000006001b
:102344001000fa00889fbe005007980061079800ab
:10235400720798000f0478000f007800800478005a
:102364007e019000ee0090005e009000c6ff070022
:10237400404798006e009000660040008000e9002d
:10238400310798000000e8000000e8000000d100d8
:10239400800040000f007800818747000000e800bb
:1023a4000000d10000004000400798000000eb004e
:1023b400000f78004e0090001e004000e1cfb300f3
:1023c400014878001e0fe8005e0090004880de009f
:1023d400804078004e0090001e00400001487800c4
:1023e4001e0fe8005e009000804078004e009000d0
:1023f4001e004000014878001e0fe8006e009000a7
:102404004880de00804078004e0090001e004000ae
:10241400014878001e0fe8006e00900080407800ac
:102424004e0090001e004000014878001e0fe80096
:102434000000eb00100798000b0037001e0090000e
:10244400fe00900000804000904078004e00900014
:102454001e004000014878001e0fe8001e00900096
:102464000000e800100798009e0090006e009000a5
:10247400808f5000f1ff35004e0090001e00400098
:10248400ce409000014878001e0fe8006e009000d6
:10249400e60040004e0090005807070000a8210005
:1024a4006100200017090700890778008807780071
:1024b4004f04be000080fa00000006000400fa0089
:1024c4002047980006d0bf000080fb00e30f5000b7
:1024d40026003200e30f500007003c00e10f5000db
:1024e40013003200e10f500018003c000000e0002f
:1024f4000800320059003700e50f50003700320061
:10250400e50f500020003500e60f50004100320076
:10251400520037002e409000e24f400052003a0033
:1025240010c0b30006f0b7000030ef0051003700d0
:102534002e4090000080fb004800dd0000808800f1
:1025440020c0b30006f0b7004a0037002e409000c8
:102554008080fb00008080000080400000808800b4
:1025640030c0b30006f0b700420037002e409000a0
:102574000080fb004800dd001080880040c0b300ec
:1025840006f0b7003b0037002e4090008080fb002f
:10259400108080000080400010808800108080003f
:1025a4000000e00003003a0060c0b30006f0b7008a
:1025b400300037001180800000402000808f5000e0
:1025c400020034000670ef002a00370050c0b30048
:1025d40006f0b7000430ef002600370020808000aa
:1025e40081232100808040002e41900082487800a1
:1025f4000000e80020808800218080001080800096
:10260400808f50001a00350060c0b30006f0b70098
:102614001800370011808000008080008223210090
:1026240019ff070007f0b700ae409000014f780093
:1026340007d0bf009e4f500006003a001080800073
:1026440080407800008080000040780082232100d0
:102654000a0007000670ef00060037000670ef005e
:1026640000000000030037000000000001003700f4
:10267400000000000080fa00000006000a00fa00d2
:10268400889fbe008a9fbe006047980071479800eb
:10269400420798000000eb00000f78006e409000a5
:1026a4000080fb0021052000810f5000350032001e
:1026b40021052000810f500007003c00010220008a
:1026c400810f50000e00320011052000810f5000d0
:1026d40028003200a600370011072000810f5000a7
:1026e4009400320001082000810f50001a003200cb
:1026f40001072000810f5000260032009c003700a3
:102704004e009000104078000080fb0010079800f5
:102714004e0090000000e800104078000080fb00ac
:10272400200798001e009000e10f500001003a00bd
:10273400254ea8001e009000e20f500001003a0050
:1027440064eea8001e009000e30f500085003a00dc
:1027540064cea800860037007e4090000080fb0015
:102764004e0190008000780000082000f4fe07006d
:102774007f0037004e00900010407800cdfb07002a
:102784007b0037004e00900010407800d0fb07001b
:10279400770037009e0078004e0090004006070046
:1027a40040808800518088009e007800648f40003b
:1027b4009e0078004e009000390607006080880073
:1027c400718088009e007800648f40009e0078002d
:1027d4004e009000320607008080880091808800b7
:1027e4009e007800648f40009e0078004e009000a8
:1027f4002b060700a0808800b18088009e00780026
:10280400648f40009e0078004e009000240607006c
:10281400c0808800d18088009e007800648f4000ca
:102824009e0078004e0090001d060700e08088009e
:10283400f18088009e007800648f40009e0078003c
:102844004e00900016060700008188001181880060
:1028540040808000518080000200200003f82300a3
:10286400a9f807000000e00016003a000a81800081
:102874001b818000e8808000f9808000c680800091
:10288400d7808000a4808000b58080008280800092
:102894009380800060808000718080008a9fbe00e9
:1028a400889fbe00869fbe000403be000202be00d5
:1028b4000001be00000a210031000700ec87570028
:1028c4002b00370040808000518080006011b800e8
:1028d4008df807000000e00024003a000a8180001f
:1028e4001b818000e8808000f9808000c680800021
:1028f400d7808000a4808000b58080008280800022
:102904009380800060808000718080008a9fbe0078
:10291400889fbe00869fbe000403be000202be0064
:102924000001be00c00d210015000700ec87570010
:102934000f0037008000eb004e009000d805070020
:102944002086880031868800410020004e009000d7
:10295400d305070000888800118888000000000063
:1029640003003700000000000100370000000000f1
:102974004f05be004f04be000080fa0000000600b0
:102984000e00fa00000f7800120798002307980041
:102994003407980045079800560798006707980081
:1029a4001e0078001e019000ae0190000288be0057
:1029b4001e0078003eb99700ceb9970062009800d7
:1029c400730098001e0078003e019000ce01900034
:1029d40022009800330098001e0078001eb997006a
:1029e400aeb9970002089800130898001e007800fa
:1029f4005e019000ee0190004200980053009800a0
:102a04001e0078007eb197008eb9970022089800c6
:102a1400330898000080fa00000006001200fa0053
:102a2400889fbe006007980072079800030f980003
:102a34006e0090007e0190008e09900002109800b4
:102a4400131098006e00900060029000f002900055
:102a54006e00900090009000100078000001be000d
:102a64000400be00e6f707000004be006e009000fc
:102a7400f0009000600090000002be0005f0a2008b
:102a84006e00900090009000100078000001be00dd
:102a94000400be00daf707000802be000001be0011
:102aa4007e0090008e08900011050700008fbe0084
:102ab4006e00900090009000100078001e017800d5
:102ac4009e019000f9f807006e019000001998002b
:102ad400111998006e009000400c9000d00c9000ea
:102ae40002002000a33724007e0090008e0890008e
:102af400c3f707000001be000800be0061f707002d
:102b04006e01900040099800510998006e009000f1
:102b1400000a9000900a90006e009000b0009000af
:102b2400200090000001be000400be00b4f70700be
:102b34000004be006e009000900890000008900011
:102b44000002be0005f0a2006e009000b0009000ec
:102b5400200090000001be000400be00a8f707009a
:102b64006e019000420b9000d20b90000802be0050
:102b74000001be000600be00dd0407006e019000e7
:102b840040099800510998006e009000400a900096
:102b9400d00a90006e009000b000900020009000d9
:102ba4000001be000400be00c0f807006e019000e2
:102bb40020199800311998006e009000f0089000d8
:102bc400600890000001be007e0090008e08900016
:102bd4002bf7070002002000a3372400b3f80700f6
:102be40020079800310798006e009000200a90009a
:102bf400b00a90006e009000d00090004000900059
:102c04000001be000400be007df707000004be0002
:102c14006e009000b0089000200890000002be00f2
:102c240005f0a2006e009000d000900040009000db
:102c34000001be000400be0071f707000802be00d8
:102c44000001be002e009000be009000a804070002
:102c540040079800510798006e0090007e01900094
:102c64008e09900062089800730898006e00900026
:102c7400d0009000400090004e019000de019000d2
:102c84008af807006e0190004019980051199800c5
:102c94006e009000001a9000901a90006e00900050
:102ca400b0189000201890000001be000400be007f
:102cb400f4f607000002be006e009000d0189000e9
:102cc400401890000001be000400be00edf60700ad
:102cd4004f04be000080fa00000006000200fa0063
:102ce4000000eb00000f7800208680003186800011
:102cf4000001be009e007800802b2100f304070031
:102d040000888000118880001e017800640f410053
:102d14000001be009e007800802b2100eb04070018
:102d240040868000518680001e017800640f4100b7
:102d34000001be009e007800802b2100e304070000
:102d440020888000318880001e017800640f4100d3
:102d54000001be009e007800802b2100db040700e8
:102d640000868000118680001e017800640f4100f7
:102d74000001be009e007800802b2100d3040700d0
:102d8400e0878000f18780001e017800640f410015
:102d94000001be009e007800802b2100cb040700b8
:102da40020898000318980001e017800640f410071
:102db4000001be009e007800802b2100c3040700a0
:102dc40000898000118980001e017800640f410091
:102dd4000001be009e007800802b2100bb04070088
:102de40080868000918680001e017800640f410077
:102df4000001be009e007800802b2100b304070070
:102e040060888000718880001e017800640f410092
:102e14000001be009e007800802b2100ab04070057
:102e2400a0868000b18680001e017800640f4100f6
:102e34000001be009e007800802b2100a30407003f
:102e440080888000918880001e017800640f410012
:102e54000001be009e007800802b21009b04070027
:102e6400c0868000d18680001e017800640f410076
:102e74000001be009e007800802b2100930407000f
:102e8400a0888000b18880001e017800640f410092
:102e94000001be009e007800802b21008b040700f7
:102ea40000858000118580001e017800640f4100b8
:102eb4000001be009e007800802b210083040700df
:102ec400e0868000f18680001e017800640f4100d6
:102ed4000001be009e007800802b21007b040700c7
:102ee40020858000318580001e017800640f410038
:102ef4000001be009e007800802b210073040700af
:102f040000878000118780001e017800640f410053
:102f14000001be009e007800802b21006b04070096
:102f240040858000518580001e017800640f4100b7
:102f34000001be009e007800802b2100630407007e
:102f440020878000318780001e017800640f4100d3
:102f54000001be009e007800802b21005b04070066
:102f640060858000718580001e017800640f410037
:102f74000001be009e007800802b2100530407004e
:102f840040878000518780001e017800640f410053
:102f94000001be009e007800802b21004b04070036
:102fa40080858000918580001e017800640f4100b7
:102fb4000001be009e007800802b2100430407001e
:102fc40060878000718780001e017800640f4100d3
:102fd4000001be009e007800802b21003b04070006
:102fe400a0858000b18580001e017800640f410037
:102ff4000001be009e007800802b210033040700ee
:1030040080878000918780001e017800640f410052
:103014000001be009e007800802b21002b040700d5
:10302400822b21008106200000072000c4fc070039
:103034000080fa00000006000000fa001160800021
:1030440080ff2f00008060001060880000fa2000dc
:103054002060880023aca800238ca80011618000a4
:10306400f03f2f000080600000a0a00010618800e5
:103074003000200020618800c3aca800c38ca800e5
:1030840011668000f03f2f000080600000a0a000c7
:1030940010668800300020002066880001eca8003b
:1030a4000080fa00000006000000fa00889fbe00bd
:1030b4008a9fbe000483800015838000e082800024
:1030c400f182800018c0b3000001be000400be00fd
:1030d4008df607000000e000010035000044eb001d
:1030e4000804e0000f003200e8828000f9828000ca
:1030f4000a8380001b8380004cd0bf000080fb004b
:10310400cf80de00c0f607000001be000a00be004a
:10311400dcf507000801be005d030700008388009a
:10312400118388000483800015838000e08280007e
:10313400f182800018c0b3000001be000400be008c
:1031440073f607000000e00001003c000044eb00bf
:103154000804e0000f003200e8828000f982800059
:103164000a8380001b8380004cd0bf000080fb00da
:10317400cf80de00a4f607000001be000a00be00f6
:10318400bff507000801be0029030700008388007b
:1031940011838800008380001183800018c0b3006d
:1031a4006011b8005af607000000e00001003c007e
:1031b4000044eb000804e00004003200c3cca80083
:1031c40024cea800c3eca90003003700c3cca90097
:1031d40024eea800c3eca8000083800011838000c3
:1031e400fd02070002002000032224002ff707003d
:1031f4006af607000000780030668800c482800008
:10320400d5828000a0828000b182800018c0b30003
:103214000001be000400be003bf607000000e00011
:10322400010035000044eb000804e0000f00320008
:10323400a8828000b9828000ca828000db8280007c
:103244004cd0bf000080fb00cf80de006ef607008c
:103254000001be000a00be008af507000801be0096
:103264000b030700c0828800d1828800c4828000da
:10327400d5828000a0828000b182800018c0b30093
:103284000001be000400be0021f607000000e000bb
:1032940001003c000044eb000804e0000f00320091
:1032a400a8828000b9828000ca828000db8280000c
:1032b4004cd0bf000080fb00cf80de0052f6070038
:1032c4000001be000a00be006df507000801be0043
:1032d400d7020700c0828800d1828800c0828000a3
:1032e400d182800018c0b3006011b80008f607004e
:1032f4000000e00001003c000044eb000804e00092
:103304000400320023cca90015eea80023eca80089
:103314000300370023eca90015cea80023cca80095
:10332400c0828000d1828000ab020700020020002e
:1033340003222400ddf6070018f6070000007800d9
:10334400306188004f05be004f04be000080fa00c3
:10335400000006000600fa00008fbe0042479800f5
:103364004e4090000004e00004003a001e01780082
:103374009e019000e2828800f38288004e40900013
:10338400e14f500004003a001e0178009e019000b5
:10339400a2828800b38288000080fa000000060040
:1033a4000800fa00008fbe00220798003307980037
:1033b400e27a240013e623002e009000be00900061
:1033c400baf6070002002000030024008cf5070071
:1033d4001e0178009e0190002af50700e082880013
:1033e400f1828800e0828000f182800004002000e5
:1033f400852c240002002000832c2c00bc02070032
:10340400e0828800f1828800e27a240013e6230037
:103414002e009000be009000a4f6070002002000d9
:103424000300240076f507001e0178009e01900039
:1034340014f50700a0828800b1828800a082800071
:10344400b182800004002000852c240002002000aa
:10345400832c2c00a6020700a0828800b182880079
:103464000080fa00000006000000fa0024868000b4
:103474003586800000848000118480000001be0035
:103484000400be00fef40700008688001186880050
:1034940004888000158880002084800031848000a6
:1034a4000001be000400be00f5f40700e0878800b8
:1034b400f187880000868000118680000001be002c
:1034c400000a210055fd0700208988003189880001
:1034d400e0878000f18780000001be00c00d21005c
:1034e4004efd07000089880011898800208980002a
:1034f4003189800002002000432b24006bf6070072
:103504008089880091898800008980001189800061
:1035140002002000a329240064f60700a089880083
:10352400b1898800a0898000b189800084898000e5
:10353400958980000001be000400be0098ff0700ca
:103544000080fa00000006000000fa0013e1a90060
:1035540011e1a9001061a8001021a90081088000d0
:10356400f0fc2f0000806000800888000a21ef0032
:103574000621ef00202620007008880000a0250006
:10358400600888002142800080ff2f0000806000d6
:103594000000a000204288000108a9002108a8001a
:1035a40011e1a8000080fa00000006000000fa0003
:1035b40005e1a90000002000a1372400060007004f
:1035c4000421a9000068a9002068a80005e1a8005a
:1035d4000080fa00000006000400fa00881f78004a
:1035e400008fbe0021088000f0fc2f0000806000e6
:1035f400200888001e0178009e01900000682900c0
:1036040081c12400fef4070018c0b30002f02f00ab
:10361400f37724003ef507000000e00001003c00c1
:103624000044eb000804e00054003200210880004c
:10363400f0fc2f00008060000040a00020088800fb
:103644001e0178009e0190000068290081c12400b9
:10365400ebf407000200200003102400e8f4070044
:1036640018c0b30002f02f00f377240028f50700f8
:103674000000e00001003c000044eb000804e0000e
:103684003200320021088000f0fc2f00008060002e
:103694000050a000200888001e0178009e019000c0
:1036a4000068290081c12400d5f40700020020002d
:1036b40003282400d2f4070018c0b30002f02f003e
:1036c400f377240012f507000000e00001003c003d
:1036d4000044eb000804e0001000320021088000e0
:1036e4000003200001007000200888001e017800fb
:1036f4009e0190000068290081c12400c0f40700e5
:103704000200200003382400bdf4070002f507007e
:103714000000780010088800200037001e0178009f
:103724009e0190000068290081c12400b4f40700c0
:103734000200200003282400b1f40700f6f4070077
:103744000000780010088800140037001e0178007b
:103754009e0190000068290081c12400a8f407009c
:103764000200200003102400a5f40700eaf4070077
:103774000000780010088800080037001e01780057
:103784009e0190000068290081c124009cf4070078
:10379400e1f4070000007800100888004f04780066
:1037a4000080fa00000006000000fa001fe1a900f2
:1037b40000002000a1472400060007001e21a900e4
:1037c4000368a9002368a8001fe1a8000080fa008c
:1037d400000006000400fa00881f7800008fbe0075
:1037e400f1088000f0fc2f0000806000f0088800e1
:1037f4001e0178009e0190000068290081c1240008
:103804007ff4070018c0b30002f02f00f377240000
:10381400bff407000000e00001003c000044eb009e
:103824000804e00054003200f1088000f0fc2f008e
:10383400008060000040a000f00888001e017800ad
:103844009e0190000068290081c124006cf40700e7
:10385400020020000310240069f4070018c0b3001c
:1038640002f02f00f3772400a9f407000000e00021
:1038740001003c000044eb000804e0003200320088
:10388400f1088000f0fc2f00008060000050a000d0
:10389400f00888001e0178009e019000006829004d
:1038a40081c1240056f407000200200003282400ec
:1038b40053f4070018c0b30002f02f00f37724007c
:1038c40093f407000000e00001003c000044eb001a
:1038d4000804e00010003200f1088000000320001a
:1038e40001007000f00888001e0178009e0190001d
:1038f4000068290081c1240041f40700020020006f
:10390400033824003ef4070083f407000000780025
:10391400d0088800200037001e0178009e01900026
:103924000068290081c1240035f40700020020004a
:103934000328240032f4070077f40700000078001d
:10394400d0088800140037001e0178009e01900002
:103954000068290081c1240029f407000200200026
:103964000310240026f407006bf40700000078001d
:10397400d0088800080037001e0178009e019000de
:103984000068290081c124001df4070062f40700c7
:1039940000007800d00888004f0478000080fa0006
:1039a400000006000000fa00c301a8000080eb003c
:1039b400e00e88000080eb00f00e8800c1e1a80052
:1039c4000080fa00000006000000fa00c305a80009
:1039d4000080eb00e02e88000080eb00f02e8800d1
:1039e400c1e5a8000080fa00000006001c00fa00ef
:1039f400889fbe008a9fbe00a2818000b3818000a0
:103a0400028fbe00c2818000d3818000220798000b
:103a140033079800300e80008000eb0040079800c8
:103a240051079800500e80008000eb00c000dd00bc
:103a3400000020004e019000de01900002004000d2
:103a4400838048004007980051079800302e80007a
:103a54008000eb006007980071079800502e8000ea
:103a64008000eb00c000dd00000020006e0190002b
:103a7400fe01900002004000838048006007980027
:103a8400710798004e009000de0090005ef407007d
:103a940002fe20004379230004f50700a08188007a
:103aa400b18188006e009000fe00900056f407007b
:103ab40002fe200043792b00fcf40700c08188003b
:103ac400d1818800a0818000b18180001e0178002e
:103ad4009e0190006af30700000f9800110f9800f0
:103ae400c0818000d18180002e019000be01900031
:103af40063f30700200f9800310f98002e099000ff
:103b0400be0990000e0890009e0890005cf3070028
:103b1400e27a240013e62300b9f30700400f98006b
:103b2400510f980002002000a33724000e089000d3
:103b34009e089000ddf40700c0838800d1838800cc
:103b440002002000a33724002e089000be08900035
:103b5400d6f40700e0838800f1838800c4838000e2
:103b6400d5838000e0838000f18380000001be00e3
:103b74000400be0043f307000200200003002400f9
:103b84009ff307000084880011848800020020004d
:103b9400a33724004e089000de089000c3f4070009
:103ba400208488003184880040848000518480000f
:103bb400a0848800b18488006084800071848000bf
:103bc400c0848800d184880080848000918480002f
:103bd400e0848800f1848800a8848000b98480008f
:103be400008480001184800002002000a337240098
:103bf40083f307000005be00808480009184800068
:103c04007df307000001be000a00be00a7f4070010
:103c14000001be000800be001af3070040848800bb
:103c240051848800c8848000d98480000084800086
:103c34001184800002002000a337240070f30700e1
:103c44000005be00808480009184800034f5070064
:103c54000001be000a00be0094f407000001be008b
:103c64000800be0007f307006084880071848800a0
:103c7400e0848000f18480004e099000de09900009
:103c840000f3070080848800918488008084800089
:103c94009184800018c0b300b2fd20009304240076
:103ca4009bf307000000e00001003c000044eb002f
:103cb4000804e000070032008084800091848000c2
:103cc400b2fd2000930c2400edf2070080848800ec
:103cd40091848800808480009184800018c0b3009f
:103ce400b2fd200093042c0087f307000000e000dd
:103cf400010035000044eb000804e0000700320036
:103d04008084800091848000b2fd2000930c240004
:103d1400dcf2070080848800918488004f05be008f
:103d24004f04be000080fa00000006001800fa00ec
:103d340070818000818180000001be008000eb0062
:103d44000e007800fa00070040848000518480004f
:103d54000001be00410020000e007800db000700d7
:103d640060848000718480000001be008100200016
:103d74000e007800d50007008084800091848000c4
:103d84000001be00c10020000e007800cf00070033
:103d940000848000118480000001be000101200025
:103da4000e007800c9000700208480003184800060
:103db4000001be00410120000e007800c30007008e
:103dc4000e01780081012000100620005cf9070034
:103dd4000080fa00000006000400fa00881f780042
:103de400008fbe0018c0b3006011b8001e00780038
:103df4009e00900046f307000000e00001003d0033
:103e04000044eb000804e000030032001e007800c8
:103e14009e009000030037001e0078009e00900072
:103e240001f0a2004f0478000080fa0000000600b0
:103e34000800fa00881f7800008fbe00220798004f
:103e44003307980018c0b3002e019000be01900003
:103e54001e0078009e0090002df307000000e00093
:103e640001003c000044eb000804e00003003200c1
:103e74001e0078009e009000020037002e00900083
:103e8400be0090004f0478000080fa000000060095
:103e94000800fa00881f7800008fbe0022079800ef
:103ea4003307980018c0b3002e019000be019000a3
:103eb4001e0078009e00900013f307000000e0004d
:103ec400010035000044eb000804e0000300320068
:103ed4001e0078009e009000020037002e00900023
:103ee400be0090004f0478000080fa000000060035
:103ef4000c00fa00881f7800008fbe00220798008b
:103f040033079800440798005507980018c0b30079
:103f14004e019000de0190001e0078009e0090008b
:103f2400fbf207000000e00001003c000044eb004d
:103f34000804e000040032004e019000de0190000d
:103f4400028fbe000e00370018c0b3002e0190008f
:103f5400be0190001e0078009e009000eaf2070067
:103f64000000e000010035000044eb000804e0001c
:103f7400030032002e019000be019000028fbe00ab
:103f84001e0078009e0090004f0478000080fa0024
:103f9400000006000400fa00008fbe00b2fd2000fd
:103fa400930424001e0078009e00900094f2070001
:103fb4000200200043332400bcf307000080fa0011
:103fc400000006000400fa00008fbe00b2fd2000cd
:103fd400930424001e0078009e009000b3f30700b1
:103fe400020020004333240085f207000080fa0019
:103ff400000006000800fa00200798003107980026
:10400400b2fd2000930424002e009000be00900016
:104014001bf20700b2fd2000930c2400fff20700fe
:10402400b2fd20009304240016f20700008fbe00a6
:10403400b2fd2000930424001e0078009e0090002e
:1040440010f20700b2fd2000930c2400f3f20700e5
:10405400b2fd20009304240009f207000080fa0056
:10406400000006000a00fa00300798004107980093
:10407400be0090004e009000008f40001e007800ab
:10408400100178009001900012079800230798000f
:104094001e009000ae0090000080fa0000000600b0
:1040a4000600fa0010079800210798009e0090006f
:1040b4002e009000008f40001e00780090009000b9
:1040c400100078000080fa00000006000c00fa00de
:1040d400200798003107980042079800530798007a
:1040e40068004700100798000000eb00000f7800fc
:1040f4000a0037003e0090001e004000ae00900011
:10410400008040009e0078001e0190008100410064
:1041140091407800014878001e0fe8001e007800e6
:10412400e30f5000f3ff34000080fa0000000600a3
:104134000c00fa0020079800310798004207980005
:104144005307980068004700100798000000eb0030
:10415400000f78000b0037003e0090001e00400066
:10416400ae00900000804000320020009e0051000c
:104174001e019000810041009140780001487800c0
:104184001e0fe8001e007800e30f5000f2ff340019
:104194000080fa00000006000c00fa0020079800d6
:1041a40031079800420798005307980068004700b9
:1041b400100798000000eb00000f78000a00370099
:1041c4003e0090001e004000ae00900000804000c1
:1041d4009e0078001e01900081004100914078000b
:1041e400014878001e0fe8001e007800e70f500019
:1041f400f3ff34000080fa00000006000600fa0015
:1042040010079800210798000040eb00004f780049
:1042140055000700ae009000810f500011003400db
:104224000040eb00004f7800060037001e80fb00c2
:104234009e00900000804000104078000b000700b2
:104244001e4fe8009e80fb002e009000808f5000df
:10425400f6ff35002e0007000004e00001003a00dc
:10426400220007000080fa00000006000200fa00a5
:10427400004f7800e081800081132100008040001d
:104284001e487800e08180000000e800e08188009a
:10429400e1818000f0072000808f5000010034008d
:1042a4003c30ef000080fa00000006000200fa0033
:1042b400f08180008113210000804000104f7800bd
:1042c400f08180000000e800f0818800f181800026
:1042d400f0072000808f5000010034003e30ef00d2
:1042e4001e4078000080fa00000006000200fa0078
:1042f40010c0b30040f0b700ecff0700004f780097
:104304001e80fb00201188000080fa0000000600d7
:104314000000fa0040d0bf000080fa000000060050
:104324000200fa00e1818000f0818000808f50005b
:1043340005003500e1818000f0818000008f50008d
:104344001e00780006003700e0818000010820008c
:1043540080805000f0818000008f40001e007800b3
:104364000080fa00000006000200fa00ecff0700db
:1043740001082000008f50001e0078000080fa0021
:10438400000006000000fa0021e3a9002143a80070
:1043940001198000f0cf2f00008060000019880010
:1043a4002043a90001198000000e200001007000c4
:1043b4000019880011198000f0ff210000806000be
:1043c400101988002343a80011198000f0cf2f0092
:1043d40000806000101988001119800030f82f0047
:1043e400008060000040a000101988002203a9008a
:1043f4002223a90025e3a900f0c0b30024e3b700f9
:1044040021198000f00f2e008080600000f0200051
:1044140001007000201988003303a9001e2ea80093
:104424002e0ea8002f6ea8004feea8006f2ea80035
:104434003063a80030c3a8003163a80031e3a800aa
:104444002e03a8004119800000fc2f0000806000aa
:104454004019880028e3a90001a8a90021a8a80000
:1044640021e3a8000080fa00000006000000fa0022
:104474002023a8000080fa00000006000000fa00d3
:10448400003221000080fa00000006000000fa005b
:104494004fd0bf000080fa00000006000000fa00c0
:1044a4004f70ef000080fa00000006000200fa00de
:1044b400004f78003c0007000000e0000c003400ce
:1044c40030828000811b2100008040001e4878005b
:1044d400308280000000e800308288003182800051
:1044e400f0072000808f5000010034004630ef00b8
:1044f4000080fa00000006000200fa0040828000fa
:10450400811b210000804000104f78004082800011
:104514000000e8004082880041828000f00720000b
:10452400808f5000010034004830ef001e407800b6
:104534000080fa00000006000000fa0031828000ca
:1045440040828000808f50000200320010c0b3000f
:10455400010037000040eb000080fa000000060074
:104564000200fa003182800040828000808f500077
:10457400050035003182800040828000008f5000a9
:104584001e007800060037003082800001082000f9
:104594008080500040828000008f40001e00780020
:1045a4000080fa00000006000200fa00ecff070099
:1045b40001082000008f50001e0078000080fa00df
:1045c400000006000000fa002002a900011180008a
:1045d40090ff2f00008060000011880020a2a90035
:1045e4002062a800500520004011880023a2a900e1
:1045f40023e2a9000188a9002188a80011118000e4
:10460400f0f32f0000806000101188000168a900f9
:104614002168a80021428000f0ff2800808060000b
:104624000000250001007000204288003142800013
:1046340080ff2f00008060005000b30030428800eb
:1046440021e2a8002342a8000080fa00000006002e
:104654000600fa0010079800210798000040eb00bc
:10466400004f78000040eb00004f78000e00370048
:104674000000000011118000002020000080600074
:104684000000e000fbff3a001e009000104078009c
:104694000080fb00201188001e0090000000e8004c
:1046a400100798001e4fe8009e80fb002e0090002b
:1046b400808f5000eeff35000080fa0000000600f5
:1046c4000000fa002136800000f82f00008060000e
:1046d4008001b300203688001134800000fc2f00d4
:1046e400008060000000a000103488000e2eef004f
:1046f4001e2eef002e2eef003e2eef004e2eef006a
:104704005e2eef006e2eef00214ea90060cea900b0
:1047140060eea90011cea90011eea90020cea900d7
:1047240020eea9000136800000f82f008080600090
:104734001006200001007000003688000136800059
:10474400f00f280080806000000026000100700047
:1047540000368800e135800000f82f00808060007a
:104764006004200001007000e0358800e13580001d
:10477400f00f2800808060000050240001007000c9
:0c478400e03588000080fa00000006000c
:020000040000fa
:104790004a1000000200000082000000010000003a
:1047a0004210000004000000800000002c100000f7
:1047b000080000008000000052100000e600000029
:1047c000800000004c100000020000008200000089
:1047d00005000000201300000a0000008000000017
:1047e0004e100000020000008000000038110000a0
:1047f00080000000800000003c1000000600000067
:1048000080000000b811000080000000800000005f
:104810004610000004000000800000003812000074
:104820008000000080000000001000002c0000004c
:10483000800000003410000008000000800000002c
:10484000b812000068000000800000005010000056
:0c485000020000008000000000000000da
:020000040000fa
:10485c000000fa00f0032000303a8800213a800072
:10486c00f0f32f0000806000203a8800213a80008d
:10487c0000fe2f00008060000000a000203a88009d
:10488c001200200080072000a109200033742000b2
:10489c00804978008149780082497800103a80007c
:1048ac00000178000200a0006004200071052000c7
:1048bc00237420008049780081497800824978006f
:1048cc0000000000113a800000002700808060008a
:1048dc0000002100808f5000faff3a000000000019
:1048ec00113a800000022000008060000000e0000f
:0c48fc00fbff32000080fa000000060004
:020000040000fa
:10490800f03fb1000180b10006003500ee03090058
:1049180000000000403fb1000180b100fbff3d00f6
:104928001000b000203fb0000200350000800900f0
:08493800000000000000060071
:020000040000fa
:02000004000af0
:04afe000cfff00009f
:020000040000fa
:02000004000af0
:04afe400ffff00006b
:020000040000fa
:02000004000af0
:04afe8007fff0000e7
:020000040000fa
:02000004000af0
:04afec005fff000003
:020000040000fa
:02000004000af0
:04aff00038ff000026
:020000040000fa
:02000004000af0
:04aff400ffffff005c
:00000001FF
